:020000040000FA
:1000000000300320150200004D02000051020000E4
:1000100049020000490200004902000049020000B4
:100020000000000000000000000000005504000077
:100030004902000000000000F50400000505000072
:100040006102000065020000690200006D0200000C
:100050007102000075020000790200007D020000BC
:100060008102000085020000890200008D0200006C
:100070009102000095020000990200009D0200001C
:10008000A1020000A5020000A9020000AD020000CC
:10009000B1020000B5020000B9020000BD0200007C
:1000A000C1020000C5020000C9020000CD0200002C
:1000B000D1020000D5020000D9020000DD020000DC
:1000C000E1020000E5020000E9020000ED0200008C
:1000D000F1020000F5020000F9020000FD0200003C
:1000E0000103000005030000090300000D030000E8
:1000F00011030000150300001903000051950000D2
:100100002103000025030000290300002D03000047
:100110003103000035030000390300003D030000F7
:100120004103000045030000490300004D030000A7
:1001300000000000000000000000000000000000BF
:1001400000000000000000000000000000000000AF
:10015000000000000000000000000000000000009F
:10016000000000000000000000000000000000008F
:10017000000000000000000000000000000000007F
:10018000000000000000000000000000000000006F
:10019000000000000000000000000000000000005F
:1001A000000000000000000000000000000000004F
:1001B000000000000000000000000000000000003F
:1001C000000000000000000000000000000000002F
:1001D000000000000000000000000000000000001F
:1001E000000000000000000000000000000000000F
:1001F00000000000000000000000000000000000FF
:10020000DFF80CD000F026FA0048004741AB0000B0
:100210000030032072B60748074901600A6882F37C
:100220000888064880F30A880548804762B6054872
:10023000004700BF08ED00E000000000002C032094
:10024000817B000001020000FFF7FEBF404800472D
:100250004048004740480047404800474048004762
:100260004048004740480047404800474048004752
:100270004048004740480047404800474048004742
:100280004048004740480047404800474048004732
:100290004048004740480047404800474048004722
:1002A0004048004740480047404800474048004712
:1002B0004048004740480047404800474048004702
:1002C00040480047404800474048004740480047F2
:1002D00040480047404800474048004740480047E2
:1002E00040480047404800474048004740480047D2
:1002F00040480047404800474048004740480047C2
:1003000040480047404800474048004740480047B1
:1003100040480047404800474048004740480047A1
:100320004048004740480047404800474048004791
:100330004048004740480047404800474048004781
:100340004048004740480047404800474048004771
:100350004D0200005102000055040000F5040000A9
:100360000505000049020000D52E000049020000EA
:100370004902000049020000490200004902000051
:100380004902000049020000490200004902000041
:10039000490200004902000049020000F139000052
:1003A000213A0000513A0000813A0000B13A0000C1
:1003B000E13A0000113B0000413B0000490200000F
:1003C0004902000049020000490200004902000001
:1003D00049020000490200004902000049020000F1
:1003E00049020000490200004902000049020000E1
:1003F00049020000490200004902000049020000D1
:1004000049020000490200004902000049020000C0
:1004100049020000490200004902000049020000B0
:1004200049020000490200004902000049020000A0
:100430004902000049020000490200004902000090
:10044000490200004902000049020000E12E0000BC
:10045000713B00001EF0040F0CBFEFF30880EFF3B8
:100460000980816911F8021C002935D101B590E895
:100470000F10E047BDE800508CE80300254B93E8DF
:100480000600914208BF70471A6041B91EF0100F74
:1004900010D1214B186820F0010018600AE02CE907
:1004A000F00F1EF0100F08BF2CED108AC1F838C0F5
:1004B00081F822E0906B116B81F30B8892F8221087
:1004C00061F0FF0E1EF0100F08BFB0EC108AB0E80C
:1004D000F00F80F309887047104A13689942FAD8E0
:1004E00001B552F821C00FC8E047BDE80050CCF874
:1004F0000000704701B50AF0CFFDBDE80140EFF301
:10050000098CBBE701B50BF02DF8BDE80140EFF316
:10051000098CB3E74400002034EF00E0F8FF00004E
:100520002DE9F05F0546002092469B468846064628
:10053000814640241BE0284641464746224600F0BB
:1005400079F853465A46C01A914110D311461846BD
:10055000224600F060F82D1A67EB01084F4622464C
:100560000120002100F057F817EB00094E41201E32
:10057000A4F10104DFDC484631462A464346BDE883
:10058000F09F40EA01039B0703D009E008C9121F4E
:1005900008C0042AFAD203E011F8013B00F8013B3D
:1005A000521EF9D27047D2B201E000F8012B491E69
:1005B000FBD270470022F6E710B513460A46044600
:1005C0001946FFF7F0FF204610BD421C10F8011B32
:1005D0000029FBD1801A7047034611F8012B00F85F
:1005E000012B002AF9D11846704720F00040C20DB7
:1005F000C0F3160040F400007F2A02DA0020014612
:1006000070470021962A03DCC2F19602D040704761
:10061000963AAFF30080202A04DB203A00FA02F178
:10062000002070479140C2F1200320FA03F31943E0
:1006300090407047202A04DB203A21FA02F0002182
:10064000704721FA02F3D040C2F1200291400843E2
:1006500019467047064C074D06E0E06840F001037C
:1006600094E8070098471034AC42F6D3FFF7CCFD6E
:10067000740D0100940D010030B58C1810F8012B99
:1006800012F00F0301D110F8013B120906D110F846
:10069000012B03E010F8015B01F8015B5B1EF9D14F
:1006A00001E001F8013B521EFBD1A142E6D300203C
:1006B00030BD00002DE9F04389B0C826C4F202061F
:1006C0002020306041F60030C0F2B70000F09CFC02
:1006D00049F20818C0F21008404600F02BF94DF618
:1006E0000000C0F2B85000F08FFC4FF48070306012
:1006F0004FF48010306042F20040C0F2F40000F08D
:1007000063FC40F61820C4F2000001684DF2801925
:1007100041F02001016043F22000C4F201000168B1
:10072000C0F6F00941F080710160016841F40001F8
:100730000160484604F0E0FE484600F0EDFA4FF450
:10074000037000F0F7F84FF4007030604FF40000D1
:1007500030604FF6FC50C0F2000090E84E00D0E947
:100760000447D0E906500DF1040C8CE84E00CDE9A9
:100770000547CDE9075001A800F060FB08200021E3
:10078000002200F0ADFA0B200021002200F0A8FAB0
:1007900020200121002200F0A3FA222000210122C2
:1007A00000F09EFA22200221002200F099FA08F5BA
:1007B000801000F0BFF840F2144000F0BBF840F2A7
:1007C000174000F0B7F840F22800C2F20000C0F86D
:1007D000009009B0BDE8F083FFF76CBF04F038BDAE
:1007E0004FF6EC40C0F20000446AC56A40F22C2685
:1007F00047F67058C2F20006C2F2000803E000BFDC
:100800000A200AF0B1F9A8478007F9D5F768A04790
:1008100031693844421AB2F5F07F07DBF0684FF4D3
:10082000F072A0F5F070306102E000BF012AE7DB52
:10083000306931696FF35F20C0F500706FF35F219D
:100840008242C8BF0246414400200BF08FFE0128BF
:10085000D6DB316908443061D2E70000F0B581B0E1
:100860004FF6EC46C0F20006B76A04461820002195
:100870000025B84719200021B84715200021B847A6
:1008800016200021B84794F90400022819D894F9D9
:100890000510022918D8A279053AD3B2032B13D830
:1008A0001AA353F820001CA352B253F821101DA321
:1008B00053F82220084321681043B8474FF0000541
:1008C00030B1284601B0F0BD0025284601B0F0BD8A
:1008D000D4F80300216840F22C22C2F20002C2F8D0
:1008E0001700516115200121D56015610125B84718
:1008F00016200121B847B26947F67050C2F20000D5
:100900004FF400719047284601B0F0BD0000000090
:1009100000800000004000000000000000200000F7
:1009200000100000010500000106000001070000A2
:100930000100000040F00041B1F1004F08BF7047D6
:10094000010513D0C0F30321C2B201393F2AC9B255
:1009500006D19822C4F2020213681943116005E01F
:1009600040F26023C4F2000343F822100021B1EBEF
:10097000103F1EBF4FF20001C0F2FF0111EA00015B
:1009800000D17047C0F30351000B4A1EC1B23F298A
:10099000D0B207D19821C4F202010A68104308605E
:1009A000704700BF40F26022C4F2000242F821000A
:1009B0007047000040F22820C4F20000402101608E
:1009C00020210160D0F8F01741F02001C0F8F017A5
:1009D00043F22001C4F20101086840F40002012042
:1009E0000A60704781B0C822C4F202024FF48070DE
:1009F00010604FF4801010604020106080204FF491
:100A00008053106013604FF48023136048F2A0629B
:100A1000C0F20102009200BF009A531E00930AB177
:100A200000BFF9E740F22822C4F200024FF0006351
:100A30001360106043F60002C1F69C42B2FBF1F273
:100A40006FF00E0348F2A40113FA82F24FF0004057
:100A5000C4F2030141F86C0C192A4FF000003FD892
:100A6000DFE802F0240E3E3E3E123E3E3E16223E9F
:100A70003E3E3E1A3E3E3E3E3E3E3E3E3E1E00BF97
:100A80004FF4800012E000BF4FF400000EE000BF02
:100A90004FF080700AE000BF4FF0C07006E000BF6A
:100AA0004FF0E07002E000BF4FF0A07051F8042C4E
:100AB00022F0E072104341F8040C4FF4001008607B
:100AC0004FF4803048604FF4805008604020086048
:100AD0004FF0804041F86C0C002041F8A00C012040
:100AE00001B0704740F28020C4F200004168032941
:100AF00084BF00207047DFE801F003171D2300BF0B
:100B0000016889B3016801293CD143F21000C4F2A5
:100B1000010040F2D4010069C2F200010968C0017D
:100B200001EAE070704700BF40F2E820C2F2000026
:100B30008068704740F2E820C2F20000C068704749
:100B40009820C4F20200016A490605D40168C90769
:100B500004BF4FF400407047016A09064FBF0020F0
:100B60000068C00380B2704743F21000C4F2010075
:100B7000006841F600314004C0F2B70101EAE070BC
:100B8000704700BF016802290AD1D0F8980744F2E3
:100B900040214006C0F20F0101EAE070704700BF3B
:100BA000006803281CBF0020704743F21000C4F205
:100BB000010000684DF600014000C0F2B85101EAA2
:100BC000E070704710B5044600F014F840F2203190
:100BD000C4F2000151F8242051F82410012353FAE3
:100BE00081F102F47F42B2FBF1F10131B0FBF1F08F
:100BF00010BD000040F2B021C4F2000151F82020E5
:100C0000072A61D80FF20A0000EB82030020DFE818
:100C100002F0050715233741471300BFFFF762BFF6
:100C200040F2E820C2F200008068D1F814110122DD
:100C300052FA81F1B0FBF1F0704700BF43F21000AF
:100C4000C4F20100006841F600314004C0F2B7016F
:100C500001EAE070704700BF43F21000C4F20100E7
:100C600000684DF600024000C0F2B852D1F8D8102A
:100C700002EAE070012252FA81F1B0FBF1F0704714
:100C8000D1F8680744F240214006C0F20F0101EAA2
:100C9000E070704740F2E820C2F200004068704700
:100CA0009820C4F20200016A490605D40168C90708
:100CB00004BF4FF400407047016A09064FBF00208F
:100CC0000068C00380B2704740F2112040F2D11199
:100CD000C0F20100C0F2010140F2493209F0F0FD1A
:100CE00000F0F803082B40F20033C4F2000305D1F2
:100CF000FF2261F30F2243F820207047002A1CBF17
:100D00004FF0005243F820204A1E002908BF4FF040
:100D1000804243F8202070474DF6C101C0F2A70180
:100D2000884201D2002157E04BF28111C0F24F11ED
:100D3000884201D201214FE048F64121C0F2F7116B
:100D4000884201D2022147E046F20131C0F29F21E0
:100D5000884201D203213FE043F6C131C0F247315E
:100D6000884201D2042137E041F28141C0F2EF31E3
:100D7000884201D205212FE04EF64151C0F2964142
:100D8000884201D2062127E04CF20161C0F23E51B7
:100D9000884201D207211FE04EF20111C0F2F55145
:100DA000884201D2082117E04CF2C121C0F2DA6179
:100DB000884201D209210FE04AF28141C0F2BF719D
:100DC000884201D20A2107E04DF28112C0F6F002FA
:100DD0000C21904238BF0B2144F6E872C4F20302A2
:100DE0001F2344F6E07013604FF2A002C4F2030028
:100DF000CFF6FF72835823F00F030B4483504FF25A
:100E00002002CFF6FF72022383500268520709D4F2
:100E1000026852075CBF02685FEA427202D402684D
:100E20005207F2D540F20040C4F20000026822F4FA
:100E3000704242EA0131016070470000B0B540F2F3
:100E4000980CC4F2020C4FF4007E4FF40003CCF86F
:100E500028E0CCF82830D0E90012044640F2845053
:100E6000C4F20000A56840F8041C42F4807142609E
:100E7000416045F02001856081602169C160616940
:100E80000161616941F0806141F002010161CCF8CA
:100E900030E0CCF83030217F890740F18D80016946
:100EA0004FF60042C0F2FF32114223D04FF60C51F0
:100EB000CFF6FF71415801F00703032B54D841F6D8
:100EC0000032C0F2B702DFE803F045031F2D00BF78
:100ED00043F22001C4F2010140F2D4020968C2F2D7
:100EE00000021268C90102EAE17250F8041C090309
:100EF00034D53EE04DF28011C0F6F00141F2707041
:100F000004F058FB58E000BFD0F8941444F240229B
:100F10004906C0F20F0202EAE17250F8041C09030C
:100F20001CD526E0DCF8201049060BD4DCF80010B4
:100F3000C90707D14FF4004250F8041C09030DD52E
:100F400017E000BFDCF8201009060DD4DCF8001013
:100F5000C9038AB250F8041C09030AD44168C9B213
:100F6000002908BF012105E0002250F8041C0903F4
:100F7000F4D50121B2FBF1F14AF26062A1F5C03172
:100F8000A1F5D461C0F22F1291420DD80168C907B2
:100F900012D10168C90704BF01685FEAC1710BD1B2
:100FA0000168C907F2D007E04DF28011C0F6F001E8
:100FB00041F2707004F0FEFAA16940F2E822C2F238
:100FC000000200209160B0BD44F60001C0F2E811BB
:100FD000884284BF01207047C821C4F202014FF447
:100FE00080720A604FF480120A6040F61821C4F241
:100FF00000010A6842F020020A6040F2D401C2F205
:10100000000108600020704741F60031C0F2B701CE
:101010004DF6000C8842C0F2B85C18BF604507D09E
:1010200046F60042C0F2DC2290421CBF012070470D
:1010300040F24812C4F200024FF000631360C2F89D
:10104000E030C822C4F202022023136043F21002EF
:10105000C4F2010213684FF48041604508BF4FF0AD
:10106000804143EA0100106000207047F0B581B074
:1010700002787F2A18D17F220A7047784F70CFB14B
:101080008D1C861C4FF0021430462946013F00F0AB
:1010900017F806EB104615FA80F5002F0444F3D13B
:1010A000204601B0F0BD00BF01B0BDE8F04000F047
:1010B00007B800BF4FF00214204601B0F0BD000099
:1010C0002DE9F04F89B0814690F900000D46B0F14E
:1010D000FF3FC0B208DC9F2806D84846294609B021
:1010E000BDE8F04F01F050BEAA460AF8010B4E468B
:1010F00016F8010B232800F2AD82DFE810F025007E
:1011000045005B006F009900A9005702AB02B302D3
:10111000D102E502AB02AB02AB02AB02AB02EF02C3
:101120002D0341035D036B03A303BB03DF03E9034B
:10113000F303FD03070411041B046D047704810409
:101140008B0495049F0400BF3078AC1CA0F1F00222
:101150000F2A4FF0000101F21780DFE812F04F096B
:101160005309720B720B720B720B720B720B720BB8
:10117000720B720B1100110059095F09630900BF5E
:101180004FF4806001F046B93078012800F08F827A
:10119000002840F0778499F802002021C0074EF221
:1011A0000010C4F208000CBFC0F80011C0F8801194
:1011B0007DE200BF3078002808BF0120022800F03F
:1011C0006384012840F08E8440F26021C2F2000165
:1011D00001200871022100F067BC00BF40F26020CE
:1011E000C2F20000002101714EF20010C4F20800AA
:1011F00001264FF08052C0F80063C0F8802104221D
:10120000C0F800234FF40052C0F880214FF40022B0
:10121000C0F800230222C0F800230822C0F80023EF
:101220008AF8001006F1011009B0BDE8F08F00BF88
:1012300099F8010040F26021C2F200010874B9F887
:1012400002008882B9F80400C882002001F05FB86B
:1012500040F2602BC2F2000B9BF80400022800F061
:101260004B84012840F038864FF000088BF800804E
:1012700099F80230E81C0790002B09F103074FF0A2
:10128000000001F0448504904FF0000E0020002182
:101290009846B9460691059319F8014BA10713D456
:1012A000BEF1000F52D00397BBF814700E2008A9AE
:1012B00004F010FAC7B3022836D19BF80000013FB2
:1012C0000028F3D001F0BAB8BEF1000F2AD003977E
:1012D000BBF8147004F011000128029010D10137FE
:1012E000204608A904F0F6F902285FD1013F01F079
:1012F000A5809BF800000028F2D001F09FB800BF45
:101300000E2008A904F0E6F9002F4FF0000E4FD090
:1013100002284DD19BF80000013F0028F0D001F0D9
:1013200073B900BF002368E0012841F00585DDE9BD
:10133000071008700898000A4870BDF822008870ED
:101340009DF82300C870081D0790039FD7F801007F
:10135000A10607F10509089010D4BBF814702046C7
:1013600008A904F0B7F97FB102280DD19BF800005D
:10137000013F0028F3D001F047B900BFCBF81800B7
:101380004FF0000E0120EAE0012841F0D984200648
:1013900005D5DBF80C00079941F8040B07914FF0D5
:1013A000000E012001210491D9E000BF4FF0010E91
:1013B000012841F02C81DDE90710029B039F0A1DE3
:1013C00008700898012B4FEA10204870BDF82200E1
:1013D00088709DF82300C8700CD1200604D5DBF876
:1013E0000C0001F10802486000210120012307924E
:1013F00004E000BF0023012007920121E2060393CD
:1014000014D45F46BBF814B0E2072BD1204608A9DC
:1014100004F060F9BBF1000F38D0022836D13878DB
:10142000ABF1010B0028F1D001F084BAD7F801002C
:1014300007F105090290BBF816000190E0074ED0B5
:10144000BBF814702046002104F044F9002F41D06D
:1014500002283FD19BF80000013F0028F2D001F0A4
:101460000FBB00BF002975D02046002104F032F9DF
:10147000BBF1000F00F08480022840F081803878B2
:10148000ABF1010B0028EFD001F054BA012841F074
:10149000528207992006BB46DDF80CE044BFDBF81A
:1014A0000C0041F8040B0898059B01F8040B089800
:1014B0000A46000A01F8030CBDF82200079101F862
:1014C000020C9DF8230001F8010C0020049001207B
:1014D00046E000BFDDF80CE0012841F09880BBF841
:1014E0001470204608A904F0F5F83FB1022805D190
:1014F0009BF80000013F0028F3D017E0012816D127
:10150000019BDDF80CE04FF0010093B10899DBF886
:1015100018201140029A91420BD09BF80000013B29
:1015200000280193DBD0012001E000BF0220DDF89C
:101530000CE00899DBF818201140029A914218BF7C
:1015400040F01000012841F062800020049001204A
:1015500005E000BF002104914FF0010EBB46059B42
:101560009BF800100029069901F10101069141F054
:101570004E80B8F101084F467FF48EAE01F0C2BB39
:10158000012841F0D881200604D4002004900120D5
:10159000E2E700BFF8680799BB4641F8040B00205A
:1015A0000791049001204FF0010ED8E740F2602728
:1015B000C2F200073879022800F0AE84012840F01A
:1015C000078500223A70B9F8021005F1040B0029D2
:1015D00000F0D68599F80440A00700F1FB860020B2
:1015E0000DF12008CDF814B00790049156F8040FBF
:1015F000BB46BF8A0139069108902046414604F057
:1016000069F84FB1022807D19BF80000013F00287C
:10161000F3D000F00DBF00BF0699012840F0098704
:101620000798002900F101005F460790DED1B88AD3
:10163000441C0E20002104F04DF8022841F085835F
:10164000013C01F08183387800284FF00200F0D08F
:1016500001F07BBBFF2028704FF0011009B0BDE8FE
:10166000F08F00BF40F26020C2F200000179022931
:1016700000F0B684012940F0C384D9F802000126A5
:10168000089008A90020C0F20506002404F022F802
:101690008AF8004006F1011009B0BDE8F08F00BFE4
:1016A000B9F80100322100FB01F0401EFDD10020FD
:1016B0008AF800000120C0F20500A0F5403606F1CE
:1016C000011009B0BDE8F08F0020A5F80100022646
:1016D00006F1011009B0BDE8F08F00BF99F80230A3
:1016E00099F80160D9F803104EF2001B13F00100C5
:1016F000C4F2080B07D0F2074FF001020CBFCBF881
:101700008021CBF8002113F0020907D0B7074FF072
:10171000040754BFCBF88071CBF8007113F00405B7
:101720004CF2010CC4F2080C1CBFB7088CF8007016
:1017300013F08002079200F04785370600F13A85E2
:101740004FF40027CBF88071CBF880724FF400572C
:10175000CBF8007100F038BDD9F80100002800F086
:10176000798143F26041C0F23C218842C0F04A8452
:1017700040F26021C2F200010120487100F059BC22
:1017800099F8014009F10201002C08BF4FF4807460
:10179000204605F03DF94FF4604101EB4431002053
:1017A0008AF800003FFA81F000F1011606F10110FD
:1017B00009B0BDE8F08F00BF307840F2602200F041
:1017C0000301C0F380000131C2F2000211775077AB
:1017D000002088E100208AF8000096F800A0BAF105
:1017E000000F00F0398109F1020402354FF00108C1
:1017F0004FF0010914F8016B2A4616F03F0000F182
:1018000007004FEAD007304608BF08272146AAF153
:10181000010A02F0AFFE09EB070016F080011CBFC1
:101820003D44B8443C44BAF1000F00F10109E1D154
:101830004FEA094048EA000606F1011009B0BDE888
:10184000F08F00BF96F8008040F2602BC2F2000BD0
:10185000B8F1000F8BF81E8000F08684A8F1010C0F
:10186000BCF1030F08F0030E80F0F6830024002380
:1018700000F016BC40F26020C2F20000017902299B
:1018800040F0E6803178827FC177914280F0E0803D
:101890000E2002F039FC02F0EDFD00216970010A12
:1018A000A870E970010C000E052629716871C0F25C
:1018B000010606F1011009B0BDE8F08F304651462F
:1018C00005F0B4FC064606F1011009B0BDE8F08F42
:1018D0003046514605F052FB064606F1011009B0AC
:1018E000BDE8F08F3046514605F0C4F8064606F1D3
:1018F000011009B0BDE8F08F3046514605F02CF9D3
:10190000064606F1011009B0BDE8F08F504605F01B
:1019100097FB064606F1011009B0BDE8F08F00BF45
:101920003046514605F09AF9064606F1011009B015
:10193000BDE8F08F00208AF800003678002E00F015
:1019400097804EF2001B09F1020402354FF00108A6
:10195000C4F2080B012705E007EB09004C44471CC3
:10196000013E31D014F8010B10F03F0101F10701E5
:101970004FEAD10908BF4FF0080910F0800A07D1DB
:101980000421CBF880124FF08051CBF8001106E013
:101990004FF08051CBF880110421CBF80013214681
:1019A0002A4603F031FE012E06D10420CBF8800236
:1019B0004FF08050CBF80001BAF1000FCCD00137C6
:1019C0004D44C844013ECDD148EA074606F1011016
:1019D00009B0BDE8F08F00BF3046514605F01CFA53
:1019E000064606F1011009B0BDE8F08F30465146B9
:1019F00006F0EAFB064606F1011009B0BDE8F08FDB
:101A00003046514606F06EF9064606F1011009B05F
:101A1000BDE8F08F3046514606F0E0FA064606F182
:101A2000011009B0BDE8F08F3046514606F0A8F924
:101A3000064606F1011009B0BDE8F08F504606F0E9
:101A40006DFA064606F1011009B0BDE8F08F00BF3F
:101A5000FF2048E0FF20F2E24FF001084FF4803011
:101A600048EA000606F1011009B0BDE8F08F00BF9A
:101A700001274FF0010848EA074606F1011009B0B6
:101A8000BDE8F08FFF2013E640F26021C2F20001B2
:101A9000022008714EF20011C4F208010122C1F8BF
:101AA0000021C1F8802208214EF20012C4F208027F
:101AB0000423C2F80001C2F88002C2F80031C2F863
:101AC00080324FF08053C2F800314FF40023C2F847
:101AD0000031C2F880324FF40053C2F80031C2F82E
:101AE000001300E000208AF800004FF0011606F114
:101AF000011009B0BDE8F08F00248BF8004099F880
:101B000001009BF81E1005F1030E88428BF81F00A0
:101B100080F0F68399F8021009F10307002900F01C
:101B20006B850020079005224FF0000C00208946AD
:101B300005900291BB461BF8014B2346A00762F3B8
:101B40005F0323D4BCF1000F6BD00397CDF818E0EE
:101B5000079898460A281CBF0A2002F0D5FA40F2DE
:101B60006020C2F20000878A0E2008A902F07AFDE8
:101B7000E7B302283AD140F26020C2F200000078B8
:101B8000013F0028F0D000F065BE00BFBCF1000F9F
:101B9000049327D040F260200799C2F20000B0F809
:101BA000148081EA030004F01002104300920190B7
:101BB000CDF818E060D1039708F10107204608A985
:101BC00002F050FD022840F08380013F00F044867F
:101BD00040F26020C2F2000000780028EED000F051
:101BE0003BBE00BF04F010009EE000BF012841F0A2
:101BF000AF8043460898DDF818800A2188F8000075
:101C000008980791000A88F80100BDF82200039F98
:101C100088F802009DF8230088F8030008F104000A
:101C20008646D7F8010040F26028A10607F10507B3
:101C3000C2F20008089019D4CDF818E00493079870
:101C4000BB46984202D0049802F05EFAB8F81470CD
:101C5000204608A902F006FD57B3022828D198F8BB
:101C60000000013F0028F3D000F004BFC8F81800BE
:101C70004FF0000C1AE100BF0A291CBF0A2002F035
:101C800043FA0E2008A902F0EDFC0A22B8F1000F79
:101C90004FF0000C20D002281ED140F26020C2F28A
:101CA00000000078A8F101080028EAD000F0F4BE96
:101CB000012841F05980DDF818E02006049944BF5E
:101CC000D8F80C004EF8040B5F464FF0000CECE027
:101CD000039F079A4FF0010C0128079240F0E78616
:101CE0000898DDF818C001998CF800000898B1FA3E
:101CF00081F1000A8CF80100BDF8220049098CF836
:101D000002009DF82310049B0CF104008CF80310D2
:101D100008D0210600F1AE804FF0010C86465F46E8
:101D2000A2E000BF86460098CDF818E040B3D7F88F
:101D30000100B846039040F26020C2F20000B0F803
:101D400016B00798984202D0049802F0DDF940F2EC
:101D50006020C2F20000878A08F1050820460021B1
:101D600002F080FC57B3022828D140F26020C2F272
:101D700000000078013F0028F0D000F085BE00BFD1
:101D80000798984698421CBF404602F0BDF940F2C1
:101D90006020C2F20000878A2046002102F062FC27
:101DA000002F55D0022853D140F26020C2F200002B
:101DB0000078013F0028EFD000F074BE012840F009
:101DC000D78740F26023C2F200039F8A204608A909
:101DD00002F048FC57B1022808D140F26020C2F25C
:101DE00000000078013F0028F0D019E0012818D148
:101DF000BBF1000F4FF00100474667D040F260236F
:101E0000C2F2000308999A691140039A91420DD0D9
:101E10001878ABF1010B0028D7D0012005E000BFF6
:101E2000022040F26023C2F20003474608999A69F3
:101E30004FF0000C1140039A914218BF40F010007F
:101E4000DDF818E00499012840F0968798462CE0C8
:101E5000012840F09587DDF818E02006414619D4A6
:101E60004FF0010C5F46079140F26028C2F2000873
:101E70001CE000BF40F26028C2F20008D8F80C0055
:101E80005F46CCF804000CF108004FF0010C8646C8
:101E90000CE000BF40F26028C2F20008D8F80C0045
:101EA0004FF0010C4EF8040B5F460791059998F826
:101EB000000001310028059140F03887B9F101098F
:101EC0004FF005027FF436AE00F034BF40F26023DD
:101ED000C2F20003AAE700BF99F8020009F103016A
:101EE000002800F0A18410F00303A0F1010C00F021
:101EF0005B8499F8037009F10804F906214658BF7C
:101F000009F10401BF0758BF2146012B40F064834B
:101F1000604600F049BC00BF00223A703078B97FBB
:101F200005F1040B8842F87780F02A81B9F80200A5
:101F30000028069000F0648399F8048008F00100FE
:101F400004900A3002F0E0F85FEA887000F17883CC
:101F50000020CDF80CB00790069908AC56F8040F95
:101F6000BB46BF8A0139059108904046214602F0E0
:101F700079FB3FB1022805D19BF80000013F002802
:101F8000F3D06FE30599012840F06D83079800298D
:101F900000F101005F460790E0D1049800281CBFC3
:101FA0000A2002F0B1F8BBF81400441C0E200021F6
:101FB00002F058FB022840F0D286013C00F0CE86A9
:101FC0009BF8000000284FF00200EFD000F0C7BEE1
:101FD0000020A5F80100E870032000F076BE00BFE5
:101FE0003178827FC177914280F09081082002F0A1
:101FF0008BF8D9F8020003F04BF8FFF726B900BFC1
:10200000FF2084E146F6BF01C0F278410144B1FBF4
:10201000F0F140F26020C2F20000002242714AF664
:10202000AB20CAF6AA20A1FB00020120022988BF2A
:10203000500840F26021C2F20001886000208AF856
:1020400000000120C0F20500A0F5803606F1011065
:1020500009B0BDE8F08F00BF08F0FC0700240023A2
:1020600009EB0406B5780BEB44000BEB040181F897
:1020700020500385F2782B4481F82120438535795F
:102080001A4481F82250828573792A44043481F8F5
:102090002330A7421344C285E2D109EB0400461C59
:1020A000BEF1000F1ED00BF11E07707807EB440243
:1020B000391988705381BEF1010F034412D0601C9E
:1020C000B1783A1807EB400091704381BEF1020FDE
:1020D0000B4407D0A01CF1783A1807EB4000917030
:1020E00043810B44BCF1030F02D200271CE000BF68
:1020F00008F0FC0600270BEB070090F820100BEB14
:102100004702591A118790F821300437C91A5187AC
:1021100090F82230BE42A1EB0301918790F8230092
:10212000A1EB0003D387E6D1BEF1000F1CD00BF169
:102130001E02D0198078BEF1010FA3EB000302EB61
:102140004700438310D0781C1118897802EB4000B7
:102150005B1ABEF1020F438306D0B81C11188978B0
:1021600002EB4000591A418300204FF0011101EBAE
:1021700008468AF8000006F1011009B0BDE8F08FAA
:10218000002000F09CBD00BF042800F05B81032804
:1021900040F0578301F0E8FE002800F05183054627
:1021A00020462946FEF718FA2846FEF70EFA411C8B
:1021B00047E300BF4FF4002E4FF40057CBF800E187
:1021C000CBF88071CBF800E3002900F0BD8203F06A
:1021D0002003B3FA83F34FEA531C4CF2C063C0F2FE
:1021E0002D0341F2040206F0E00E994238BF0B467F
:1021F0009621CEF20002BEFA8EF403FB01F31768BB
:102200006409F20971084FEA9608002844EA0C04B0
:1022100046D1B9F1000F40F08580002D4CF2010C41
:1022200041F20405C4F2080CCEF2000540F014811E
:10223000002C00F02F820798002800F08582DBF840
:102240000010C1F3C0418A4200F07E822968C91B98
:10225000994280F07982DBF80010C1F3C0418A42D4
:1022600000F072822968C91B994280F06D82DBF808
:102270000010C1F3C0418A4200F066822968C91B80
:10228000994280F06182DBF80010C1F3C0418A42BC
:1022900000F05A822968C91B9942D0D354E200BF8A
:1022A0004CF2010CC4F2080CB9F1000F62D141F2FA
:1022B0000400CEF2000004E00168C91B994280F0DE
:1022C0004382DBF8001001F00101B142F4D11DB9E5
:1022D000002CF1D009E000BF9CF80010A8EB010130
:1022E000B1FA81F149090C42E6D00799002900F0C2
:1022F0002B82DBF80010C1F3C0418A42DCD123E21B
:1023000009F10207002000F08EBC00BFFF2001266B
:10231000C0F205068AF8000006F1011009B0BDE818
:10232000F08F00BF002D4CF2010C41F20405C4F205
:10233000080C9646CEF2000540F0FC80079884F029
:10234000010204E02E68F61B9E4280F0FD81DBF85E
:102350000060C6F380068E1B18BF01261643F1D11C
:10236000002800F0F181DBF80060C6F3C046B645F6
:10237000E8D1E9E141F204009646CEF2000004E023
:102380000268D21B9A4280F0DF81DBF8002002F065
:102390000102B242F4D1DBF80020C2F38002914284
:1023A000EED11DB9002CEBD009E000BF9CF8002055
:1023B000A8EB0202B2FA82F252091442E0D0079A64
:1023C000002A00F0C181DBF80020C2F3C04296452C
:1023D000D6D1B9E1E00700F04682BE8A88462046A1
:1023E000002103F077F9002E00F03A82022840F035
:1023F00037823878013E0028F1D030E140F2F71002
:1024000012E000BF4DF28010C0F6F00002E000BF05
:102410004FF40050C5F80200042112E20820012107
:1024200020700EE24FF400706880022109E200BFC4
:102430000220DDF814B0079A00F041BC4FF0010E05
:10244000E4E000BF3020A08042F63260C2F6316086
:1024500020600621F5E100BF002C00F041810798C3
:1024600068BB9CF80010884500F06E812968C91B84
:10247000994280F069819CF80010884500F06481E1
:102480002968C91B994280F05F819CF8001088453B
:1024900000F05A812968C91B994280F055819CF847
:1024A0000010884500F050812968C91B9942D8D393
:1024B0004AE100BF2968C91B994280F045819CF818
:1024C0000010884506D1DBF80010C1F3C0418A42F4
:1024D00000F03A812968C91B994280F035819CF847
:1024E0000010884506D1DBF80010C1F3C0418A42D4
:1024F00000F02A812968C91B994280F025819CF847
:102500000010884506D1DBF80010C1F3C0418A42B3
:1025100000F01A812968C91B994280F015819CF846
:1025200000108845C6D1DBF80010C1F3C0418A42D3
:10253000C0D109E1E4B1079805E000BF2A68D21BC9
:102540009A4280F00181DBF80020C2F380029142C0
:10255000F4D19CF800209045F0D1002800F0F480E0
:10256000DBF80020C2F3C0429645E7D1ECE000BFA3
:10257000DBF80020C2F38002914208BF9CF80020E3
:102580002A68D21B9A4280F0DF80DBF80020C2F379
:102590008002914208BF9CF800202A68D21B9A4210
:1025A00080F0D280DBF80020C2F38002914208BFA5
:1025B0009CF800202A68D21B9A4280F0C580DBF884
:1025C0000020C2F38002914208BF9CF800202A68D4
:1025D000D21B9A42CCD3B7E00F4617F8014B4A1DE5
:1025E000E10648BF1746A107394658BF1146022BDE
:1025F00040F0CE800238D7E00024002013E300BF73
:10260000002200205BE300BF4FF0000E0220B8F173
:10261000000F00F0E98118F00302A8F1010C00F0AE
:102620009D8109F1050319F8017BF90648BF994618
:10263000B90758BF9946012A1AD1E0468EE100BF7A
:10264000BC8A4046002102F00DF8002C00F03E81CB
:10265000022840F03B813878013C0028F1D002206C
:1026600000222CE30220DDF80CB0079A27E300BF1C
:10267000494611F8013B09F10507DC0648BF394618
:102680009B07894658BFB946022A40F05981A8F1F4
:10269000020863E1079888B92968C91B994253D297
:1026A0002968C91B99424FD22968C91B99424BD24C
:1026B0002968C91B9942EFD346E000BF2968C91BAE
:1026C000994241D22968C91B99423DD22968C91B48
:1026D000994239D22968C91B9942EFD334E000BF2F
:1026E0000798C8B99CF800102968C91B99422BD2D9
:1026F0009CF800102968C91B994225D29CF800104B
:102700002968C91B99421FD29CF800102968C91B6F
:102710009942E7D318E000BF9CF800102968C91B54
:10272000994211D29CF800102968C91B99420BD21A
:102730009CF800102968C91B994205D29CF800102A
:102740002968C91B9942E7D3DBF80010DBF80020A9
:10275000022303EA520201F001019CF80030114407
:1027600041EA83019CF80220DBF8000041EAC20143
:10277000802202EA103008438AF800000120C0F2EB
:10278000050000F5803606F1011009B0BDE8F08FB4
:102790000A4612F8013B0531DF0648BF0A469B078F
:1027A00058BF0A4603381146BCF1030F3CD30A78E0
:1027B0004C1D02F0020312F010024FF005022746F2
:1027C00004BF01224F1C002B08BF0522895C08BFF3
:1027D00027467C1D01F0020211F010014FF00501A7
:1027E000234604BF01217B1C002A08BF0521795C18
:1027F00008BF23465C1D01F0020211F010014FF0EA
:102800000501274604BF01215F1C002A04BF0521E2
:1028100027465A5C7B1DD106194658BF791C920782
:1028200058BF19460438C2D10020A5F80100881B02
:102830000004861C06F1011009B0BDE8F08F00BF4E
:1028400000214FF0021050FA81F08AF8001009B010
:10285000BDE8F08F0A2007904FF0010C022026E11E
:102860000128414664D1002008AE07900491E0079A
:10287000204618BF0E20B7F81480013906910029B0
:1028800008BF04462046314602F024FFB8F1000F8D
:1028900008D0022806D13878A8F101080028F1D024
:1028A00010E000BF012840F0098208984BF8040BA3
:1028B000079801300790069901200029D7D1049A82
:1028C000FDE100BF079A0220F9E100BF01282FD1E6
:1028D000049800280698A0F101014FF0000040F094
:1028E000C3810790BC8A46460591002908BF0E2681
:1028F000304608A901F0B6FE44B1022806D1387866
:10290000013C00284FF00200F2D0D7E1012840F04E
:10291000D58108984BF8040B07980130079005986B
:102920000028A0F101014FF00100DBD1C3E100BF9D
:102930000022C4E10220DDF80CE0BB4667E600BFE0
:10294000494611F8012B09F10503D70648BF19467E
:10295000920758BF1946A8F103088946BCF1030F36
:1029600042D399F8001009F1050701F0020211F0B5
:1029700010014FF005013B4604BF012109F101039D
:10298000002A08BF052119F8011008BF3B465C1D4D
:1029900001F0020211F010014FF00501274604BFBB
:1029A00001215F1C002A08BF0521595C08BF27468A
:1029B0007C1D01F0020211F010014FF005012346C9
:1029C00004BF01217B1C002A04BF052123465A1D98
:1029D000795C9146CF0658BF03F10109890758BFBA
:1029E0009146B8F10408BCD1DDF818804F460128A3
:1029F00040F08D81BEF1000F12D0B946BBF81470C3
:102A000008AC0E20214602F065FEFFB102281DD160
:102A10009BF80000013F0028F3D002204F4676E1EA
:102A2000049858B3BBF81400441C0E20002102F097
:102A300051FE022840F06B81013C00F013819BF8AD
:102A4000000000284FF00200EFD060E101284F465F
:102A500040F05D81DDE9071008700898000A4870B1
:102A6000BDF8220088709DF82300C8700431012051
:102A700007914CE14FF0000C022009E0012046E1F3
:102A8000DDF80CE0C2E500BF4FF0000C0220C346A9
:102A9000049907910BE000BF0A2007904FF0000C4B
:102AA000022004E04FF0000C0220CDF81C80DDF87D
:102AB00018E0B9F1000F7AD0E04619F00302A9F14D
:102AC000010C2DD00BF105031BF8017BF90648BF63
:102AD0009B46B90758BF9B46012A01D1E1461FE03A
:102AE000594611F8013B0BF10507DC0648BF394692
:102AF0009B078B4658BFBB46022A03D1A9F10209A6
:102B00000EE000BF594611F8012B0BF10503D70663
:102B100048BF1946920758BF1946A9F103098B46C9
:102B2000BCF1030FC44642D39BF800100BF105071C
:102B300001F0020211F010014FF005013B4604BF05
:102B400001210BF10103002A08BF05211BF8011028
:102B500008BF3B465C1D01F0020211F010014FF06E
:102B60000501274604BF01215F1C002A08BF05217B
:102B7000595C08BF27467C1D01F0020211F01001CC
:102B80004FF00501234604BF01217B1C002A04BF2E
:102B9000052123465A1D795C9346CF0658BF03F1A1
:102BA000010B890758BF9346B9F10409BCD1059CB4
:102BB00001285F4637D1CDF818E00798B9460A28B2
:102BC00004D00A20674601F09FFABC4640F2602814
:102BD000C2F20008B8F81470A346BCF1000F0FD081
:102BE00008AC0E20214601F03DFD0FB302281FD195
:102BF00098F80000013F0028F3D002200FE000BF4A
:102C00007C1C0E20002101F02DFD022807D1013C83
:102C1000F3D098F8000000284FF00200F1D0DDF862
:102C200018E05C464F46B91BAEEB0A026C7074E0CC
:102C300001285C464F4611D10898DDF81890A9F894
:102C40000000BDF8220009F1040189F802009DF896
:102C500023008E4689F803000120E4E7DDF818E040
:102C6000E1E700BF022052E008AC0790059121B9CE
:102C70000A2001F049FA4FF00E08BE8A404621466C
:102C800001F0F0FC46B1022806D13878013E002858
:102C90004FF00200F2D011E001280FD108984BF854
:102CA000040B07980130079005980028A0F1010156
:102CB0004FF00100DAD1069A01E000BF079A110A2D
:102CC0006A70A970E870ABEB0A0099F804108907E4
:102CD00010D499F8031099F80220890641EA82413C
:102CE00001F5802141EA000606F1011009B0BDE8B6
:102CF000F08F00BF40F4802606F1011009B0BDE856
:102D0000F08F00BF98464F4601283FF473AE079AF4
:102D100085F80180B91BA2EB0A0242EA0146A870BD
:102D200006F1011009B0BDE8F08F00BF0120BB46DD
:102D3000BFE600BF029C3EE74FF0010EFFF767BC05
:102D40004FF0000EFFF763BC0220DDE9042BB6E76D
:102D50000A2107914FF0010CA9E600BF0220069A54
:102D6000DDF80CB0ABE700BF4FF0000C90E600BF01
:102D70004FF0000C8BE600BFBB46079199E600BF01
:102D80004FF0000C91E60000FF224FF001100A7096
:102D90007047000040F26020C2F20000492200218A
:102DA00082606422C0E9052101228180017482834E
:102DB0008177FDF713BD000040F2082542F264461A
:102DC00043F264484FF00009C2F20005C2F2000667
:102DD0007F27C2F2000800BF812000214FF0FF32A0
:102DE00008F0FAFCE88829898842F5D0AC886002AE
:102DF000305C7E281AD106EB442005E06002315C8D
:102E000006EB44207E2911D10770601C6988B0F15F
:102E1000080418BF04468C42F0D1812000214FF0F5
:102E2000FF3208F0D9FC0006E8D500BFA888698900
:102E300006EB402008EB4121FEF718F9698905EB04
:102E400041014882A8880130A880A888082808BFC6
:102E5000A5F80490288901302881287880B1E88875
:102E60002989401A80B208280AD085F8009068881D
:102E7000012106EB402200204FF400730BF094FE7A
:102E80006889013068816889082808BFA5F80A9018
:102E9000E8890130E88168780028A3D0E889298A88
:102EA00088429FD0A889411CA981A98908EB4022AA
:102EB000082908BFA5F80C90298A0131298205EB61
:102EC000400185F801904B8A002081210BF08EFE95
:102ED00088E7000042F20000C4F2080000F0FEB9EA
:102EE00047F20000C4F20A0000F0F8B910B588B348
:102EF00090F80CE0BEF1170F38D280680123816A88
:102F000003FA0EFC41EA0C010EF01F04816200F18D
:102F100038024FEA5E11A34052F821401C420BD008
:102F200052F821401C4207D052F821401C4203D0E5
:102F300052F821401C42EFD1CEF3421100F12002A1
:102F400002EB81018A6D1A438A65016A41EA0C012C
:102F5000016210BD40F25A5040F21C51C0F2010013
:102F6000C0F2010140F2CF1207F0AAFC40F2F900D2
:102F7000C0F2010002A14FF4D67207F0A1FC00BF1D
:102F8000433A2F4B65696C5F76352F41524D2F5078
:102F900041434B2F4E58502F4C5043353553363903
:102FA0005F4446502F31332E312E302F64726976B4
:102FB0006572732F66736C5F646D612E680000002C
:102FC0002DE9F047DDF820C05FEA0C7740F0B880CB
:102FD000002A00F091808C79B2FBF4F707FB1427EC
:102FE000002F40F08980002B00F09280B3FBF4F7B3
:102FF00007FB1437002F40F08B80CD79042D00F2B1
:1030000093800F7A052F80F08F80052C80F0A480AC
:10301000B1F80AE0BEF5806F00F2A6804FF440766A
:1030200006EB0426042C06F440764FF4405408BF07
:103030004FF4007604EA0538042D08BF4FF44058D9
:10304000BD03042F4FF00107ADB207EB162708BFF1
:103050004FF44045B6F5007F08BF0427B2FBF7F4F4
:1030600004FB172424B9B3FBF7F404FB17342CB189
:1030700000210160C0E90111BDE8F08791F80090DE
:103080004C7891F802A049EA440491F8039044EA8C
:103090008A0491F804A044EAC904497944EA0A146C
:1030A00040F20009C0F2FF3944EA411109EB0E4435
:1030B00046445FFA81FE04EA09012E44C4F3094440
:1030C00031448E444FEA1836A90BB8F5405F08BF6B
:1030D000042604FB07F4B5F5404F08BF042114FB98
:1030E000062214FB0131C0F800E0C0E90121C0F85C
:1030F0000CC0BDE8F08700BF40F2703040F21C51B8
:10310000C0F20100C0F2010140F2BB1207F0D8FB8F
:1031100040F2C33040F21C51C0F20100C0F2010184
:103120004FF4DE7207F0CCFB40F2164040F21C5127
:10313000C0F20100C0F20101DD2207F0C1FB00BFB7
:1031400040F2B34040F21C51C0F20100C0F2010154
:103150004FF4DD7207F0B4FB40F21C5106A0C0F240
:103160000101DF2207F0ACFB40F21C5110A0C0F2BD
:103170000101E12207F0A4FB786665726366672DA2
:103180003E627974655769647468203C3D202875F7
:10319000696E74385F74296B444D415F5472616E7F
:1031A00073666572333242697457696474680000EB
:1031B000786665726366672D3E7472616E736665CC
:1031C00072436F756E74203C3D20444D415F4D410C
:1031D000585F5452414E534645525F434F554E54EB
:1031E0000000000010B5C8B3172A37D247F2000319
:1031F000C4F20A0399424FF0010C09D042F20003D5
:10320000C4F20803994235D14FF0000E002302E0CA
:1032100017234FF0010E0024C0E9021499181BA3D4
:10322000C0E9004447F6000413F90E30C2F200046E
:1032300044F8210003F01F014EF2001402730CFA4F
:1032400001F15B09CEF2000444F823100CFA02F2FB
:103250008068816C1143816410BD00BF40F25C2026
:1032600040F21C51C0F20100C0F2010140F2E7122D
:1032700007F026FB40F2914040F21C51C0F20100E1
:10328000C0F20101612207F01BFB00BF013A000000
:10329000172917D2026BCA40D2070BD100EB0112DB
:1032A0000023D2F80824C0F2FF331A409A4204BF28
:1032B0000020704700EB0110D0F80804C0F309406B
:1032C0000130704740F2F90040F21C51C0F2010099
:1032D000C0F20101C12207F0F3FA00002DE9F0432A
:1032E00081B042F20001C4F20801884208D047F2DE
:1032F0000001C4F20A01884254D1172001E000BF46
:10330000002047F60001C2F2000101EB800900260F
:103310004FF0010806E000BF0136172E04BF01B0D0
:10332000BDE8F08359F82640002CF5D0207BA16839
:1033300000F01F0301F15802400952F8205008FA2A
:1033400003F72F420BD042F8207025683DB1616829
:10335000204601220023A847207BA168400901F1F3
:10336000600252F820303B420BD042F820702568B2
:103370003DB16168204601220123A847207BA16856
:103380004009403151F820203A42C5D041F8207020
:103390002768002FC0D06168204600220223B8476A
:1033A000BAE700BF40F2914040F21C51C0F2010068
:1033B000C0F20101612207F083FA0000B0B50446B3
:1033C00047F20000C4F20A0084420FD042F200002B
:1033D000C4F20800844221D140F22020C4F200004F
:1033E0004FF480110160002507E000BF40F220206B
:1033F000C4F200000221012581600EA050F82500D2
:1034000002F090F840F25C00C0F2010050F8250094
:10341000A060206840F001002060B0BD40F2914003
:1034200040F21C51C0F20100C0F20101612207F01C
:1034300047FA00BF14000000010002002DE9F0412E
:10344000002855D0002953D0002A51D05F1E022FEA
:1034500001D3042B62D1DDF820C05FEA0C7751D193
:10346000069CB4FBF3FEBEF5806F35D80EFB13440B
:1034700094BB079E0025022E4FF00108C0E90055BD
:10348000C0E90255C0E9045585610DD840F2001429
:10349000F7004FF0011540F20116C0F20104FD40A3
:1034A000FE4024FA07F701E000260127C5740675DF
:1034B000077680E80610A0F816E0837480F8108084
:1034C000BCF1000F18BF4FF0010C80F80DC080F860
:1034D0000C80BDE8F08100BF40F2233040F21C5167
:1034E000C0F20100C0F2010140F22B2207F0E8F91E
:1034F00040F21C510EA0C0F2010140F2252207F05B
:10350000DFF900BF40F2B34040F21C51C0F20100AD
:10351000C0F2010140F2272207F0D2F940F21C511B
:1035200012A0C0F2010140F2262207F0C9F900BF43
:10353000284E554C4C20213D20636F6E66696729EB
:1035400020262620284E554C4C20213D20737263A6
:10355000416464722920262620284E554C4C202197
:103560003D20647374416464722900002862797498
:10357000655769647468203D3D2031554C29207C95
:103580007C2028627974655769647468203D3D2009
:1035900032554C29207C7C202862797465576964F7
:1035A0007468203D3D2034554C29000000281CBF84
:1035B000C0E90012704740F21C5103A0C0F20101A3
:1035C00040F2052207F07CF968616E646C65202189
:1035D0003D204E554C4C0000B0B1017B17291FD245
:1035E00082680120136A8840034302EB01101362D2
:1035F000D0F80014890748BF7047D0F8081441F08C
:103600000401C0F80814704740F25A5040F21C51AF
:10361000C0F20100C0F2010140F2CB3207F050F9D4
:1036200040F2B82040F21C51C0F20100C0F201018A
:1036300040F2CE3207F044F9B0B582B0002843D052
:10364000002941D00446007B172849D2A26842F2E3
:103650000003C4F208039A4208D047F20003C4F200
:103660000A039A4248D1012301E000BF0023156BF1
:10367000C540ED071EBF41F2883002B0B0BD40F238
:103680005C0502EB0012C0F2010555F8235091F8D9
:1036900018C0D2F8003405EB001523F0010040EA11
:1036A0000C00C2F80004B1E80C102846CDF800C0A8
:1036B000FFF786FC2868A168227B01EB0211C1F8A4
:1036C0000804002002B0B0BD40F2FE2040F21C51C0
:1036D000C0F20100C0F201014FF4697207F0F0F886
:1036E00040F2B02040F21C51C0F20100C0F20101D2
:1036F00040F2A53207F0E4F840F2914040F21C514C
:10370000C0F20100C0F20101612207F0D9F8000007
:103710002DE9F04381B0012B43DB16460A681C46B5
:103720000D460746E0B140F29439C2F2000909F1B2
:10373000200808E000222A60BE542868013C00F1FD
:1037400001022A602DD0501C7F28F5D9D9F8040039
:103750000028EFD04046394603F096FDEAE700BF67
:10376000C4F1000CA4F1010E0023D7187E1C802E9A
:103770001AD29E452E6014D0B81C7F2814D80CEBAA
:103780000306B11C28600CD0F81C7F280CD8F11C53
:10379000286006D004377F2F06D804339C422F6060
:1037A000E3D101B0BDE8F083FEE7000083B0B0B51F
:1037B000A1B0044625A80EC068468021FCF7FAFE99
:1037C00040F29435C2F20005686808B343F2117301
:1037D00025A96A462046C0F20003209103F076FD39
:1037E000044600284FF000000CD0696851B105F183
:1037F00020006946224603F047FD002818BF4FF01D
:10380000FF34204621B0BDE8B04003B0704700BF90
:10381000002021B0BDE8B04003B070474CF25031F9
:1038200000FB01F0401EFDD17047000041F2001284
:10383000C1F2003212F80A3C032B03D112682AB1FC
:10384000526B104712686AB1926A104740F27A6070
:1038500040F29261C0F20100C0F201014FF4F17236
:1038600007F02EF840F2626040F29261C0F201006F
:10387000C0F2010140F2DD1207F022F870B5ADF59B
:10388000007D41F20015C1F2003515F80A1C04460E
:10389000032913D1286800287AD0816A20468847F6
:1038A00000285AD10120606215F80A0C032819D1AA
:1038B0002868002800F08480C66C17E0286800287B
:1038C00072D0C16920468847002846D10120606235
:1038D00015F80A0C03281DD12868002870D0C66C82
:1038E0001CE000BF2868002876D0066C6946204698
:1038F00000224FF40073B04778BB0220606215F8D5
:103900000A0C019E03281DD12868002858D0C56CD8
:103910001CE000BF286800285ED0066C694620467F
:1039200000224FF40073B047B8B90220606215F866
:103930000A0C019E032813D12868002840D0C56CCA
:1039400011E000BF2868002846D0056C6946204673
:1039500000224FF40073A84768B10DF5007D70BDDB
:103960002868C8B3056C6946204600224FF40073EE
:10397000A8470028F1D101980221864288BF30462D
:1039800088BF0121C4E9080100200DF5007D70BD4C
:1039900040F27A6040F29261C0F20100C0F201018F
:1039A00040F2A91206F08CFF40F2626040F2926190
:1039B000C0F20100C0F2010140F29F1206F080FF48
:1039C00040F27A6040F29261C0F20100C0F201015F
:1039D0004FF4127206F074FF40F2626040F292619E
:1039E000C0F20100C0F2010140F2432206F068FF7C
:1039F00040F24C30C2F2000002682AB1416A46F23D
:103A00000000C4F20800104740F2695040F2BD5176
:103A1000C0F20100C0F20101B72206F051FF000020
:103A200040F24C30C2F2000042682AB1816A47F28B
:103A30000000C4F20800104740F2695040F2BD5146
:103A4000C0F20100C0F20101C52206F039FF0000FA
:103A500040F24C30C2F2000082682AB1C16A48F2DA
:103A60000000C4F20800104740F2695040F2BD5116
:103A7000C0F20100C0F20101D32206F021FF0000D4
:103A800040F24C30C2F20000C2682AB1016B49F228
:103A90000000C4F20800104740F2695040F2BD51E6
:103AA000C0F20100C0F20101E12206F009FF0000AE
:103AB00040F24C30C2F2000002692AB1416B4AF276
:103AC0000000C4F20800104740F2695040F2BD51B6
:103AD000C0F20100C0F20101EF2206F0F1FE000089
:103AE00040F24C30C2F2000042692AB1816B46F2CA
:103AF0000000C4F20900104740F2695040F2BD5185
:103B0000C0F20100C0F20101FE2206F0D9FE000061
:103B100040F24C30C2F2000082692AB1C16B47F218
:103B20000000C4F20900104740F2695040F2BD5154
:103B3000C0F20100C0F201014FF4867206F0C0FE2F
:103B400040F24C30C2F20000C2692AB1016C48F266
:103B50000000C4F20900104740F2695040F2BD5124
:103B6000C0F20100C0F201014FF48D7206F0A8FE10
:103B700040F24C30C2F20000026A2AB1416C4FF2AE
:103B80000000C4F20900104740F2695040F2BD51F4
:103B9000C0F20100C0F201014FF4947206F090FEF1
:103BA00049F6FF71C4F2080188421FDD46F6FF7135
:103BB000C4F2090188423BDD47F20001C4F2090169
:103BC000884204BF0620704748F20001C4F2090190
:103BD000884204BF072070474FF20001C4F2090178
:103BE000884204BF0820704716E000BF47F6FF7107
:103BF000C4F2080188422DDC46F20001C4F208013B
:103C0000884204BF0020704747F20001C4F2080157
:103C1000884204BF0120704740F2905040F2BD51ED
:103C2000C0F20100C0F201016A2206F049FE00BFA5
:103C30004AF20001C4F20801884204BF0420704720
:103C400046F20001C4F20901884204BF0520704712
:103C5000E2E700BF48F20001C4F20801884204BF55
:103C60000220704749F20001C4F20801884204BFF3
:103C700003207047D0E70000B0B5044649F6FF7056
:103C8000C4F2080084420D461ADD46F6FF70C4F205
:103C90000900844228DD47F20000C4F20900844292
:103CA0003ED048F20000C4F2090084423AD04FF2FC
:103CB0000000C4F20900844274D1082039E000BF3A
:103CC00047F6FF70C4F2080084421BDC46F2000095
:103CD000C4F20800844227D047F20000C4F2080072
:103CE00084425FD1012024E04AF20000C4F20800BF
:103CF00084421BD046F20000C4F20900844251D134
:103D0000052016E048F20000C4F2080084420FD0FB
:103D100049F20000C4F20800844243D1032008E0C5
:103D2000062006E0072004E0002002E0042000E076
:103D3000022040F26401C0F2010131F810100123A9
:103D40000A0AC9B203FA01F11CA353F8200040F299
:103D50002023C4F2000343F8221001F0E3FB8DB1ED
:103D6000042D07D8D4F8F80FE84000075CBF032003
:103D7000B0BD07E0052D03D1D4F8F80F000601D43B
:103D80000320B0BDD4F8F80F000707D5D4F8F80F1A
:103D900000F00700A8421CBF0120B0BD0020C4F8FD
:103DA000F85FB0BD40F2905040F2BD51C0F201004A
:103DB000C0F201016A2206F083FD00BF0B00010082
:103DC0000C0001000D0001000E0001000F000100B9
:103DD0001000010011000100120001001C0002008F
:103DE00049F6FF73C4F2080398421BDD46F6FF73E1
:103DF000C4F2090398422BDD47F20003C4F2090321
:103E0000984245D048F20003C4F20903984243D0D7
:103E10004FF20003C4F20903984255D14FF0080C49
:103E200048E000BF47F6FF73C4F2080398421FDC66
:103E300046F20003C4F20803984231D047F200036F
:103E4000C4F2080398423FD14FF0010C32E000BFAA
:103E50004AF20003C4F20803984225D046F2000358
:103E6000C4F2090398422FD14FF0050C22E000BFA5
:103E700048F20003C4F20803984219D049F2000343
:103E8000C4F2080398421FD14FF0030C12E000BFA8
:103E90004FF0060C0EE000BF4FF0070C0AE000BF29
:103EA0004FF0000C06E000BF4FF0040C02E000BF32
:103EB0004FF0020C40F24C33C2F2000303EB8C00D3
:103EC00043F82C104262704740F2905040F2BD51CE
:103ED000C0F20100C0F201016A2206F0F1FC00000C
:103EE000B0B5042934D24FF63C6CC0F2000C3CF85B
:103EF00011C040F220254FEA1C2E5FFA8CF44FF0DF
:103F0000010C0CFA04F4C4F2000545F82E401D78AB
:103F100095B100EB81005B780CFA02F100F50852D4
:103F2000002B08BF00F50A5211604FF4005283586D
:103F300019438150B0BD00BF00EB81004FF4005128
:103F400043580CFA02F223EA02024250B0BD00BF0D
:103F500040F2006040F22361C0F20100C0F20101B2
:103F60002D2206F0ADFC0000B0B594B005A8FFF717
:103F700085FC18B10025284614B0B0BD01AC05A8D9
:103F80002146FFF753FC18B10025284614B0B0BDF8
:103F900041F6B752A01E1021C0F2C1424FF0FF34CB
:103FA00010F8023F84EA036382EA4305B3F1FF3F5E
:103FB000C8BF5D0082EA4503B5F1FF3FC8BF6B0093
:103FC00082EA4305B3F1FF3FC8BF5D0082EA4503C3
:103FD000B5F1FF3FC8BF6B0082EA4305B3F1FF3F75
:103FE000C8BF5D0082EA4503B5F1FF3FC8BF6B0063
:103FF00082EA4305B3F1FF3FC8BF5D0082EA450393
:104000004478B5F1FF3FC8BF6B0083EA046382EADE
:104010004305B3F1FF3FC8BF5D0082EA4503B5F138
:10402000FF3FC8BF6B0082EA4305B3F1FF3FC8BF43
:104030005D0082EA4503B5F1FF3FC8BF6B0082EA2D
:104040004305B3F1FF3FC8BF5D0082EA4503B5F108
:10405000FF3FC8BF6B0082EA4305B3F1FF3FC8BF13
:104060005D0082EA4504B5F1FF3FC8BF6C0002392C
:1040700096D140F2C435C2F2000505A206A3284637
:10408000202100940BF040FB284614B0B0BD00BFC7
:1040900025732530385800003030413100000000D1
:1040A00080B568B1C1B11AB300784FF61C63C0F295
:1040B000000353F8200005F06FF9002080BD00BF19
:1040C00040F2625040F27A11C0F20100C0F20101E8
:1040D0004FF4C87206F0F4FB40F2751040F27A110A
:1040E000C0F20100C0F2010140F2911206F0E8FBBB
:1040F00040F2CA1040F27A11C0F20100C0F2010190
:104100004FF4C97206F0DCFBF0B540F26423C2F252
:1041100000035F784EF200224CF2010EC4F2080256
:1041200004250121C4F2080E1560C2F880107FB387
:104130001160C2F880101160C2F88050C2F880107F
:104140001160C2F8801011608EF8001093F81BC047
:1041500003EB4C018D8C002D00F0AA8015F00306B6
:10416000A5F1010400F092800127012E2146C2F83A
:104170008070176000F08B80022EC2F8807017608C
:1041800040F0F080A91E032C80F0838090E000BFF7
:104190005C68641EFDD111605C68641EFDD1C2F8CC
:1041A00080105C68641EFDD111605C68641EFDD1E6
:1041B000C2F88050C2F880105C68641EFDD11160A6
:1041C0005C68641EFDD1C2F880105C68641EFDD17D
:1041D00011605C68641EFDD18EF80010D97E03EB7F
:1041E0004107BD8C65B10121C2F880105C68641E76
:1041F000FDD111605C68641EFDD1013DF4D1D97E12
:104200005F183F7F012F12D0794201258EF8000000
:10421000C2F880505C68641EFDD115605C68641E45
:10422000FDD101314F1C4FEA5000EFD1D97E03EB95
:104230004101898E002900F05D808EF80000012088
:10424000C2F880005C68641EFDD110605C68641E6A
:10425000FDD18EF8000001290CD04942C2F880003F
:104260005C68641EFDD110605C68641EFDD1013184
:104270004F1CF3D104211160C2F880005968491E17
:10428000FDD110605868401EFDD141E02946032C45
:104290000ED301240439C2F880401460C2F8804073
:1042A0001460C2F880401460C2F880401460F1D1FC
:1042B00003EB0C010D7F6C1E00F08A8014F00306E6
:1042C000A5F1020C10D00124012E4FEA50018EF806
:1042D0000000C2F88040146034D164460846BCF146
:1042E000030F80F0558070E0BCF1030F80F0508028
:1042F0006BE000BF042111608EF800000120C2F8BD
:1043000080005968491EFDD110605868401EFDD1DB
:104310000120C2F880005968491EFDD1106059681B
:104320000427491EFDD1C2F88070C2F88000596888
:10433000491EFDD110605868401EFDD101208EF845
:104340000000F0BD8EF80010022E4FEA9001C2F876
:104350008040146010D1EC1E0846BCF1030F17D248
:1043600033E000BF0121C2F880101160E91E032C68
:10437000BFF48FAF9CE700BF8EF800100121C2F898
:1043800080101160C1082C1F0846BCF1030F1CD31C
:104390000125014648088EF80010C2F880501560CB
:1043A0008EF800008808C2F8805015608EF8000072
:1043B000C808043C4FEA1111C2F8805015608EF80D
:1043C0000000C2F880501560E4D193F81BC0084685
:1043D00003EB4C01898EE9B18EF800000123481EE1
:1043E000C2F8803013608EF800302FD010F0030632
:1043F000A1F1020319D00127012E1846C2F88070DE
:10440000176012D0022EC2F88070176008D1C81E43
:104410000BE000BF042111608EF8000018E000BF1F
:104420000120C2F880001060081F032B0ED3012169
:104430000438C2F880101160C2F880101160C2F810
:1044400080101160C2F880101160F1D1042010605A
:1044500001200421C2F880001060C2F880001060C2
:10446000C2F88010C2F88000106001208EF80000B1
:10447000F0BD0000B0B54EF2002EC4F2080E0421CB
:10448000012040F26422CEF80010CEF88000C2F283
:10449000000253685B1EFDD1CEF8000053685B1E1E
:1044A000FDD1CEF88010CEF880005168491EFDD1B4
:1044B000CEF800005168491EFDD1CEF88000516849
:1044C000491EFDD1CEF800005168491EFDD1D17EB4
:1044D00061B100BFCEF8800053685B1EFDD1CEF8FD
:1044E000000053685B1EFDD10139F3D14CF2030C7F
:1044F00000236FF01E01C4F2080C00BFCEF880004C
:104500005468641EFDD19CF80040CEF80000556848
:1045100043EAC4736D1EFDD101314FEA5303EDD35D
:1045200004200121CEF80000CEF880105468641EEB
:10453000FDD19CF80050CEF800105468641EFDD1E7
:10454000CEF880105468641EFDD1CEF80010546877
:10455000641EFDD1CEF88000CEF88010546843EA86
:10456000C570641EFDD1CEF800105168491EFDD102
:10457000B0BD00002DE9F04710F03F0C08BF4FF030
:10458000400C43064EF200294CF2010AC4F208091D
:104590004FF0040354BFC9F88030C9F8003000065A
:1045A000C4F2080A26D440F264240122C2F20004B4
:1045B00003E000BFBCEB030C52D011F8017BACF15F
:1045C000010600258AF80070C9F8802063685B1E28
:1045D000FDD19AF80230C9F8002063685B1EFDD156
:1045E000AE4205F10103E5D07F08072D1D46E9D154
:1045F000E0E700BF40F264284FF0010EC2F200086D
:104600000BE000BFC3F1080027FA00F0BCEB030C7D
:1046100002F8010B08BFBDE8F08711F8015BACF1AF
:1046200001060024002700BF8AF80050C9F880E086
:10463000D8F804305B1EFDD19AF80230C9F800E0CA
:10464000D8F80400DB01401EFDD143EA5707A6421B
:1046500004F10103D6D06D08072C1C46E4D1D1E744
:10466000BDE8F0872DE9F04F9FB040F2642BC2F215
:10467000000B9BF801504EF200224CF2010CC4F2E8
:10468000080204260127C4F2080C1660C2F88070E4
:1046900055B31760C2F88060C2F880701760C2F826
:1046A000807017609BF81B50002D00F0F78015F00C
:1046B0000304A5F1010600F0DF804FF0010E012C8C
:1046C0003746C2F880E0C2F800E000F0D680022C45
:1046D000C2F880E0C2F800E040F03C83AF1E032E39
:1046E00080F0CD80DAE000BFDBF80440641EFDD12D
:1046F0001760DBF80440641EFDD1C2F88060C2F888
:104700008070DBF80440641EFDD11760DBF80440C4
:10471000641EFDD1C2F88070DBF80440641EFDD138
:104720001760DBF80440641EFDD19BF81B7077B165
:10473000012600BFC2F88060DBF80440641EFDD192
:104740001660DBF80440641EFDD1013FF2D147083A
:1047500001248CF80070C2F88040DBF804506D1E14
:10476000FDD19CF802E01460DBF8045086086D1E51
:10477000FDD18CF80060C2F88040DBF804506D1E5B
:10478000FDD19CF802601460DBF80450C7086D1E70
:10479000FDD18CF80070C2F88040DBF8045046EA86
:1047A0004E076D1EFDD19CF802601460DBF80450CA
:1047B00047EA860E6D1EFDD1BEF1010F40F04E801E
:1047C000840700F1758209686FF01E04012500BF9F
:1047D0008CF80010C2F88050DBF804305B1EFDD16D
:1047E0001560DBF804305B1EFDD149080134EFD3BE
:1047F0009BF81B409BF81A50E3435E1900F0C682F9
:104800008CF800100121C2F88010DBF804305B1E28
:10481000FDD11160DBF804305B1EFDD1012E0ED0FE
:10482000631B9C1CC2F88010DBF804305B1EFDD1BA
:104830001160DBF804305B1EFDD10134F2D3042398
:104840001360C2F88010DBF804305B1EFDD11160EC
:10485000DBF80410491EFDD1BEE200BF0421116047
:10486000C2F88040DBF80410491EFDD11460DBF86B
:104870000410491EFDD1AFE22F46032E0ED30126B0
:10488000043FC2F880601660C2F880601660C2F80B
:1048900080601660C2F880601660F1D1470801247C
:1048A0008CF80070C2F8804086089CF80270146092
:1048B0008CF80060C2F880409CF80260146046EA00
:1048C0004707C6088CF80060C2F880409CF8026078
:1048D000146047EA860EBEF1010F40F0E1808407C4
:1048E00000F1E4800C68012165088CF80040C2F8F2
:1048F000801011608CF80050A508C2F8801011607B
:104900008CF80050E508C2F8801011608CF8005057
:104910002509C2F8801011608CF800506509C2F8B2
:10492000801011608CF80050A509C2F88010116049
:104930008CF80050E509C2F8801011608CF8005026
:10494000250AC2F8801011608CF80050650AC2F880
:10495000801011608CF80050A50AC2F88010116018
:104960008CF80050E50AC2F8801011608CF80050F5
:10497000250BC2F8801011608CF80050650BC2F84E
:10498000801011608CF80050A50BC2F880101160E7
:104990008CF80050E50BC2F8801011608CF80050C4
:1049A000250CC2F8801011608CF80050650CC2F81C
:1049B000801011608CF80050A50CC2F880101160B6
:1049C0008CF80050E50CC2F8801011608CF8005093
:1049D000250DC2F8801011608CF80050650DC2F8EA
:1049E000801011608CF80050A50DC2F88010116085
:1049F0008CF80050E50DC2F8801011608CF8005062
:104A0000250EC2F8801011608CF80050650EC2F8B7
:104A1000801011608CF80050A50EC2F88010116053
:104A20008CF80050E50EC2F8801011608CF8005030
:104A3000250FC2F8801011608CF80050650FC2F885
:104A4000801011608CF80050A50FC2F88010116022
:104A50008CF80050C2F8801011609BF81B609BF826
:104A60001A70F543ED194FEAD47400F07D818CF88B
:104A700000406C1EC2F88010116000F00F82B91B5C
:104A80008E1C16F00306A1F1030100F0F68101244B
:104A9000012EC2F88040146040F0DA81AC1EECE1D7
:104AA00004211160C2F880401460A4E24FF00108B4
:104AB000C2F880809CF802301E93C2F80080C2F8D1
:104AC00080809CF802301D93C2F80080C2F880807C
:104AD0009CF80290C2F80080C2F880809CF80270B6
:104AE000C2F80080C2F880809CF80260C2F80080A2
:104AF000C2F880809CF802301C93C2F80080C2F893
:104B000080809CF802301B93C2F80080C2F880803D
:104B10009CF802301A93C2F80080C2F880809CF89A
:104B200002301993C2F80080C2F880809CF80230ED
:104B30001893C2F80080C2F880809CF80230179366
:104B4000C2F80080C2F880809CF802301693C2F848
:104B50000080C2F880809CF802301593C2F8008073
:104B6000C2F880809CF802301493C2F80080C2F82A
:104B700080809CF802301393C2F80080C2F88080D5
:104B80009CF802301293C2F80080C2F880809CF832
:104B900002301193C2F80080C2F880809CF8023085
:104BA0001093C2F80080C2F880809CF802300F9306
:104BB000C2F80080C2F880809CF802300E93C2F8E0
:104BC0000080C2F880809CF802300D93C2F800800B
:104BD000C2F880809CF802300C93C2F80080C2F8C2
:104BE00080809CF802300B93C2F80080C2F880806D
:104BF0009CF802300A93C2F80080C2F880809CF8CA
:104C000002300993C2F80080C2F880809CF802301C
:104C10000893C2F80080C2F880809CF802300793A5
:104C2000C2F80080C2F880809CF802300693C2F877
:104C30000080C2F880809CF802300593C2F80080A2
:104C4000C2F880809CF802300493C2F80080C2F859
:104C500080809CF802300393C2F800809BF81B40D0
:104C60009BF81AA0E54315EB0A0300F08380CDE919
:104C70000167C2F880809CF802504F46B3F10109E9
:104C80000095C2F8008000F02A81AAEB0404A51C5C
:104C900015F00305A4F1030400F00E810126012D97
:104CA000C2F88060166040F0DB80A3F1020903E1E6
:104CB00000246FF01E050126C2F88060DBF8047046
:104CC0007F1EFDD19CF802701660DBF804305B1E7D
:104CD000FDD144EAC77301354FEA5304ECD39BF886
:104CE0001B709BF81A50FB4313EB050900F0608022
:104CF0000126C2F88060DBF804305B1EFDD19CF811
:104D000002801660DBF804305B1EFDD1B9F1010FA3
:104D10000FD07B1B9D1C00BFC2F88060DBF8043005
:104D20005B1EFDD11660DBF804305B1EFDD1013542
:104D3000F2D304231360C2F88060DBF804305B1EFA
:104D4000FDD11660DBF804305B1EFDD1002940D197
:104D500042E000BF0123C2F880301360EF1E032E33
:104D6000BFF48DAD9AE500BF042515608CF80040B6
:104D700097E000BF04241460C2F880809CF8028091
:104D800001240029146040F0B78034E1042313604B
:104D90008CF800100121C2F88010DBF804305B1E93
:104DA000FDD11160DBF80410491EFDD114E000BFF5
:104DB000042313600123C2F88030DBF804506D1E19
:104DC000FDD19CF802801360DBF804305B1EFDD13E
:104DD00011B144EAC8730B600121C2F88010DBF8FE
:104DE00004305B1EFDD11160DBF8043004245B1E2F
:104DF000FDD1C2F88040C2F88010DBF804305B1EA1
:104E0000FDD11160DBF804305B1EFDD18CF8001081
:104E1000000606D541F20400CEF200000068CBF88F
:104E200008009BF80C00002800F02481012100BF3D
:104E3000C2F88010DBF804305B1EFDD11160DBF896
:104E4000043001385B1EFDD10028F1D112E100BF12
:104E5000022EC2F8804014600AD1EC1E0DE000BFA3
:104E6000022DC2F88060166020D1A3F1030923E06F
:104E70000123C2F8803013602C1F03290ED30121B7
:104E8000043CC2F880101160C2F880101160C2F8B2
:104E900080101160C2F880101160F1D104211160FE
:104EA0000121C2F880101160A5E000BF0125C2F801
:104EB00080501560A3F10409032C10D3012400BF16
:104EC000B9F10409C2F880401460C2F8804014604F
:104ED000C2F880401460C2F880401460F0D104240D
:104EE00014600124C2F88040B946029FDDE90086C3
:104EF0000124002914607ED01E9B4FF0804404EAF8
:104F000083741D9B4FEAC97544EAC3741C9B45EA30
:104F10005404FD0745EA5404F50745EA5404DD0747
:104F20001B9B45EA5404DD071A9B45EA5404DD0740
:104F3000199B45EA5404DD07189B45EA5404DD0734
:104F4000179B45EA5404DD07169B45EA5404DD0728
:104F5000159B45EA5404DD07149B45EA5404DD071C
:104F6000139B45EA5404DD07129B45EA5404DD0710
:104F7000119B45EA5404DD07109B45EA5404DD0704
:104F80000F9B45EA5404DD070E9B45EA5404DD07F8
:104F90000D9B45EA5404DD070C9B45EA5404DD07EC
:104FA0000B9B45EA5404DD070A9B45EA5404DD07E0
:104FB000099B45EA5404DD07089B45EA5404DD07D4
:104FC000079B45EA5404DD07069B45EA5404DD07C8
:104FD000059B45EA5404DD07049B45EA5404DD07BC
:104FE000039B45EA5404DD0745EA54044FEAC875BB
:104FF00045EA54040C60012104240006C2F8801024
:105000001160C2F88040C2F8801011608CF8001066
:1050100006D541F20400CEF200000068CBF808008B
:105020009BF80C3033B313F00307A3F101010FD049
:105030000126012F0846C2F88060166009D0022FB1
:10504000C2F8806016601BD1981E032912D302E0BB
:10505000184603290ED301210438C2F880101160CC
:10506000C2F880101160C2F880101160C2F8801080
:105070001160F1D15FFA8EF01FB0BDE8F08F00BF74
:10508000D81E0123C2F8803013600329F2D3E2E76F
:10509000B0B54EF2002EC4F2080E0421012340F2F6
:1050A0006422CEF80010CEF88030C2F200025468BC
:1050B000641EFDD1CEF800305468641EFDD1CEF8D8
:1050C0008010CEF880305168491EFDD1CEF80030F6
:1050D0005168491EFDD1CEF880305168491EFDD17E
:1050E000CEF800305168491EFDD1D17E61B100BFBC
:1050F000CEF880305468641EFDD1CEF8003054687C
:10510000641EFDD10139F3D14CF2010CC4F2080C3C
:1051100000218CF80010CEF880305168491EFDD176
:10512000CEF800305168491EFDD1CEF8803051686C
:10513000491EFDD1CEF800305168491EFDD1CEF890
:1051400080305168491EFDD1CEF800305168491EAB
:10515000FDD16FF01E0100BF8CF80000CEF880304A
:105160005468641EFDD1CEF800305468641EFDD131
:1051700040080131F0D3D17E937ECC43E4182BD08C
:105180008CF800000120CEF8800055686D1EFDD11E
:10519000CEF8000055686D1EFDD1012C0ED0C91A45
:1051A000023100BFCEF8800053685B1EFDD1CEF8FF
:1051B000000053685B1EFDD10131F3D30421CEF80A
:1051C0000010CEF880005168491EFDD1CEF80000D5
:1051D0005068401EFDD10FE00421CEF800108CF87D
:1051E00000000120CEF880005168491EFDD1CEF8A4
:1051F00000005068401EFDD10120CEF880005168AB
:10520000491EFDD1CEF8000051680423491EFDD18E
:10521000CEF88030CEF880005168491EFDD1CEF81E
:1052200000005168491EFDD18CF80000B0BD00009F
:10523000002B08BF704741F24660101AB0FA80F0A8
:10524000400941F247618A4208BF02201847000026
:10525000F0B585B040F22025C4F200054FF40050AF
:105260004CF2000428604FF48040C4F20804286027
:1052700000260DF11203204600210022ADF8126035
:10528000FEF72EFE04AB204600210122ADF810608F
:105290000127FEF725FE0DF10E0320460021022214
:1052A000ADF80E60FEF71CFE40F20110ADF80C00E8
:1052B00003AB204600210522FEF712FE0DF10A0382
:1052C000204600210D22ADF80A70FEF709FE02AB60
:1052D000204600211322ADF80860FEF701FE0DF113
:1052E0000603204600211C22ADF80670FEF7F8FDEB
:1052F000D5F8E00D40F2411240F4A07020F00F000C
:10530000C5F8E00D41F20400C4F20000016841F468
:10531000A07121F00F010160016B41F4807121F057
:105320000F010163816C41F4A07121F00F018164D0
:10533000416841F4A07121F03F014160C16D11430A
:1053400021F00E01C165016E114321F00E010166CD
:10535000C16E41F4A07121F00F01C1668168114353
:1053600021F00E018160016940F2071241F4907151
:1053700021F01F010161D0F88410114321F00801D0
:10538000C0F8841005B0F0BD10B500F1280151E857
:10539000002F12B9BFF32F8F04E0531E41E80034F1
:1053A00004B1F4E772B12C300121006850B1821CC5
:1053B000D2E84F3FC2E8441F04B1F9E71A0602D011
:1053C0000830F2E7002010BD70B5024652F8305F99
:1053D0004DB1CC7800235DB12E46ED78A5420DD2BB
:1053E00075683346F7E70023C162C1E901330DE078
:1053F0000024C1E9014300F12C0403E0C1E9016389
:1054000006F108042160002B18BF1A1D1160283016
:1054100050E8001F4A1C40E8002303B1F8E770BDC4
:10542000D1E9012312B193608B6800E0C362191DBA
:10543000002B08BF00F130010A6070471A4800686D
:10544000704700BF19480178012905D105494FF07F
:1054500080620A60002101701348016841F0010177
:105460000160704704ED00E04FF0FF30704700002E
:1054700040B10B490968B1FBF0F0411E0020B0EBD0
:10548000116F02D04FF0FF307047064AFF231370B0
:105490000623054A13605160044908709060704704
:1054A0002800002023ED00E010E000E0D85D00209F
:1054B00021682046D4E9022305F024BD6FF00500E1
:1054C0007047002100220646002706F033B86FF02F
:1054D000050070476FF0030010BD4DF808ED204641
:1054E00005F09EFF20465DF808EB05F0C5BE0446BA
:1054F0000078F1287047000010B50849022488425E
:1055000038BF01240649884238BF0024204605F0F0
:1055100043FA2046BDE8104005F0C8BA81A4BF0791
:1055200001E1F50580B582B2202A37D240F20011A0
:10553000000CC4F200014FF0010C01EB800E0CFADC
:1055400002F2CEF8202000BF51F8203013420BD1D8
:1055500051F82030134207D151F82030134203D1C3
:1055600051F820301342EFD0CEF840200BE000BFBE
:1055700051F8203013409A4218BF80BD51F82030B6
:1055800013409A4209D151F8203013409A4204D175
:1055900051F8203013409A42EAD080BD40F210709A
:1055A00040F2D061C0F20100C0F20101302205F0EA
:1055B00087F9000080B5002808BF80BD44F2402272
:1055C000A1FB0001C0F20F0291420BD240F6001283
:1055D000C0F23D020023FAF7A3FF0046401E002858
:1055E000FCD180BD40F2172102A0C0F20101C5220A
:1055F00005F066F9636F756E74203C3D2055494E89
:105600005433325F4D4158002DE9F04110F03F0C0A
:1056100008BF4FF0400C00064EF200204CF2020E84
:10562000C4F20800C4F2080E24D440F2642301221C
:10563000C2F2000305E000BFBCEB070C08BFBDE8E9
:10564000F08111F8014BACF1010500268EF8004005
:10565000C0F880205F687F1EFDD102605F687F1EFA
:10566000FDD1B54206F10107E6D06408072E3E469B
:10567000ECD1E1E740F264234FF00108C2F20003ED
:1056800009E000BFC7F1080125FA01F102F8011B8A
:10569000BCEB070C1CD0ACF101040026002500BFB8
:1056A000C0F880805F687F1EFDD19EF80070C0F852
:1056B00000805968FF01491EFDD147EA5505B442F3
:1056C00006F10107DED0072E3E46E9D1DAE700BF3A
:1056D000BDE8F0812DE9F04740F26429C2F20009EB
:1056E00099F801704CF2020C4EF2002AC4F2080C38
:1056F0000124C4F2080A002F8CF80040CAF8804048
:1057000000F09A804708CAF800408CF80000CAF8F8
:105710008040CAF800408CF8007000EB5007860803
:1057200007EB9007CAF8804007EBD007CAF80040A3
:105730008CF80060C608CAF88040CAF800408CF8AF
:105740000060CAF88040CAF800408CF8007000275A
:10575000CAF88040CAF800408CF800704FF08057BB
:10576000CAF88040CAF800408CF80040CAF880406F
:10577000CAF80040CAF880700427CAF8007299F885
:105780001880B8F1000F2BD0A8F1010718F003051D
:10579000464610D00124012D3E46CAF88040CAF882
:1057A000004008D0022DCAF88040CAF8004040F0FE
:1057B0008D85A8F10206032F12D30127043ECAF8F3
:1057C0008070CAF80070CAF88070CAF80070CAF811
:1057D0008070CAF80070CAF88070CAF80070EDD105
:1057E0000124CAF880409CF80070CAF80040CAF84A
:1057F00080409CF80060CAF80040CAF8804047EA40
:1058000046079CF80060CAF8004047EA860EBEF1E1
:10581000040F18BFBEF1020F40F01E8499F8191052
:1058200010F0020018BF002940F03C84B8F1000FCE
:1058300040F0C18400F0FABDD9F80420521EFDD119
:10584000CAF80040D9F80420521EFDD18CF800009F
:10585000CAF88040D9F80420521EFDD1CAF8004091
:10586000D9F804204308521EFDD18CF80030CAF844
:105870008040D9F80420521EFDD1CAF80040D9F862
:1058800004208308521EFDD18CF80030CAF88040F5
:10589000D9F8042000EB5003521EFDD1CAF8004095
:1058A000D9F80420C708521EFDD18CF80070CAF840
:1058B000804003EB9003D9F80420521EFDD1CAF8B2
:1058C000004003EBD003D9F80420521EFDD18CF820
:1058D0000030CAF88040D9F80420521EFDD1CAF821
:1058E0000040D9F804200023521EFDD18CF800306E
:1058F000CAF88040D9F80420521EFDD1CAF80040F1
:10590000D9F80420521EFDD18CF80040CAF880401E
:10591000D9F80420521EFDD1CAF80040D9F804205D
:10592000521EFDD14FF080530422CAF88030CAF8CD
:10593000002299F818707FB1012600BFCAF8806074
:10594000D9F80420521EFDD1CAF80060D9F804200D
:10595000521EFDD1013FF1D10122CAF88020D9F8B1
:1059600004305B1EFDD19CF80030CAF80020D9F845
:105970000440641EFDD1CAF88020D9F80440641E9A
:10598000FDD19CF80070CAF80020D9F80440641ECC
:10599000FDD1CAF88020D9F8044043EA4703641EC9
:1059A000FDD19CF80070CAF80020D9F8042043EA21
:1059B000870E521EFDD1BEF1040F18BFBEF1020FBB
:1059C00040F0148410F0020000F0928199F8191050
:1059D000002900F08D810121CAF88010D9F8042037
:1059E000521EFDD1CAF80010D9F80420521EFDD174
:1059F000CAF88010D9F80420521EFDD1CAF8001050
:105A0000D9F80420521EFDD1CAF88010D9F804201C
:105A1000521EFDD1CAF80010D9F80420521EFDD143
:105A2000CAF88010D9F80420521EFDD1CAF800101F
:105A3000D9F80420521EFDD1CAF88010D9F80420EC
:105A4000521EFDD1CAF80010D9F80420521EFDD113
:105A5000CAF88010D9F80420521EFDD1CAF80010EF
:105A6000D9F80420521EFDD1CAF88010D9F80420BC
:105A7000521EFDD1CAF80010D9F80420521EFDD1E3
:105A8000CAF88010D9F80420521EFDD1CAF80010BF
:105A9000D9F80420521EFDD1CAF88010D9F804208C
:105AA000521EFDD1CAF80010D9F80420521EFDD1B3
:105AB000CAF88010D9F80420521EFDD1CAF800108F
:105AC000D9F80420521EFDD1CAF88010D9F804205C
:105AD000521EFDD1CAF80010D9F80420521EFDD183
:105AE000CAF88010D9F80420521EFDD1CAF800105F
:105AF000D9F80420521EFDD1CAF88010D9F804202C
:105B0000521EFDD1CAF80010D9F80420521EFDD152
:105B1000CAF88010D9F80420521EFDD1CAF800102E
:105B2000D9F80420521EFDD1CAF88010D9F80420FB
:105B3000521EFDD1CAF80010D9F80420521EFDD122
:105B4000CAF88010D9F80420521EFDD1CAF80010FE
:105B5000D9F80420521EFDD1CAF88010D9F80420CB
:105B6000521EFDD1CAF80010D9F80420521EFDD1F2
:105B7000CAF88010D9F80420521EFDD1CAF80010CE
:105B8000D9F80420521EFDD1CAF88010D9F804209B
:105B9000521EFDD1CAF80010D9F80420521EFDD1C2
:105BA000CAF88010D9F80420521EFDD1CAF800109E
:105BB000D9F80420521EFDD1CAF88010D9F804206B
:105BC000521EFDD1CAF80010D9F80420521EFDD192
:105BD000CAF88010D9F80420521EFDD1CAF800106E
:105BE000D9F80420521EFDD1CAF88010D9F804203B
:105BF000521EFDD1CAF80010D9F80420521EFDD162
:105C0000CAF88010D9F80420521EFDD1CAF800103D
:105C1000D9F80420521EFDD1CAF88010D9F804200A
:105C2000521EFDD1CAF80010D9F80420521EFDD131
:105C3000CAF88010D9F80420521EFDD1CAF800100D
:105C4000D9F80420521EFDD1CAF88010D9F80420DA
:105C5000521EFDD1CAF80010D9F80420521EFDD101
:105C6000CAF88010D9F80420521EFDD1CAF80010DD
:105C7000D9F80420521EFDD1CAF88010D9F80420AA
:105C8000521EFDD1CAF80010D9F80420521EFDD1D1
:105C9000CAF88010D9F80420521EFDD1CAF80010AD
:105CA000D9F80420521EFDD1CAF88010D9F804207A
:105CB000521EFDD1CAF80010D9F80420521EFDD1A1
:105CC000CAF88010D9F80420521EFDD1CAF800107D
:105CD000D9F80420521EFDD1CAF88010D9F804204A
:105CE000521EFDD1CAF80010D9F80410491EFDD18A
:105CF00099F8181071B10124CAF88040D9F804202D
:105D0000521EFDD1CAF80040D9F80420521EFDD120
:105D10000139F1D10421CAF880114FF080510028D7
:105D2000CAF8001040F06C8699F81900002800F0BD
:105D3000678600208CF800000120CAF88000D9F89E
:105D40000410491EFDD1CAF80000D9F80410491EFC
:105D5000FDD1CAF88000D9F80410491EFDD1CAF857
:105D60000000D9F80410491EFDD1CAF88000D9F806
:105D70000410491EFDD1CAF80000D9F80410491ECC
:105D8000FDD1CAF88000D9F80410491EFDD1CAF827
:105D90000000D9F80410491EFDD1CAF88000D9F8D6
:105DA0000410491EFDD1CAF80000D9F80410491E9C
:105DB000FDD1CAF88000D9F80410491EFDD1CAF8F7
:105DC0000000D9F80410491EFDD1CAF88000D9F8A6
:105DD0000410491EFDD1CAF80000D9F80410491E6C
:105DE000FDD1CAF88000D9F80410491EFDD1CAF8C7
:105DF0000000D9F80410491EFDD1CAF88000D9F876
:105E00000410491EFDD1CAF80000D9F80410491E3B
:105E1000FDD1CAF88000D9F80410491EFDD1CAF896
:105E20000000D9F80410491EFDD1CAF88000D9F845
:105E30000410491EFDD1CAF80000D9F80410491E0B
:105E4000FDD1CAF88000D9F80410491EFDD1CAF866
:105E50000000D9F80410491EFDD1CAF88000D9F815
:105E60000410491EFDD1CAF80000D9F80410491EDB
:105E7000FDD1CAF88000D9F80410491EFDD1CAF836
:105E80000000D9F80410491EFDD1CAF88000D9F8E5
:105E90000410491EFDD1CAF80000D9F80410491EAB
:105EA000FDD1CAF88000D9F80410491EFDD1CAF806
:105EB0000000D9F80410491EFDD1CAF88000D9F8B5
:105EC0000410491EFDD1CAF80000D9F80410491E7B
:105ED000FDD1CAF88000D9F80410491EFDD1CAF8D6
:105EE0000000D9F80410491EFDD1CAF88000D9F885
:105EF0000410491EFDD1CAF80000D9F80410491E4B
:105F0000FDD1CAF88000D9F80410491EFDD1CAF8A5
:105F10000000D9F80410491EFDD1CAF88000D9F854
:105F20000410491EFDD1CAF80000D9F80410491E1A
:105F3000FDD1CAF88000D9F80410491EFDD1CAF875
:105F40000000D9F80410491EFDD1CAF88000D9F824
:105F50000410491EFDD1CAF80000D9F80410491EEA
:105F6000FDD1CAF88000D9F80410491EFDD1CAF845
:105F70000000D9F80410491EFDD1CAF88000D9F8F4
:105F80000410491EFDD1CAF80000D9F80410491EBA
:105F9000FDD1CAF88000D9F80410491EFDD1CAF815
:105FA0000000D9F80410491EFDD1CAF88000D9F8C4
:105FB0000410491EFDD1CAF80000D9F80410491E8A
:105FC000FDD1CAF88000D9F80410491EFDD1CAF8E5
:105FD0000000D9F80410491EFDD1CAF88000D9F894
:105FE0000410491EFDD1CAF80000D9F80410491E5A
:105FF000FDD1CAF88000D9F80410491EFDD1CAF8B5
:106000000000D9F80410491EFDD1CAF88000D9F863
:106010000410491EFDD1CAF80000D9F80410491E29
:10602000FDD1CAF88000D9F80410491EFDD1CAF884
:106030000000D9F80410491EFDD1CAF88000D9F833
:106040000410491EFDD1CAF80000D9F80400401E12
:10605000FDD100F0D5BC00BFBEF1010F40F01081B2
:10606000870700F13F81B8F1000F00F03183A8F1FC
:10607000010618F00305474600F015830124012DA1
:106080003746CAF88040CAF8004000F00C83022D61
:10609000CAF88040CAF8004040F0FE82A8F102072A
:1060A00001E300BF0122CAF88020CAF80020CAF824
:1060B0008020CAF80020CAF88020CAF80020CAF858
:1060C0008020CAF80020CAF88020CAF80020CAF848
:1060D0008020CAF80020CAF88020CAF80020CAF838
:1060E0008020CAF80020CAF88020CAF80020CAF828
:1060F0008020CAF80020CAF88020CAF80020CAF818
:106100008020CAF80020CAF88020CAF80020CAF807
:106110008020CAF80020CAF88020CAF80020CAF8F7
:106120008020CAF80020CAF88020CAF80020CAF8E7
:106130008020CAF80020CAF88020CAF80020CAF8D7
:106140008020CAF80020CAF88020CAF80020CAF8C7
:106150008020CAF80020CAF88020CAF80020CAF8B7
:106160008020CAF80020CAF88020CAF80020CAF8A7
:106170008020CAF80020CAF88020CAF80020CAF897
:106180008020CAF80020CAF88020CAF80020CAF887
:106190008020CAF80020CAF88020CAF80020CAF877
:1061A0008020CAF80020CAF88020CAF80020B8F180
:1061B000000F00F03B81A8F1010418F003054246EE
:1061C00000F01F810126012D2246CAF88060CAF81E
:1061D000006000F01681022DCAF88060CAF80060E5
:1061E00040F00881A8F102020BE100BFBEF1010FEF
:1061F00040F05880820700F1B78199F818707FB19C
:10620000012600BFCAF88060D9F80420521EFDD1D3
:10621000CAF80060D9F80420521EFDD1013FF1D127
:106220000422CAF880214FF08052CAF800200F687B
:1062300000216FF01F0601258CF80070CAF880500D
:10624000D9F80420521EFDD1CAF80050D9F8042014
:10625000521EFDD1394401364FEA5707ECD34FF0B7
:10626000010E8CF80010CAF880E0D9F80410491E1D
:10627000FDD1CAF800E0D9F80410491EFDD1C0E1F3
:1062800008F1210010F0030100F0E581012001294F
:10629000CAF88000CAF8000040F05C8108F12000D4
:1062A000D9E100BF99F8180001212130CAF8801007
:1062B000D9F80420521EFDD1CAF80010D9F80420E4
:1062C000521EFDD10138F1D1D8E100BF0122CAF838
:1062D0008020CAF80020A8F10306032FBFF46DAA9E
:1062E000FFF77EBA00276FF01F040125002600BFCC
:1062F000CAF880509CF80020CAF800501744D20712
:10630000CAF8805042EA56029CF80060CAF8005071
:106310003744F607CAF8805046EA52029CF80060FB
:10632000CAF800503744F607CAF8805046EA5202CD
:106330009CF80060CAF800503744F607CAF880504D
:1063400046EA52029CF80060CAF800503744F6074B
:10635000CAF8805046EA52029CF80060CAF8005021
:106360003744F607CAF8805046EA52029CF80060AB
:10637000CAF80050CAF880503744F6079CF800303D
:1063800046EA5202DE0746EA520608341F44CAF8BB
:106390000050ADD10122CAF880209CF800304FF0A7
:1063A000080E7B40DB0708BF4FF0010E0029CAF83A
:1063B000002018BF0E60B8F1000F00F0D782A8F1DE
:1063C000010418F00305414600F0BB820126012DAF
:1063D0002146CAF88060CAF8006000F0B282022D3F
:1063E000CAF88060CAF8006040F0A482A8F10201F7
:1063F000A7E200BF0122CAF88020CAF80020A8F155
:106400000302032C12D30124043ACAF88040CAF8CC
:106410000040CAF88040CAF80040CAF88040CAF874
:106420000040CAF88040CAF80040EDD10422CAF802
:1064300080214FF080520028CAF8002040F0E0820E
:10644000002900F0DD8200208CF800000120CAF84D
:106450008000CAF80000CAF88000CAF80000CAF834
:106460008000CAF80000CAF88000CAF80000CAF824
:106470008000CAF80000CAF88000CAF80000CAF814
:106480008000CAF80000CAF88000CAF80000CAF804
:106490008000CAF80000CAF88000CAF80000CAF8F4
:1064A0008000CAF80000CAF88000CAF80000CAF8E4
:1064B0008000CAF80000CAF88000CAF80000CAF8D4
:1064C0008000CAF80000CAF88000CAF80000CAF8C4
:1064D0008000CAF80000CAF88000CAF80000CAF8B4
:1064E0008000CAF80000CAF88000CAF80000CAF8A4
:1064F0008000CAF80000CAF88000CAF80000CAF894
:106500008000CAF80000CAF88000CAF80000CAF883
:106510008000CAF80000CAF88000CAF80000CAF873
:106520008000CAF80000CAF88000CAF80000CAF863
:106530008000CAF80000CAF88000CAF80000CAF853
:106540008000CAF80000CAF88000CAF80000CAF843
:10655000800098E00229CAF88000CAF8000040F0E4
:10656000738008F11F0076E000266FF01F074FF0E0
:10657000010E0024CAF880E0D9F80420521EFDD193
:106580009CF80020CAF800E0D9F80430D5075B1E5B
:10659000FDD145EA540401371644EBD30122CAF871
:1065A0008020D9F804305B1EFDD14FF0080E9CF816
:1065B0000030CAF80020D9F80420521EFDD186EA26
:1065C0000302D20708BF4FF0010E002918BF0C606C
:1065D00099F8181071B10124CAF88040D9F8042044
:1065E000521EFDD1CAF80040D9F80420521EFDD138
:1065F0000139F1D10421CAF880114FF08051CAF855
:106600000010000606D541F20400CEF2000000683A
:10661000C9F8080099F80C00002800F0F181002169
:106620008CF80010012100BFCAF88010D9F80420AE
:10663000521EFDD1CAF80010D9F80420521EFDD117
:106640000138F1D1DCE100BF0120CAF88000CAF8AE
:10665000000008F11E0001210438CAF88010CAF8B1
:106660000010CAF88010CAF80010CAF88010CAF8E2
:106670000010CAF88010CAF80010EDD10420CAF842
:1066800080014FF08050CAF8000001215FFA8EF0BF
:106690008CF80010BDE8F0870122CAF88020CAF803
:1066A0000020A8F10307032E12D30126043FCAF8E5
:1066B0008060CAF80060CAF88060CAF80060CAF852
:1066C0008060CAF80060CAF88060CAF80060EDD146
:1066D0000422CAF880214FF08052CAF800200C68CA
:1066E000012162088CF80040CAF88010CAF8001036
:1066F0008CF8002004EB5402A30802EB9402CAF8C1
:10670000801002EBD402CAF8001002EB14128CF8CD
:10671000003002EB5412E30802EB9412CAF8801026
:1067200002EBD412CAF8001002EB14228CF80030ED
:1067300002EB5422230902EB9422CAF8801002EBE8
:10674000D422CAF8001002EB14328CF8003002EBAD
:106750005432630902EB9432CAF8801002EBD4324F
:10676000CAF8001002EB14428CF8003002EB5442DD
:10677000A30902EB9442CAF8801002EBD442CAF893
:1067800000108CF80030E309CAF88010CAF8001035
:106790008CF80030230A02EB1452CAF88010CAF8B1
:1067A00000108CF80030630ACAF88010CAF8001094
:1067B0008CF80030A30A02EB5452CAF88010CAF8D1
:1067C00000108CF80030E30ACAF88010CAF80010F4
:1067D0008CF80030230B02EB9452CAF88010CAF8F0
:1067E00000108CF80030630BCAF88010CAF8001053
:1067F0008CF80030A30B02EBD452CAF88010CAF810
:1068000000108CF80030E30BCAF88010CAF80010B2
:106810008CF80030230C02EB1462CAF88010CAF81E
:1068200000108CF80030630CCAF88010CAF8001011
:106830008CF80030A30C02EB5462CAF88010CAF83E
:1068400000108CF80030E30CCAF88010CAF8001071
:106850008CF80030230D02EB9462CAF88010CAF85D
:1068600000108CF80030630DCAF88010CAF80010D0
:106870008CF80030A30D02EBD462CAF88010CAF87D
:1068800000108CF80030E30DCAF88010CAF8001030
:106890008CF80030230E02EB1472CAF88010CAF88C
:1068A00000108CF80030630ECAF88010CAF800108F
:1068B0008CF80030A30E02EB5472CAF88010CAF8AC
:1068C00000108CF80030E30ECAF88010CAF80010EF
:1068D0008CF80030230F02EB9472CAF88010CAF8CB
:1068E00000108CF80030630FCAF88010CAF800104E
:1068F0008CF80030A30F02EBD472CAF88010CAF8EB
:1069000000108CF80030E30F4FF0010ECAF8801031
:10691000CAF800108CF80030CAF88010CAF80010CD
:106920008CF80020CAF880100006CAF8001026D49F
:106930002CE000BF0121CAF88010CAF80010A8F1AD
:106940000301032C12D301240439CAF88040CAF889
:106950000040CAF88040CAF80040CAF88040CAF82F
:106960000040CAF88040CAF80040EDD10421CAF8BE
:1069700080114FF080510006CAF8001006D541F290
:106980000400CEF200000068C9F8080099F80C2055
:10699000B2B300208CF8000012F00304A2F1010051
:1069A00010D00125012C0146CAF88050CAF80050C9
:1069B00010D0022CCAF88050CAF8005004D1911EA1
:1069C00008E000BF114605E00121CAF88010CAF8AE
:1069D0000010D11E032813D3012000BF0439CAF8C8
:1069E0008000CAF80000CAF88000CAF80000CAF89F
:1069F0008000CAF80000CAF88000CAF80000EDD193
:106A000001215FFA8EF08CF80010BDE8F0870000DD
:106A100070B5002808BF70BD4EF2002340F2642418
:106A200000224FF0040CC4F208034FF0010EC2F232
:106A300000040025002A04BF11F8015B0822EE07BC
:106A40000CBFC3F880C0C3F800C0C3F880E066681C
:106A5000761EFDD1C3F800E066680138761EFDD1D0
:106A60006D080028A2F10102E4D170BD002082214E
:106A700008F08CB8B0B540F2A825C2F20005EA785B
:106A80000C46012A08D1006800F00CF8014618B144
:106A90004FF004102160B0BD002169704FF0041068
:106AA0002160B0BD2DE9F04145F2404440F2A826F6
:106AB000C0F28904C2F200064FF62458A04238BF43
:106AC00004467078C0F20008D8F82850C00710D0EB
:106AD00016200021A847D8F82C008047800708D549
:106AE000D8F824008047F1680844F060192000219C
:106AF000A847012021460127A84728B100242046A5
:106B00003470BDE8F08100BF70783770C10714D0D1
:106B100080070FD4F06840F2E43300F03F016FF3D8
:106B20005F30D8F81820C2F20003C1F140011844C8
:106B30003161904716200121A8472046BDE8F08129
:106B40004FF62452C0F20002926940F2A823C2F22A
:106B5000000319611047000070B540F2A826C2F288
:106B600000060078727800F0010502F0010085420D
:106B70000C4605D100214FF00110217070BD00BFFF
:106B80007DB1B078022805D1707918B1FFF76EFF9A
:106B90000020707100203072F080F0607061F06150
:106BA0003062F078012815D1284600F019F888B134
:106BB000B07875700228DDD140F20420C2F20000E6
:106BC0000068012104F0DCFD00214FF0011021706C
:106BD00070BD00BFFF214FF00110217070BD00009B
:106BE00070B5B8B140F2A820C2F2000001780129C6
:106BF0000DD14FF624540121C0F20004A2690161B5
:106C000040F2E430C2F2000001219047E0B10020E0
:106C100070BD00BF4FF62455C0F20005D5E90A4605
:106C200016200021A047B047800715D5686A804725
:106C300040F2A821C2F20001CA681044C8601920BD
:106C40000021A04708E000BFA26A1620012190475A
:106C500000281CBF002070BD012070BD2DE9F0434D
:106C600081B040F2A826C2F200068046B0790C46F8
:106C700080F0010230447178C379B27143EA0109AE
:106C800000220129C27113D1F078012824D10120FA
:106C9000002500BF3571F16872690128A1EB020778
:106CA00002D100F05BF90744307920B1F078F1E7C8
:106CB000F0687169471AB0785FFA89F1012828D124
:106CC000B8F80050B5F5FE7F28BF4FF4FE75AF420F
:106CD00098BF3D461EE000BF002000BF3071F16844
:106CE000726933797BB13071F1687269337953B16C
:106CF0003071F168726933792BB13071F168726962
:106D00003379002BEAD18F1AB0785FFA89F1012824
:106D1000D6D000252170290A01286570A17075D18F
:106D2000D6F81480002D55D040F2E43115F003035D
:106D3000A5F1010EC2F200010ED040466FF35F30A4
:106D4000421C085C012BE0700ED104F1040C734668
:106D5000BEF1030F23D23DE004F1030C42462B4663
:106D6000BEF1030F1BD235E06FF35F32885C571C16
:106D7000022B207108D104F1050CAB1E3A46BEF17E
:106D8000030F0CD226E000BF6FF35F37C85D7A1C9B
:106D900004F1060C6071EB1EBEF1030F1AD3ACF1C7
:106DA000040700BF10466FF35F30085C541C07F8FF
:106DB000040F6FF35F34085D941C78706FF35F34D9
:106DC000085DD41CB8706FF35F34085D621C043B2F
:106DD000F870E7D108EB050070617078032815D1D1
:106DE000F06871690022411AB2EB513F0ED1F1787F
:106DF00001290BD10121717040F2E4316FF35F3052
:106E0000C2F2000108440121FFF79AFEE81C40F499
:106E1000003001B0BDE8F0832DE9F04790F800A004
:106E200088464FF000095FEACA700E460AD15FEA51
:106E30008A701ED45FEA4A7060D409F58030BDE8DC
:106E4000F08700BF40F2A820C2F2000081794278AA
:106E500081F001030144CF79837147EA020046467D
:106E600081F8079006F8010B4FF001095FEA8A707C
:106E7000E0D540F2A824C2F200046078012813D1C2
:106E8000E078012814D10120002500BF2571E168B8
:106E900062690128A1EB020702D100F05FF8074404
:106EA0002079E8B1E078F1E7E0686169471A17E016
:106EB000002000BF2071E168626923797BB12071F5
:106EC000E1686269237953B12071E16862692379CD
:106ED0002BB12071E16862692379002BEAD18F1A06
:106EE000380A08F809707070380CB070380EF070FD
:106EF000043609F104095FEA4A709ED540F2A821E0
:106F0000C2F20001002200BF0A71CB69086A0F7942
:106F10007FB10A71CB69086A0F7957B10A71CB69E1
:106F2000086A0F792FB10A71CB69086A0F79002FAF
:106F3000EAD1190A7170190CB170190EF170010AB9
:106F400030717171010C000E09F104093370B171D7
:106F5000F07109F58030BDE8F087000010B54FF6FC
:106F60002454C0F20004E06A804780075CBF002020
:106F700010BD606ABDE8104000470000F0B581B068
:106F800040F2A825C2F20005EA780778012A0C46EB
:106F900004BF002000F01AF84FF0000667B1012F7F
:106FA00006D10120012700F011F808B1002105E009
:106FB000FF21002702E000BF00270021EF706E7064
:106FC0004FF00110217001B0F0BD000070B540F22B
:106FD000A8220021C2F200021170C8B14FF6245459
:106FE000C0F20004A16848F2F960C0F200008847CE
:106FF00000281CBF002070BD21690220884700289E
:1070000004BF012070BDE0688047002070BD00BF54
:107010004FF62450C0F20000866AD0E903451620DE
:107020000021B04719200021B0470020A847A04701
:10703000012070BD0B4602460020822107F0D6BD1C
:107040002DE9F04381B040F2A827C2F200070446C0
:10705000B87997F8019080F00101384490F80780E2
:10706000B9710021B9F1010FC17113D1F87801286C
:1070700014D10120002500BF3D71F9687A6901280B
:10708000A1EB020602D1FFF769FF06443879E8B1A7
:10709000F878F1E7F8687969461A17E0002000BF30
:1070A0003871F9687A693B797BB13871F9687A6926
:1070B0003B7953B13871F9687A693B792BB13871F2
:1070C000F9687A693B79002BEAD18E1A48EA0900FF
:1070D0002070300AA070300C310E6670E070052010
:1070E000217101B0BDE8F08340F2A82540F2E43AF6
:1070F0004FF0FF344FF001080027C2F20005C2F242
:10710000000A15E0696908466FF35F30C0F5005268
:10711000964288BF164619F1020218BFBBF1000F54
:1071200048D150443146AE6185F80580FFF782FFB3
:1071300001200021224604F04FFB69786A7911F0A2
:10714000010B4FF0320408BF4FF0FF34002AEFD19B
:107150008146012928D1E87801280FD1012000BFFC
:107160002F71E9686A690128A1EB020602D1FFF7D5
:10717000F5FE06442879D0B1E878F1E72F71E86888
:1071800069692A7992B12F71E86869692A796AB1C7
:107190002F71E86869692A7942B12F71E8686969D5
:1071A0002A79002AEAD101E0E8686969461A002EC6
:1071B000A8D1BDE76FF35F2131B1C1F500718E42F7
:1071C0000E46B5D3ADE700BF16F47856A9D1AFE7A8
:1071D00080B540F2A820C2F20000816942691144E2
:1071E0000022416142714178032914D1C168436989
:1071F000CB1AB2EB533F0ED1C278012A0BD1012238
:10720000427040F2E4306FF35F31C2F20000084494
:107210000121FFF795FC40F20420C2F20000006853
:107220000121BDE8804004F0ABBA000040F2A82282
:10723000C2F200025378DB070AD1007802289ABF15
:1072400090700022FF224FF001100A70704700BFBB
:10725000FF224FF001100A707047B0B500F10C0129
:10726000C289D1E85F3F9A4202D8BFF32F8F04E072
:107270005C1CC1E8554F05B1F3E799B2C289002003
:10728000914238BF0120B0BD60B169B172B10068F0
:1072900070B10378012B0ABF0C3043F2215000F08B
:1072A00009B87047FEE700BFFEE700BFFEE700BF7A
:1072B000FEE7000030B139B1002A18BFFCF7F0BE7C
:1072C000FEE700BFFEE700BFFEE700002DE9F04F3C
:1072D0008BB00C46002101910DF10B019A46154629
:1072E000013901AF0091461C00F1020916F8012C8A
:1072F000002A00F08D8200BF252A0BD0284639468F
:107300000123D047013609F1010916F8012C002AA2
:10731000F2D17DE2B04618F801094FF0000BA0F160
:107320003001092948D800BF0BEB8B0100EB41016C
:1073300099F80000A1F1300BA0F130020A2A2FD2F7
:107340000BEB8B0100EB410199F80100A1F1300B2F
:10735000A0F13002092A2BD80BEB8B0100EB410185
:1073600099F80200A1F1300BA0F13002092A41D8AE
:107370000BEB8B0100EB410199F80300A1F1300BFD
:10738000A0F130010A2909F10409CDD3A9F10208BD
:10739000A9F101060DF10B092E2837D110E000BF2D
:1073A000A9F101084E460DF10B092E282ED107E058
:1073B00009F10106C84600BF0DF10B092E2825D1A1
:1073C000707830380A280FD2B078303809280DD8B4
:1073D000F0783038092817D816F8040F30380A2802
:1073E000EED3A6F1010811E0B0460FE006F1010866
:1073F0000CE000BF09F1010809F102060DF10B09CB
:107400002E2803D1DCE700BF06F1020898F801201E
:1074100002F0FB0068281BD198F8022002F0FB0064
:10742000682813D198F8032002F0FB00682840F088
:107430005D8018F8042F02F0FB006828E6D0A8F160
:107440000108A2F14600322807D911E108F101082C
:10745000A2F14600322800F20B81DFE810F04F0065
:1074600009010901090109010901090109010901CC
:1074700009010901090109010901090109010901BC
:10748000090159000901090109010901090109015D
:10749000090109010901330007019F0009014F009B
:1074A000090109019F0009010901090109010901F7
:1074B00033003300090109010F01090133000901FB
:1074C0000901590054F8041B702A00F0F5806F2A56
:1074D00000F03281622A14BF0A20022000294FF0F6
:1074E00000028DF80B2040F0EE802CE108F102083C
:1074F000A2F1460032287FF6B0AFB9E0E01D20F0DF
:10750000070000F1080401AF08F10200EBE600BF3C
:1075100054F8040B002100288DF80B1000F018819E
:1075200037270126782A08BF572700BF00F00F022F
:107530000A2A3B4638BF30231A44102809F806208F
:10754000C0F03181C0F3031339460A2B38BF302114
:1075500009EB06021944B0F5807F5170C0F020811C
:10756000C0F303213B460A2938BF30231944B0F544
:10757000805F9170C0F01681C0F303313B460A2949
:1075800038BF3023B0F5803F4FEA1040194406F170
:107590000406D170CAD2013E05E100BF54F8040BC5
:1075A000002100288DF80B1000F0D880012600BFC4
:1075B0004CF6CD41CCF6CC41A0FB0112D10801EB39
:1075C00081023723524200EB42020A2A38BF30239D
:1075D0001A440A2809F80620C0F0FF8048F21F521A
:1075E000C5F2EB12A0FB02235B0903EB83023727F2
:1075F000524201EB420209EB06010A2A38BF30274A
:107600003A4464284A70C0F0E58044F6D352C1F28F
:107610006202A0FB0227BA0902EB82077F4203EB5A
:10762000470337270A2B38BF30273B44B0F57A7F12
:107630008B70C0F0D18041F25973CDF2B713A0FB2B
:1076400003377B0B03EB830704367F4202EB4702D1
:1076500037270A2A38BF30273A44CA7042F21071DD
:1076600088421846A4D2013EB7E000BF14F8042BAC
:1076700001AF284639460123D047C5E054F8046BD2
:10768000002E3FF440AF3046F8F79FFF01AFABEB61
:107690000003284639462022D0473078002800F0E1
:1076A000B380013EC2B2284639460123D047B078A4
:1076B00001360028F6D1A7E0102000294FF0000283
:1076C0008DF80B203FD0A446012600BFB1FBF0F39C
:1076D000372703FB10120A2A38BF30273A44814269
:1076E00009F8062043D3B3FBF0F1372401FB103730
:1076F00009EB06020A2F38BF302427448342577013
:1077000032D3B1FBF0F3372403FB10170A2F38BF35
:10771000302427448142977028D3B3FBF0F13724FB
:1077200001FB103704360A2F38BF30242744834228
:10773000D770CBD2013E1AE0082000294FF000029A
:107740008DF80B20BFD130208DF80C0001260FE002
:1077500030208DF80C00012625E000BF30208DF888
:107760000C00012639E000BF013600E00236644615
:1077700001AFABEB0603284639462022D04719F863
:107780000600002840D000990E4400BFC2B228462F
:1077900039460123D04716F801090028F6D133E015
:1077A000013600E0023601AFABEB0603284639464E
:1077B0002022D04719F8060030B300990E4400BFCC
:1077C000C2B2284639460123D04716F801090028DD
:1077D000F6D119E0013600E0023601AFABEB06034B
:1077E000284639462022D04719F8060060B1009992
:1077F0000E4400BFC2B2284639460123D04716F8CE
:1078000001090028F6D100BF08F102006BE500BFB6
:1078100001980BB0BDE8F08F70B540F260554FF69F
:107820002450C4F20005CFF6FF70285800F007007E
:1078300003281FD8DFE800F002203C584FF6205004
:10784000CFF6FF70285800F00700022864D0012806
:1078500000F06C80002840F0778043F21000C4F202
:107860000100006841F600314004C0F2B70101EAAE
:10787000E07073E1002071E14FF63050CFF6FF70F9
:10788000285800F00700032800F2E280DFE800F04B
:10789000029A6AA843F21000C4F20100006841F69F
:1078A00000314004C0F2B70101EAE070D1E000BF4E
:1078B0004FF63450CFF6FF70285800F00700032829
:1078C00000F2A480DFE800F00258667043F2100076
:1078D000C4F20100006841F600314004C0F2B70173
:1078E00001EAE07093E000BFB820C4F20200016832
:1078F000490607D450F8201CC90703D14FF40040B3
:107900002CE100BF0168090604D450F8200CC00324
:1079100080B223E1002021E1D5F8B80444F24021EF
:107920004006C0F20F0101EAE07017E143F21000D7
:10793000C4F20100006942F20041C001C0F2F4014A
:1079400001EAE0700AE100BF43F21000C4F2010056
:1079500000684DF600014000C0F2B85101EAE07045
:10796000FCE000BFD5F8B80444F240214006C0F264
:107970000F0101EAE0706CE043F21000C4F2010074
:10798000006942F20041C001C0F2F40101EAE07076
:107990003DE000BFD5F8B80444F240214006C0F2F3
:1079A0000F0101EAE07032E0B820C4F20200016881
:1079B000490623D450F8201CC9071FD14FF40040BA
:1079C00025E000BF43F21000C4F20100006942F25A
:1079D0000041C001C0F2F40101EAE07039E000BFEB
:1079E000B820C4F202000168490629D450F8201CCE
:1079F000C90725D14FF400402BE000BF01680906FC
:107A000004D450F8200CC00380B200E000202968A4
:107A1000090400F1A3802968890240F19F80B82100
:107A2000C4F202010968490500F198802968090338
:107A30002AD4A968C9B2002908BF012125E000BFE6
:107A40000168090604D450F8200CC00380B200E09D
:107A50000020296A090400F18180296A89027DD504
:107A6000B821C4F202010A6892055CBF09685FEAA6
:107A7000012173D4296A090326D4A96AC9B200294D
:107A800008BF012121E000BF01212A68D2020DD4E4
:107A90002B682E693E2406F01F02DB0358BF04EA60
:107AA0004602002A08BF022201E000BF0122EB6863
:107AB000B0FBF1F09BB2002B08BF0123A3FB000138
:107AC0000023F8F72DFD49E001212A6AD2020DD4E6
:107AD0002A6AEB6A3E2603F01F04D20358BF06EA67
:107AE0004304002C08BF022401E000BF0124B0FBC6
:107AF000F1F6696B686BC90016D4296B2A6B490EC5
:107B000022F07E4200EE102A9FED1C1AB8EE400AC9
:107B100060F3C71120EE010A01EE101AB8EE411A07
:107B200030EE010A06E000BFC0F38F2000EE100A1D
:107B3000B8EE400AB5EE400AB7EE001AF1EE10FAC0
:107B400001FE000A10EE100AF8F74FFDA0FB060236
:107B500001FB062122460023F8F7E2FC4FF62061E4
:107B6000CFF6FF716958012252FA81F1B0FBF1F0B2
:107B700040F22801C2F20001086070BD000000332D
:107B80004EF68850CEF20000016840F6034241F400
:107B900070010160016841F00F010160416811430B
:107BA000416040F20001C0F2000140F8801C40F248
:107BB0002020C4F200000021C0F8E8107821016004
:107BC000AFF30080704710B5930712D400F128037B
:107BD000D00715D153E8000F084203D1BFF32F8F10
:107BE000002005E020EA010243E8002404B1F1E7A7
:107BF00010BD806AD20700EA010312D1A3B912E0D6
:107C000053E8000F00EA01028A4203D0BFF32F8F2E
:107C1000002005E020EA010243E8002404B1EFE778
:107C200010BD8B4200D0002010BD0000B0B5104A3E
:107C30000023443215462C683CB12569A94209D37A
:107C4000491B04F10C052346F5E700240161C0E956
:107C5000023406E001612569C0E90234691AA060B6
:107C60002161002B18BF03F10C021060B0BD00BFF2
:107C700030000020B0B540F22C25C2F20005297872
:107C8000002918BFB0BD0446C00715D047F6707173
:107C9000C2F2000100204FF4007204F0E7FB01285B
:107CA0000ADB01464FF6EC40C0F20000426947F69D
:107CB0007070C2F200009047A00701D4B0BD00BFB1
:107CC000E8684FF4007100F500724FF6EC40C0F226
:107CD0000000836947F67050C2F20000EA60BDE818
:107CE000B0401847B0B540F22C02C2F20002127840
:107CF0000C46022A20D10178D0F801504FF6EC4012
:107D0000C0F20000826A41F0010029469047B8B1F4
:107D100000F10B0240F2CC200021C2F20000032A45
:107D2000017017D80020DFE802F003191D1F00BF03
:107D30000421284618E000BF0020072114E000BFFE
:107D400040F2CC20C2F2000001210170002128463F
:107D50000AE000BF0020072106E000BF02212846FC
:107D600002E000BF012128462170010AA170010C28
:107D70006070E170010E4FF005102171B0BD000080
:107D80002DE9F04381B040F22C02C2F200021278D9
:107D90008946022A06D10578A80705D4E8071BD131
:107DA00000263DE0FF2695E040F2CC28C2F2000814
:107DB00098F803000026012832D14FF6EC40C0F2BB
:107DC0000000876A16200021B84719200021B84713
:107DD00088F8036024E000BF40F2CC27C2F200071D
:107DE000387801281BD1F8780026C8B9BE60FE603B
:107DF000B8684FF6EC4244F26441C0F200026FF3FF
:107E00009F20C2F2000193690844966A2021984796
:107E1000162001214FF00108B04700287AD0FF2634
:107E200068071ED54FF6EC48C0F20008D8F82820A5
:107E3000192000210027904740F2CC20C2F2000018
:107E40008760C760C17801290BD1806844F2644122
:107E50006FF39F20D8F81820C2F2000108442021B7
:107E60009047A8061CD4E80632D540F2CC27C2F2CF
:107E700000073878012811D1387948BB4FF6EC411A
:107E8000C0F2000100208A6AB87038617861B86178
:107E9000152001214FF001089047B8B1FF2617E0E7
:107EA00040F2CC27C2F200073879012810D14FF6F2
:107EB000EC40C0F20000846A182000214FF0000856
:107EC000A04715200021A04787F8028087F804808A
:107ED000680607D44FF0011089F8006001B0BDE8D2
:107EE000F08300BF4FF6EC40C0F20000826A182019
:107EF00000210024904740F2CC20C2F200008470A0
:107F00000461446184614FF0011089F8006001B0A0
:107F1000BDE8F08387F8038042E700002DE9F041D7
:107F200040F22C01C2F200010978044602294FF008
:107F300000083BD140F2CC27C2F200073878012874
:107F400038D14FF6EC45C0F20005B868F9686A6AA6
:107F5000461A90470644B6F5707F07D9012078701D
:107F6000B8684FF47076A0F57070F8603869796978
:107F70002A6A451A90477A78BB78F978002B18BF9F
:107F80002D1A002A1EBF002078700231787900284F
:107F90001EBF002078710431B87900281EBF002070
:107FA000B8710831387960F3041106E00026002525
:107FB000002102E0002600250021300AA070280AD6
:107FC000A071280C2170E071290E09206670A4F8B8
:107FD000038065712172BDE8F08100002DE9F04F4A
:107FE00081B040F22C02C2F2000212788946022AC5
:107FF0003AD140F2CC2AC2F2000A80460588DAF86B
:108000000800DAF80C104FF6EC4BC0F2000B461AE1
:10801000DBF82400B5F5FD7F28BF4FF4FD758047E0
:108020003044B0F5707F0AD901208AF80100DAF8EF
:108030000800A0F57070CAF80C004FF47070DAF800
:108040000C10854288BF05466FF39F214819B0F593
:10805000806F09F105070BD844F26440C2F20000BA
:10806000014438462A4611E000260025002098E009
:1080700044F26444C1F58066C2F2000421443846EB
:108080003246F8F77EFAB819AA1B2146F8F779FAB2
:10809000DAF80C002844CAF80C00B8F80270DBF8D3
:1080A0002000DAF81060DAF8144008F10408B7F597
:1080B000FD7F88BF40F2FB1780479AF802B0A11BF2
:1080C00001F58066BBF1000F18BF0644DAF8100016
:1080D000B74298BF3E466FF39F203118B1F5806FCD
:1080E00008D844F66401C2F2000108444146324611
:1080F0000FE000BF44F66404C0F58067C2F20004DC
:10810000204441463A46F8F73CFA08EB0701F21BD7
:108110002046F8F736FADAF81000BBF1000F3044C9
:10812000CAF810001FD1DAF81000DAF81410411A5A
:10813000DAF8140017D06FF39F204218B2F5806F61
:1081400088BFC0F5806101228AF802204FF6EC4218
:10815000C0F2000244F664035269C2F200031844FC
:10816000CAF8181090479AF801109AF803000029ED
:108170001EBF00218AF8011002309AF8051000296C
:108180001EBF00218AF8051004309AF80610002955
:108190001EBF00218AF8061008309AF8041061F317
:1081A000041089F80000300A89F80200301D691DAA
:1081B00041EA0040290A89F8016089F8035089F8EA
:1081C000041001B0BDE8F08F2DE9F04700780C46AF
:1081D000022817D0012841D0002840F0028140F247
:1081E0002C06C2F20006307802284BD0012800F09D
:1081F000818000280CBF0025FF254FF0011025705D
:10820000BDE8F08740F22C05C2F20005287802286C
:1082100000F0A180012877D0002840F0E28040F2F1
:10822000CC204FF6EC46C2F200000021C0F200065E
:108230000170017141804170417181710161416141
:108240008160C160B268816148F2A570C0F200002F
:108250009047002840F0C58076E000BF40F22C0532
:10826000C2F20005287802287CD0012873D00028AB
:1082700040F0B7800120012602F0CCFA002840F03F
:10828000B08067E040F2CC2AC2F2000A9AF80300FC
:108290004FF6EC480128C0F200080BD1D8F828505E
:1082A000162000214FF00009A84719200021A847F7
:1082B0008AF803909AF8040001280DD1D8F82850C4
:1082C000182000214FF00009A84715200021A847D9
:1082D0008AF802908AF80490D8E9037100250020FA
:1082E0008AF800508847B84735704FF00110257064
:1082F000BDE8F0870020002502F08CFA35704FF0C1
:1083000001102570BDE8F0870020002702F082FAF6
:1083100040F2CC204FF6EC46C2F20000C0F200065C
:108320002F70077007714780477047718771076129
:1083300047618760C760B168876148F2A570C0F285
:108340000000884700284CD1316902200226884766
:10835000002846D12E7000254FF001102570BDE891
:10836000F08700BF40F2CC29C2F2000999F803005F
:1083700001280ED14FF6EC40C0F20000876A1620AB
:1083800000214FF00008B84719200021B84789F8AC
:10839000038099F80400012810D14FF6EC40C0F298
:1083A0000000876A182000214FF00008B847152008
:1083B0000021B84789F8028089F804804FF6EC4024
:1083C000C0F20000D0E903610027002089F80070A6
:1083D0008847B04701202F70012602F01BFA0028C1
:1083E000B8D0FF254FF001102570BDE8F0870000E0
:1083F00040F23012C2F2000200F05EBAB0B582B0B4
:1084000040F23015C2F200052868A968006801AC86
:10841000224600F007FEA968062808BF01F10C04F7
:10842000206802B0B0BD000080B540F23010C2F24A
:1084300000000168806809682023896890F81CE0C2
:1084400090F81DC0102000EA911003EA1123402289
:1084500002EA112118440844BEF1010F08BF01309F
:10846000BCF1030F08BF023080BD0000B0B582B080
:1084700040F23015C2F200052868A968006801AC16
:10848000224600F007FEA968062808BF01F1100483
:10849000206802B0B0BD000040F23011C2F200010D
:1084A0000A7ED20702D14861012008760020704779
:1084B00040F23011C2F2000100F09ABA80B582B0E9
:1084C00040F23012C2F200021368D2F808C01B68F2
:1084D000CDE900016A461846614600F013FE58B126
:1084E00041F2456188420BD0042814BF4FF0FF30A1
:1084F0006FF0040002B080BD002002B080BD00BF5C
:108500006FF0010002B080BD80B582B040F2301241
:10851000C2F200021368D2F808C01B68CDE900015E
:108520006A461846614600F097FE58B141F2446130
:1085300088420BD0042814BF4FF0FF306FF00400C6
:1085400002B080BD002002B080BD00BF6FF001000E
:1085500002B080BD4FF0FF307047000040F2301293
:108560000021C2F200020020117670470020F8F7C7
:1085700029BB000040F24C12C2F2000200F09CB98C
:10858000B0B582B040F24C15C2F200052868A96867
:10859000006801AC224600F045FDA968062808BF26
:1085A00001F10C04206802B0B0BD000080B540F2BB
:1085B0004C10C2F2000001688068096820238968B5
:1085C00090F81CE090F81DC0102000EA911003EA1A
:1085D0001123402202EA112118440844BEF1010F80
:1085E00008BF0130BCF1030F08BF023080BD00009E
:1085F000B0B582B040F24C15C2F200052868A968F7
:10860000006801AC224600F045FDA968062808BFB5
:1086100001F11004206802B0B0BD000040F24C111E
:10862000C2F200010A7ED20702D148610120087619
:108630000020704740F24C11C2F2000100F0D8B99E
:1086400080B582B040F24C12C2F200021368D2F838
:1086500008C01B68CDE900016A461846614600F073
:1086600051FD58B141F2456188420BD0042814BF36
:108670004FF0FF306FF0040002B080BD002002B068
:1086800080BD00BF6FF0010002B080BD80B582B038
:1086900040F24C12C2F200021368D2F808C01B6804
:1086A000CDE900016A461846614600F0D5FD58B193
:1086B00041F2446188420BD0042814BF4FF0FF30D0
:1086C0006FF0040002B080BD002002B080BD00BF8A
:1086D0006FF0010002B080BD4FF0FF307047000026
:1086E00040F24C120021C2F20002002011767047C5
:1086F0000320F8F767BA0000F0B581B040F2A82572
:1087000004468007C2F2000539D541F20400CEF2DA
:108710000000006828626E69E8682969084400F072
:108720003F01871B01F5FE529742E860E86103D9DB
:108730000320687010E000BF4FF62452C0F2000220
:1087400040F2E4336FF35F309269C2F20003C1F18B
:10875000400118442961904701202871A878022817
:108760000DD16FF35F26C6F50070874207D340F244
:108770000420C2F200000068012103F001F8A00605
:1087800005D5A8792844C17941F08001C17114F45C
:10879000607F05D0A8792844C17941F04001C171BA
:1087A00001B0F0BD10B50446C00724D040F2CC2083
:1087B000C2F2000041698269114441610021817067
:1087C00001694269891A426915D06FF39F225318D3
:1087D000B3F5806F88BFC2F580610123816183702A
:1087E0004FF6EC40C0F20000436944F66400C2F268
:1087F000000010449847A00714D4A0062AD4E0052E
:1088000005D540F2CC20C2F2000001214171A00543
:1088100058BF10BD40F2CC20C2F20000012181718E
:1088200010BD00BF40F2CC20C2F2000081682031B0
:1088300081604FF6EC418068C0F200018A6944F221
:1088400064416FF39F20C2F2000108442021904749
:10885000A006D4D540F2CC20C2F200000121417024
:10886000E005D4D5CDE70000D0B18168090709D46F
:10887000816809075CBF81685FEA017102D4816881
:108880000907F2D50F21C0F8141ED0F8001E21F4FC
:108890004051C0F8001E016821F0010101607047DD
:1088A00040F2EC0040F2E001C0F20100C0F2010130
:1088B0004FF48C7202F004F82DE9F04186B01446B2
:1088C000127E0E4691075EBF4FF0FF3006B0BDE846
:1088D000F081054610F4702F04D06FF0030006B04D
:1088E000BDE8F081EFB2192F14D0182F26D12068DF
:1088F000A1680068D0F8002E22F48052C0F8002E43
:108900004869FAF7F3FAA1680020087706B0BDE8D5
:10891000F08100BF2068A1680068D0F8002E22F422
:108920000052C0F8002E8869FAF7E0FAA068022128
:108930004177002006B0BDE8F08100BFD4F8008088
:1089400001A800F0E5F8012F04D0162F18BF152F4D
:10895000EFD0C2E715F4405001960FD0B0F5005F9C
:108960000AD0B0F5805F1EBF6FF0090006B0BDE809
:10897000F081022003E000BF032000E0002015F496
:1089800040418DF8080005D0B1F5804F2AD1012073
:108990008DF80900207E400707D5D8F80000FFF7C2
:1089A00063FF207E00F0FB00207640F20110ADF85E
:1089B0000C00D8E900508047024601A9284600F083
:1089C000EDF841F25161884202BF6FF0070006B036
:1089D000BDE8F081207E40F004002076002006B043
:1089E000BDE8F0816FF00A0006B0BDE8F08100003C
:1089F000B0B588B002280C4620D0002868D1207E6F
:108A0000800718D520680068FFF72EFF6068C268ED
:108A1000172A65D2836801219D6A01FA02F22A436E
:108A20009A624268172A5BD2006801FA02F2836AEE
:108A30001A4382622176002008B0B0BD207E002853
:108A40004AD08007F7D403A800F062F840F2011082
:108A50006268ADF814005368172B4DD215684FF0BB
:108A6000010C9168286A0CFA03F318432862D36852
:108A7000172B41D2086A0CFA03F318430862E06826
:108A8000D268FAF7AFFB62682069D2E90012FAF700
:108A9000A9FB2068D0E900508047024603A9284678
:108AA00000F07CF82068D4E90215D4E904230068BA
:108AB000009245F23122C0F20002019500F006FA60
:108AC000207E40F006002076002008B0B0BD00BF38
:108AD0006FF0030008B0B0BD4FF0FF3008B0B0BD7C
:108AE00040F2F90040F23711C0F20100C0F201017A
:108AF0004FF4D67201F0E4FE40F2F90040F2371173
:108B0000C0F20100C0F201014FF4D07201F0D8FEB2
:108B100090B100214FF4E132C0E900210122C0E907
:108B20000211016181808271C0F80710C0F80B103A
:108B3000A0F80F10704700BF40F2E00103A0C0F2A0
:108B4000010140F2351201F0BBFE00BF4E554C4C06
:108B500020213D20636F6E6669670000A0F18040B0
:108B6000A0F506204FEA303012280CD81F21C0F2A1
:108B70000701C140C9071FBF4FF67C41C0F2000189
:108B800051F82000704740F2B60040F2E001C0F218
:108B90000100C0F20101482201F092FEB0B50028A8
:108BA00000F094800D46002900F09080002A00F02B
:108BB0008D8001210446FBF75FF808B1B0BD00BF0E
:108BC000687AD0B1D4F8000E40F00110C4F8000E5D
:108BD000D4F8080E20F47060C4F8080E687BD4F84E
:108BE000081E00F00F0041EA0020C4F8080ED4F877
:108BF000080E40F00100C4F8080E287AD0B1D4F86D
:108C0000000E40F00210C4F8000ED4F8080E20F454
:108C10007020C4F8080EA87BD4F8081E00F00F00DE
:108C200041EA0040C4F8080ED4F8080E40F00200F3
:108C3000C4F8080E6979402295F804C0AB7902EABD
:108C4000811103F0030E6CF30511E87941EA8E01FE
:108C5000EB7B41EAC03003F0020240EA822003F0DD
:108C60000103297C40EA833001F00101EA7A40EAFD
:108C70000130297B40EAC21040EA412040F0010067
:108C80002060296872B14FF41650B0FBF1F000FB80
:108C900001F1B1F5165F1CBF41F25160B0BD206219
:108CA00006E000BF204600F039F8002818BFB0BD2C
:108CB000A97A606821B140F4807060600020B0BD86
:108CC00020F4807060600020B0BD00BF40F2E00181
:108CD00002A0C0F20101CB2201F0F2FD2128284EB2
:108CE000554C4C203D3D206261736529207C7C20E1
:108CF000284E554C4C203D3D20636F6E66696729B8
:108D0000207C7C20283055203D3D20737263436CCD
:108D10006F636B5F487A2929000000002DE9F0415C
:108D20000E460446FAF73CFF0546F7F763FF46F6A2
:108D30000041C0F2DC21884240F0B1800020CCF23A
:108D4000C0602D2132460023F7F7EAFBB0F5A04FB3
:108D5000C0F0A5800646000520D0B6F5883F0DD3AB
:108D6000370C3002310E3A010023F7F7D9FB000B24
:108D700040EA01524FF0100878E000BF300B40EAA3
:108D800001583002310E5FFA88F20023F7F7C8FB72
:108D9000000B40EA0152012768E000BF4FF6F07077
:108DA000064243D048F68900C8F68800A6FB0002B8
:108DB000D00802053ED042F293427008C9F249221F
:108DC000A0FB02029008020538D04EF64F40C4F6D0
:108DD000C460A6FB00029008020533D04AF6AB201F
:108DE000CAF6AA20A6FB0002D00802052ED048F63B
:108DF000A330CBF62E20A6FB0002D008020529D016
:108E00004CF6CD40CCF6CC40A6FB0002D0080205C3
:108E100024D048F63960C3F6E300A6FB00025008F0
:108E200002059AD14FF009081AE000BF30094FF04F
:108E3000100815E04FF00F0812E000BF4FF00E08C9
:108E40000EE000BF4FF00D080AE000BF4FF00C0825
:108E500006E000BF4FF00B0802E000BF4FF00A0829
:108E60000022B2EB103F3FF478AF070B5FFA88F0B7
:108E700007FB00F0D1B200FB01F24FF6F073C0F235
:108E8000FF0303EA021202EB0030321A38BF821BE2
:108E9000642002FB00F0B0FBF6F0032804D941F295
:108EA0005160BDE8F08100BF05F10800C0B20022AA
:108EB0000025F7F715FF4FF0FF3050FA88F0A06259
:108EC000781E20622846BDE8F08100002DE9F04FB1
:108ED00081B0002854D00F46002959D0DDE90A9806
:108EE0009A4693460446FFF739FE47F6B801054611
:108EF000C2F20001002001EBC506C7E90000C7E986
:108F00000200C7E90400C7E9060041F83540022124
:108F10007760797748F6CD713877C0F20001204646
:108F20003A46C7E901BAC7E90598FAF759FF1CA004
:108F30004057012200F01F0102FA01F14EF2001227
:108F40004009CEF2000242F82010B9F1000F07D01C
:108F500049F25131C0F2000148463246FAF726FB89
:108F6000B8F1000F07D049F2FD11C0F200014046F0
:108F70003246FAF71BFB002001B0BDE8F08F00BFBE
:108F800040F26F710DA0C0F20101812201F098FC46
:108F900040F26F7104A0C0F20101872201F090FC41
:108FA0000E0F10111213141521284E554C4C203D54
:108FB0003D2068616E646C652900000021284E55D3
:108FC0004C4C203D3D2062617365290070B169B150
:108FD00000220A7708220261D1F804C0BCF1000F18
:108FE00008BF70478B6841F24662604740F26F717C
:108FF00003A0C0F2010140F27B1201F061FC00BF4E
:10900000284E554C4C20213D206261736529202655
:109010002620284E554C4C20213D2068616E646C02
:1090200065290000B0B589B114468A69D2B12CB364
:10903000487F022804BF0620B0BDCD689068117B30
:10904000FAF726F9281A20600020B0BD40F25A50E5
:1090500040F26F71C0F20100C0F201014FF4A7723B
:1090600001F02EFC40F2B37040F26F71C0F20100CB
:10907000C0F2010140F24F1201F022FC40F2EB700D
:1090800040F26F71C0F20100C0F201014FF4A8720A
:1090900001F016FCB0B589B114464A69D2B12CB3BF
:1090A000087F002804BF0620B0BD0D699068117BC1
:1090B000FAF7EEF8281A20600020B0BD40F25A50AE
:1090C00040F26F71C0F20100C0F201014FF4B572BD
:1090D00001F0F6FB40F2CF7040F26F71C0F2010078
:1090E000C0F2010140F26B1201F0EAFB40F2EB70BA
:1090F00040F26F71C0F20100C0F201014FF4B6728C
:1091000001F0DEFB70B58AB091B30C468969D9B322
:10911000002A41D0116800294AD05368002B53D04F
:10912000617F032904D141F2456528460AB070BD2C
:1091300003216177E360D0F8001E03AE41F40051D3
:10914000C0F8001E126800F5636101200025CDE91A
:109150000030304601230295FAF770F9A0693146D4
:10916000FAF76AFAA069FAF737FA28460AB070BD2A
:1091700040F2307040F26F71C0F20100C0F20101A4
:10918000F72201F09DFB00BF40F26F7114A0C0F206
:109190000101F82201F094FB40F24D7040F26F7132
:1091A000C0F20100C0F20101F92201F089FB00BF09
:1091B00040F21D7040F26F71C0F20100C0F2010177
:1091C000FA2201F07DFB00BF40F25A7040F26F714D
:1091D000C0F20100C0F20101FB2201F071FB00BFEF
:1091E00068616E646C652D3E7278446D6148616E95
:1091F000646C6520213D204E554C4C00A0B1F9B166
:10920000D1E90001D0F8002E22F40052C0F8002E5F
:1092100002224A77D1F804C0BCF1000F08BF7047A2
:109220008B6841F24762604740F2307040F26F71E4
:10923000C0F20100C0F201015D2201F041FB00BF5C
:1092400040F23F7040F26F71C0F20100C0F20101C4
:109250005E2201F035FB000070B58AB091B30C4678
:109260004969D9B3002A41D0116800294AD053680E
:10927000002B53D0217F012904D141F244652846B7
:109280000AB070BD012121772361D0F8001E03AE22
:1092900041F48051C0F8001E116800F5626202209E
:1092A0000025CDE90030304601230295FAF7C6F8D3
:1092B00060693146FAF7C0F96069FAF78DF9284616
:1092C0000AB070BD40F2307040F26F71C0F2010020
:1092D000C0F20101C32201F0F3FA00BF40F26F7146
:1092E00014A0C0F20101C42201F0EAFA40F24D706C
:1092F00040F26F71C0F20100C0F20101C52201F01D
:10930000DFFA00BF40F21D7040F26F71C0F2010041
:10931000C0F20101C62201F0D3FA00BF40F25A7038
:1093200040F26F71C0F20100C0F20101C72201F0EA
:10933000C7FA00BF68616E646C652D3E7478446D39
:109340006148616E646C6520213D204E554C4C0097
:1093500050B1A9B10868D0F8001E21F48051C0F8BE
:10936000001E0821C160704740F2307040F26F71FA
:10937000C0F20100C0F201014F2201F0A1FA00BFCA
:1093800040F23F7040F26F71C0F20100C0F2010183
:10939000502201F095FA000070B5002800F0BE8060
:1093A000002900F0BB80D0F8003EDB0704BF04209A
:1093B00070BD002A00F0A58000F6046312F00305DA
:1093C000A2F101062ED01C68A40609D41C68A406CC
:1093D0005CBF1C685FEA846402D41C68A406F2D5F2
:1093E0008C461CF8014B012DB646C0F8204E1BD010
:1093F0001C68A40609D41C68A4065CBF1C685FEA4C
:10940000846402D41C68A406F2D54C78022DC0F8FE
:10941000204E0DD101F1020CA2F1020E032E70D3E9
:1094200028E000BF96468C46032E6AD322E000BF98
:109430001D68AD0609D41D68AD065CBF1D685FEAF6
:10944000856502D41D68AD06F2D58D7801F1030C57
:10945000C0F8205EA2F1030E032E52D30AE000BF33
:109460009CF80310BEF1040E0CF1040CC0F8201E91
:1094700047D000BF196889065FBF19685FEA81613C
:1094800019685FEA816102D419688906F2D59CF8EF
:109490000010C0F8201E1968890609D419688906C9
:1094A0005CBF19685FEA816102D419688906F2D548
:1094B0009CF80110C0F8201E1968890609D41968A3
:1094C00089065CBF19685FEA816102D41968890660
:1094D000F2D59CF80210C0F8201E19688906BFD486
:1094E000196889065CBF19685FEA8161B8D4196898
:1094F0008906F2D5B4E700BF8168090744BF0020A0
:1095000070BD8168090706D4816809075CBF81685E
:109510005FEA0171F0D5002070BD00BF40F29200FB
:1095200040F2E001C0F20100C0F2010140F27B22F2
:1095300001F0C6F9012070470020704740F2042076
:10954000C0F20220704700006FF003007047000077
:109550002DE9F04F83B044F20007C4F20907386ADE
:10956000796A3D6801EA000940F24828B9F1FF3FF5
:10957000C2F20008C7F8209032DC680120D543F61B
:109580000040C4F210006021F7F714F80A20C8F870
:109590000C004FF600013868C0F2FF3101F5086198
:1095A00008433860D8F8041004208847386800F46D
:1095B0004000B0F5000F03D1D8F804100820884708
:1095C000A8030DD5D8F80C00D8F8041020F0080036
:1095D000C8F80C00386840F4003038601020884724
:1095E0005FEA095000F0B2814FF64460C0F200001B
:1095F00000F1080605F480744FF0000A01254FF0D1
:10960000000BCDE9014922E0401AA04288BF204664
:10961000E8604FF600023968C0F2FF3202EAC0206B
:1096200001F0F841B288084440EA9210012500F1A7
:10963000004038604F46DDE9014900BFBBF1090F2A
:109640000BF1020B06F120060AF1010A68D205FAB5
:109650000BF010EA090FF1D03862ACB3BBF1000F88
:1096600032D143F60045C4F2100595E80F0021F011
:10967000005120F0005022F0005223F000530FC59B
:10968000386840F2000240F480703860C4F2100282
:109690001068526881B2C8E90402B1F5A06F08D120
:1096A0003968C0F3074021F07F01084340F0800093
:1096B0003860012588F80050D8F80820002ABDD06D
:1096C000002001219047B9E7B94656E90271356893
:1096D0003868C0F3CE22D5E903309C1A2246F6F74B
:1096E00050FFD5E901022969002C2144296102EBD0
:1096F0000401A96018BF88420CD14F46DDE9014939
:10970000D8F808200125002A98D05FFA8AF00221B3
:10971000904793E72A6894423FF476AFEDE700BFA5
:1097200001255FEA8970C8F2000536D5022038624B
:1097300044F66440C2F20000D0E90831D0E90626C0
:10974000194433449A424162C36107D1D8F80820D2
:109750001AB38020042190471FE000BFD0F814C046
:10976000D61A664588BF6646066240F20000C4F21B
:10977000100040303246F6F704FF43F60042C4F2D0
:1097800010024FF600019068C0F2FF3101EAC621D5
:1097900000F0F8400844284390605FEA097039D52A
:1097A0000820386244F66440C2F20000D0E9123169
:1097B000D0E91026194433449A42C164436407D166
:1097C000D8F8082032B381200421904722E000BF5E
:1097D000D0F83CC0D61A664588BF6646866440F21B
:1097E0000000C4F2100000F590603246F6F7C9FEA2
:1097F00043F60042C4F210024FF600019069C0F235
:10980000FF3101EAC62100F0F840084405F11101DA
:10981000084390615FEA896038D52020386244F6B9
:109820006440C2F20000D0E91C31D0E91A26194484
:1098300033449A424167C36606D1D8F808202AB358
:1098400082200421904721E0D0F864C0D61A6645F2
:1098500088BF6646066740F20000C4F2100000F5BB
:1098600048603246F6F78DFE43F60042C4F210021D
:109870004FF60001906AC0F2FF3101EAC62100F004
:10988000F840084405F13101084390625FEA09603D
:1098900017D58020386244F66440C2F20000D0E957
:1098A0002631D0E92426194433449A42C0F89C104A
:1098B000C0F8943024D1D8F8082012B183200421B4
:1098C00090475FEA895041D54FF40070386244F602
:1098D0006440C2F20000D0E93031D0E92E271944AB
:1098E0003B449A42C0F8C410C0F8BC3032D1D8F81A
:1098F00008205AB38420042103B0BDE8F04F10477C
:10990000D0F88CC0D61A664588BF6646C0F8986005
:1099100040F20000C4F2100000F5A4503246F6F701
:1099200030FE43F60042C4F210024FF60001906B85
:10993000C0F2FF3101EAC62100F0F840084405F109
:109940005101084390635FEA8950BDD403B0BDE87C
:10995000F08F00BFD0F8B470D41ABC4288BF3C4628
:10996000C0F8C04040F20000C4F2100000F5E4501E
:109970002246F6F706FE43F60042C4F210024FF606
:109980000001906CC0F2FF3101EAC42100F0F84000
:10999000084405F171010843906403B0BDE8F08FFD
:1099A0000146002005F05ABE0A460146002005F097
:1099B0005DBE000010B540F22C20C2F2000000781D
:1099C000E0B94FF6EC44C0F20004E06A8047C007FB
:1099D00018BF10BD47F67071C2F2000100204FF4AD
:1099E000007202F043FD012808DB0146626947F678
:1099F0007070C2F20000BDE81040104710BD0000BA
:109A00007047000000207047014640F22C20C2F24F
:109A10000000D0F8172043690120C1F803200B6033
:109A20007047000010B54FF6EC41C0F200018A68A3
:109A300047F67540C0F200000C6990470220A0472D
:109A400040F2E1704FF6C852C0F20000C0F20002CE
:109A5000002101F0D3FE40F22C21C2F20001486047
:109A600010BD000010B540F22C20C2F200000078BA
:109A7000002818BF10BD4FF6EC40C0F20000846A09
:109A800018200021A047192000212246BDE81040DF
:109A9000104700000020704701207047B0B540F229
:109AA0002C25C2F20005A968044621B9002001F066
:109AB0004BF90146A86008464FF0FF3101F032F93A
:109AC000287801280CD1D4F803002168C5F81700C4
:109AD00069610124A86801F049F92046B0BD00BFC2
:109AE0002046F6F7BBFE0446A86801F03FF9204681
:109AF000B0BD0000B0B540F22C24C2F20004606892
:109B000001F08EFE002804BF002060604FF6EC409C
:109B1000C0F20000826AD0E9035419200021904766
:109B20000020A0472846BDE8B0400047002070470D
:109B300000207047002070470020704700207047C9
:109B400000207047002070470020704770470000D9
:109B50007047000070470000704700000020704709
:109B60000020704700207047002070470020704799
:109B700000207047002070470020704770470000A9
:109B8000704700007047000010B500281CBF00207F
:109B900010BD002003F0BEFF0446002002F0E4FFE9
:109BA000002818BF0446204610BD000010B500284C
:109BB0001CBF002010BD002003F0FEFF0446002063
:109BC00003F006FA002818BF0446204610BD000026
:109BD0000020704700207047704700000020704749
:109BE00070B540F2082504468007C2F200053AD558
:109BF0000020012104F0ECFF42F26446C2F20006AC
:109C0000F8B168884002305C072807D140F2602034
:109C1000C2F200000121017013E000BF6888012139
:109C2000013068806888082804BF00206880E888C0
:109C30000130E88040F20020C2F20000006801F02C
:109C40009FFDE8882989401A80B2082802D10120A6
:109C5000287008E06888012106EB402200204FF4BC
:109C6000007304F0A1FF600758BF70BDE889298A1E
:109C7000884203D10120687070BD00BFA889A989FE
:109C800043F2644205EB4101C2F2000202EB4022C2
:109C90004B8A00208121002404F0A8FFA88901300C
:109CA000A881A889082808BFAC81288A01302882A9
:109CB00070BD0000400748BFFDF78ABA704700003A
:109CC0007047000070470000012818BF704780B53A
:109CD00040F2082E4FF0000C42F26442C2F2000E35
:109CE0000020C2F2000201214FF400738EF800C080
:109CF000BDE8804004F058BF7047000040F20820E3
:109D0000C2F200000021012241808180C1800181D6
:109D1000027041818181C1810182427070470000DF
:109D20007047000070470000B0B540F2BC35C2F289
:109D300000052968044689B900F040FF44F6D35174
:109D40008002C1F26201A0FB01014FF600408909C7
:109D5000CFF6FF70B0FBF1F0C5E90010601C0228DF
:109D60000CD3B1F5806F09D06868A04231BF6FF0A5
:109D7000010401FB04F000F2FF30840A2046BDE834
:109D8000B04000F0F1BE00007047000070470000D6
:109D900070470000002070470020704770470000A7
:109DA00000207047704700007047000070470000B7
:109DB000FFF7F8BF704700007047000070470000D1
:109DC0007047000040F24820C2F20000407880074F
:109DD0005CBF4FF0FF30704744F20000C4F209004E
:109DE000016841F4803101600020704740F2482052
:109DF000C2F20000407880075CBF4FF0FF30704730
:109E000044F20000C4F20900016821F480310160CD
:109E10000020704740F24820C2F200004178C0683C
:109E2000890700EAE170704740F24820C2F2000062
:109E3000407880075CBF4FF0FF30704744F200006D
:109E4000C4F20900016821F400310160002070476C
:109E500040F24820C2F200004078C0F340000138D0
:109E600070470000704700000020704700207047D6
:109E70000020704700207047002070470020704786
:109E8000002070470020704770B587B0002306930C
:109E900005930493039300F00F035D00013504065E
:109EA0000290019158BF4500062B009206D30698F8
:109EB000013006904FF0FF3007B070BD40F24820EF
:109EC000C2F200004078800706D405980130059062
:109ED0004FF0FF3007B070BD4FF644605FFA85FC6D
:109EE000C0F2000000EB0C1420680568B5F1FF3FDC
:109EF0000EDDA58BB4F80CE0A5EB0E0595420FDA4C
:109F00000398013003904FF0FF3007B070BD00BFE1
:109F10000498013004906FF0010007B070BD00BFDD
:109F2000A4680025456005602561E560A560656061
:109F300025600CEB8C0444F664456FF3DF22C2F21B
:109F4000000545F82420026840F2FF74A24342EA6B
:109F50009E14046023B34FF6FF32CAF2FF3204EAC4
:109F6000020505F1A04203290260A3D84FEA9E131F
:109F7000DFE801F00902080645F0A84202E000BF50
:109F800044F0B842026022F08041426801604FF61E
:109F90000001CBF6FF711140194401F1804141608D
:109FA000012000FA0CF044F224016FF31F30C4F2D8
:109FB000090141F8040C0A6810430860002007B04A
:109FC00070BD000000F00F035A0002F1010C020600
:109FD00058BF4FEA400C052B06D840F24820C2F289
:109FE00000004078800703D44FF0FF30704700BF77
:109FF0004FF644624FEA0C10C0F20002105802689B
:10A00000002A44BF6FF00100704729B142F00051AF
:10A0100001600020704700BF022161F3DD62026031
:10A020000020704710B508B110BD00BF0C46802954
:10A030000EDDA4F18100022814D3832C1CD0842CC3
:10A0400018BF10BD00208421BDE8104002F03ABBCB
:10A05000012C07D0042CE7D100200421BDE81040DA
:10A0600002F030BB0020214603F02CFD832C03D0EE
:10A07000842CE7D0D8E700BF00208321BDE8104042
:10A0800002F020BB10B508B110BD00BF0C468029FE
:10A090000EDDA4F18100022814D3832C1CD0842C63
:10A0A00018BF10BD00208421BDE8104002F056BB4F
:10A0B000012C07D0042CE7D100200421BDE810407A
:10A0C00002F04CBB0020214603F010FD832C03D08E
:10A0D000842CE7D0D8E700BF00208321BDE81040E2
:10A0E00002F03CBBF0B581B000F00F077B001446D6
:10A0F00010F0800203F1010308BF4300052F06D8CA
:10A1000040F24820C2F200004078800704D44FF0AB
:10A11000FF3001B0F0BD00BFD8B24FF64463C0F2CB
:10A12000000303EB00173D682868002824D4BE68AC
:10A1300030683161A042746038BF04460020B060CE
:10A140001AB178682246F6F71CFA2968B88940F2F5
:10A15000FF72914341EA901040F2FF712860F46071
:10A160002868C7F60041084064F3D92000F1004098
:10A170002860002001B0F0BD6FF0010001B0F0BD1B
:10A1800010B500F00F014A00531C020658BF4300EF
:10A19000052906D840F24820C2F200004078800726
:10A1A00002D44FF0FF3010BD4FF64461D8B2C0F278
:10A1B000000101EB001C44F214014FF0010EC4F247
:10A1C00009010EFA00F208696FF31F3220EA020457
:10A1D000DCF800000C610468B4F1FF3F14DC0C688B
:10A1E0000EFA03F31C430C600C681C4208D00C6888
:10A1F0001C4205D00C681C4202D00C681C42F3D1F2
:10A20000036823F000430360DCF808300020C3E952
:10A210000100D860CA600B691A430A6110BD0000D2
:10A2200000F00F01052984BF00207047490001316B
:10A23000020658BF410001EB810044F66441C2F2BE
:10A24000000101EB800080687047000080B500F0DD
:10A250000F0251000131030658BF4100052A06D8FC
:10A2600040F24820C2F200004078800702D44FF04C
:10A27000FF3080BDC8B24FF644620101C0F2000257
:10A2800051580A68002A44BF6FF0010080BD0122C6
:10A2900002FA00F044F21402C4F209028646D2F82F
:10A2A00010C06FF31F3E2CEA0E0313610B68B3F16D
:10A2B000FF3F07DD00204FF0804348600B60C2F88D
:10A2C0000CE080BD13680343136000BF13680342B2
:10A2D000F0D013680342EDD013680342EAD013684C
:10A2E0000342F3D1E6E700000020704740F2482027
:10A2F000C2F200004078800751BF002044F2040001
:10A30000C4F20900006848BF6FF3DF207047000007
:10A3100040F20320C0F200107047000040F24822D3
:10A32000C2F200025378DB0703D1C2E90101012028
:10A33000507000207047000070B5022846D00028F9
:10A340001CBF6FF0030070BD4EF20410CEF200008F
:10A350004FF40041C0F88010BFF34F8FBFF36F8FF1
:10A36000C0F8801140F24820C2F200004178052474
:10A3700001F0FD01C0F2020441702046FBF7D2F863
:10A38000A01CFBF7CFF8601CFBF7CCF840F22820AC
:10A39000C4F20000016821F040010160016821F071
:10A3A00020010160016821F08001016043F6004056
:10A3B000C4F210006021F6F7FDF844F66440C2F2E2
:10A3C0000000F021F6F7F6F8002070BD40F24826B4
:10A3D000C2F200067078C10704BF4FF0FF3070BDB5
:10A3E00080074FF000044FD442F20041C0F2F40164
:10A3F0000020F6F7F7FA4FF0FF300021F6F7DAFA0F
:10A4000040F2282043F25002C4F200001021C4F2AE
:10A410000A024FF4002301601360156845F480358B
:10A420001560016248F23400C4F203004FF4801159
:10A4300040F8344C036001600020C4F210004FF477
:10A440008041F6F7B7F843F60045C4F210052846F8
:10A450006021F6F7AFF844F2080040F20001C4F2C0
:10A460000900C4F21001F460056041604FF0004142
:10A47000C16170784FF4004140F0020070704EF2FC
:10A480000410CEF200000160204670BD40F2482169
:10A49000C2F200014A7892070ED50A7862B1002212
:10A4A0000A70D1E90423026043600878002818BFCD
:10A4B0004FF0FF30704700BF4FF0FF307047000093
:10A4C000002818BF704780B5002003F063FB002010
:10A4D000BDE8804002F012BD002804BF4FF0FF30FD
:10A4E000704770B540F2BC36C2F2000604463068D0
:10A4F0000D4688B900F062FB44F6D3518002C1F2E8
:10A500006201A0FB010188094FF60041CFF6FF71FF
:10A51000B1FBF0F1C6E90001691C02290CD3B0F5CA
:10A52000806F09D07168A94231BF6FF0010500FB4F
:10A5300005F000F2FF30850A20462946BDE870404C
:10A5400001F0A4B880B584B003460020012B03902D
:10A55000CDE90100009013D02BBB00291EBF0020C5
:10A5600004B080BD45F66060C2F200000290102089
:10A5700003906A460120012101F0C4F804B080BDB7
:10A580004FF0000079B9092A0DD845F67060C2F283
:10A59000000000EB02106A46029010200390012098
:10A5A000012101F0AFF804B080BD000000280CBF0D
:10A5B0004FF0FF3001F094B87047000000280CBF46
:10A5C0004FF0FF3001F0B0B8704700007047000056
:10A5D000B0B58AB00C46054601A82421F5F7EAFF7C
:10A5E000042D4FF0000000F28F80DFE805F0031328
:10A5F0008D2D5B00002C56D14DF6A91040F6C012EF
:10A60000C0F20000C0F20102002101F0F7F80AB028
:10A61000B0BD00BF042C46D84FA004EB041146F295
:10A62000200250F82400C2F2000202EB81010190E6
:10A630004420022C0391049068D3032C68D0022C90
:10A6400014BFC020402064E06CBB40F60C50C0F248
:10A65000010050F8340004EB04110190442046F24C
:10A660007412049047F20020C2F20002C2F200000D
:10A6700002EBC10105904FF6EC50C0F200000391CF
:10A6800000EB041122018058496801AACDE90601B6
:10A690004CF6D930C0F20000214601F0AFF80AB004
:10A6A000B0BD00BF14B100200AB0B0BD600040F6DC
:10A6B0000C510130C0F2010151F8201000EB0012E2
:10A6C00001914421049147F2002146F27413C2F231
:10A6D0000001C2F2000301F5007103EB8202059153
:10A6E0004FF6EC51C0F20001039201EBC00251F8A9
:10A6F0003000516801AACDE906014CF24960C0F270
:10A700000000214601F07AF80AB0B0BD002000E058
:10A71000802046F60021C2F2000101EBC00001AA30
:10A72000059040F69440C0F2010000EBC40150F8DF
:10A7300034004968CDE906014CF6CD40CCF6CC405A
:10A74000A4FB00014DF67D208908C0F2000001F055
:10A7500055F80AB0B0BD00BF1C070100F9070100A1
:10A7600016080100330801005008010000280CBF42
:10A77000002001F005B87047B0B540F2BC35C2F218
:10A7800000052968044689B900F018FA44F6D35147
:10A790008002C1F26201A0FB01014FF6004089096D
:10A7A000CFF6FF70B0FBF1F0C5E90010601C022885
:10A7B0000CD3B1F5806F09D06868A04231BF6FF04B
:10A7C000010401FB04F000F2FF30840A4FF6FF7031
:10A7D0000021224601F000F8B0F1FF3FC8BFB0BD34
:10A7E0006FF00101401A18BF0120C007B0BD000082
:10A7F00000280CBF4FF0FF3001F012B87047000086
:10A8000040F24821C2F20001487800F0FE02002028
:10A810004A707047B0B501281ED000284ED140F2D2
:10A820002C24C2F2000460680121217000F0F8FFBE
:10A83000002804BF002060604FF6EC40C0F200002A
:10A84000826AD0E903451920002190470020A847DB
:10A85000A0470020B0BD00BF4FF6EC41C0F20001A0
:10A860008A6847F67540C0F200000C6990470220E4
:10A87000A04740F2E1704FF6C852C0F20000C0F2AB
:10A8800000020021002400F0B9FF40F22C25C2F2A2
:10A890000005A968686021B9002000F055FA01465A
:10A8A000A86008464FF0FF3100F03CFA05F11400B3
:10A8B000F5F7D4FFA8682C7000F058FA0020B0BD5E
:10A8C00013460A46014602A0F8F770FF00BEFDE7F6
:10A8D000415353455254204552524F522022202575
:10A8E0007320223A2066696C652022257322204C51
:10A8F000696E652022256422200A0000F5F76EFFAC
:10A90000F5F76AFF42F20000C4F20800F8F756FDBE
:10A91000F8F740FA002004F07FF9F9F725FB18B1A9
:10A920000146002004F068FE002002F03BFF00BF5B
:10A93000002002F025FF0028FAD04EF20024C4F2D5
:10A94000080420254FF4FA70C4F88050F8F766FF29
:10A9500042F6B9504FF6C842C0F20000C0F2000201
:10A960000021256000F04AFF40F20024C2F20004FA
:10A97000206047F2E9004FF6A452C0F20000C0F296
:10A980000002002100F03AFF60604FF0FF3000F05D
:10A99000EBF800BFFEE70000022806D0012808D02F
:10A9A00088B90C488168C06806E00A4801684068B8
:10A9B00002E0084801694069CA0709D049083A4AD3
:10A9C0001160506070473848034901600349416095
:10A9D000704700BFD8FC0900684E0C01983A80010E
:10A9E000B0F5747F05D24FF400314FF488400C224B
:10A9F0004BE0B0F57A7F05D84FF480214FF49840B2
:10AA00000E2242E040F20241884205D24FF4C021BA
:10AA10004FF4B040112238E040F21B41884205D289
:10AA20004FF400214FF4C84014222EE040F234418C
:10AA3000884205D24FF420214FF4D840162224E05A
:10AA400040F24D41884205D24FF440214FF4E84096
:10AA500018221AE040F26641884205D24FF4602184
:10AA60004FF4F0401B2210E040F27F41884202D2B6
:10AA70004FF4801106E04FF4A011B0F5936F38BF8A
:10AA80004FF490114FF4F8401E2210B51043064ABF
:10AA900047F61F44D368A3431843D060106820F4DE
:10AAA000F0100843106010BD1000024021490A68F0
:10AAB000D3074FEA520204BF47F6A062C0F2261243
:10AAC0000969CB074FEA51034FF0020104BF47F673
:10AAD000A063C0F22613934288BF1346164A9342DE
:10AAE000164A38BF0121934238BF0021022909D0FC
:10AAF00089B940F23341022840F27E4208BF4FF448
:10AB0000966110E04FF47A71022840F2014208BFCA
:10AB100040F21A4107E04FF47A7140F24C420228A9
:10AB200008BF40F27E41012808BF11460846FFF7E2
:10AB300057BF00BF30FD0900A11D4B01A1DF01017E
:10AB4000FCF76AFE00F04EF84AF6FD00C0F2000085
:10AB50000021002200F052FE00F018F8012808BF82
:10AB600000F056F8FEE70000EFF3058129B9EFF396
:10AB7000108111B9EFF3118111B16FF00500704729
:10AB8000DFF804C000DF704745B80000EFF3058030
:10AB900048B9EFF3108030B9EFF3118018B9EFF333
:10ABA0001480C00702D10448007A7047DFF804C05F
:10ABB00000DF70475DB8000030000020EFF3058033
:10ABC00028B9EFF3108010B9EFF3118010B10348EA
:10ABD00040687047DFF808C000DF7047D4FB000012
:10ABE00069B8000080B500F0D8F8EFF3058028B907
:10ABF000EFF3108010B9EFF3118010B16FF0050082
:10AC000080BDDFF808C000DF80BD00BF75B8000060
:10AC1000EFF3058028B9EFF3108010B9EFF311803E
:10AC200008B1FAF754BCDFF808C000DF704700BF76
:10AC300071B90000F8B50546EFF3058014460E46DD
:10AC400028B9EFF3108010B9EFF31180F0B1D5B14E
:10AC50002878FA2817D16FF00300EEB1E3B928463F
:10AC6000FAF792FBC8B16A6A00F10C010746304658
:10AC7000F5F787FC0CB1F87820703846FD6000F0DD
:10AC80004FFA0020F8BD6FF00300F8BD2846DFF84A
:10AC900010C03146224600DFF8BD6FF00200F8BD5B
:10ACA000F9B900002DE9F0410646EFF30580904622
:10ACB0000D4628B9EFF3108010B9EFF3118018B3E7
:10ACC000EEB13078FA281AD16FF00307CDB1C3B9CD
:10ACD00006F10C0000F0D4F8F0B1726A04460C30B2
:10ACE0002946F5F74EFCF920002720702046C4E9DC
:10ACF000015684F80380A77000F012FA01E06FF0AB
:10AD000003073846BDE8F0813046DFF814C0294615
:10AD1000424600DFBDE8F0816FF00207F1E700BFB7
:10AD2000E5BB0000EFF305822AB9EFF3108212B9F8
:10AD3000EFF3118212B16FF005007047DFF804C025
:10AD400000DF704795BC0000EFF3058129B9EFF3F0
:10AD5000108111B9EFF3118109B100207047DFF8BC
:10AD600008C000DF704700BF25BD0000EFF305817C
:10AD700029B9EFF3108111B9EFF3118111B16FF01F
:10AD800005007047DFF804C000DF704789BD000090
:10AD9000FEE70000FEE7FFF7FBBF7047F0B5A8B184
:10ADA000002379B3032A2DD803460F3153F8085FE7
:10ADB00021F007012C46EE1A5D6825F00307F61B0B
:10ADC0008E4205D225682346002DF3D1002319E0D9
:10ADD000D0E900760E444660384450F8047CB7420F
:10ADE0003EBF083846605D6845B125F00300114359
:10ADF000C450184418600346416002E041EA020072
:10AE0000586008331846F0BDB0B560B159B100F1D3
:10AE10000804A1F108020023944206D025462468C4
:10AE20002B46002CF8D10020B0BD51F8045C4468DA
:10AE300025F00305641B446013B11068186002E03C
:10AE4000002041F8040C0120B0BD18B102460843AF
:10AE5000400701D000207047002018290FD310B5FB
:10AE60008B18A3F10804946043F8080C102493682D
:10AE7000C2E900145C60D0600120BDE8104070475A
:10AE800010B5002817D0014600F1140252E8000F57
:10AE900010B9BFF32F8F04E0036842E8003404B117
:10AEA000F4E740B1043151E8002F531C41E800346D
:10AEB00004B1F8E710BD002010BDB0B500281ED0C9
:10AEC000C2688A421BD802698A4218D900F114026A
:10AED00013680B60BFF35F8F52E8003F0C689C4221
:10AEE000F6D142E8001505B1F2E7043050E8001F42
:10AEF0004A1E40E8002303B1F8E70020B0BD6FF020
:10AF00000300B0BDB0B598B191B18AB1044600203C
:10AF10009BB1C4E9001004F1080002FB0135636134
:10AF20002CC0481E30B19918196001380B46F9E75A
:10AF30000020B0BD002018600120B0BDF8B5044667
:10AF4000807848B3E56821462846FAF769FA05F1A2
:10AF50000C060020207021463046FFF7AEFFA8689F
:10AF6000C8B13046FFF78CFFA8B10446284600F070
:10AF700038FAFAF7A6FA304600F092FA81680646E7
:10AF80006A6A04F10C00F5F7FCFAF920A77020704A
:10AF9000F068E07021E0F8BDA568A868E8B14078E5
:10AFA00083281AD1284600F01CFAFAF78AFA3046AC
:10AFB00000F076FA064680686A6A04F10C01F5F73B
:10AFC000E0FAF06808B1E1780170277005F10C0033
:10AFD0002146BDE8F840FFF770BF28462146BDE88E
:10AFE000F840FAF7F1B9000080B507480821D0E928
:10AFF0001A2000F06BFDF249C8640021002808BF48
:10B000004FF0FF31084680BDD4FB00002DE9F04130
:10B01000044600274FF00108D4B125466469E8785A
:10B020000007F9D5A8682F760028F5D0284600F04B
:10B03000D8F900210022064600F07CFAF06AC5E942
:10B040000367686100B1056185F81880F562E3E780
:10B05000BDE8F081B0B5C278920715D5C068C36A63
:10B0600090F821209C688C4208BF8C682CB194F920
:10B07000204055B2AC42C8BFE2B25B69002BF1D1AF
:10B0800090F82010914200D1B0BD80F82020BDE89A
:10B09000B04000F0D5B90000B0B5C94CB4F85400C8
:10B0A00004F15601D1E85F2F12B9BFF32F8F04E0EE
:10B0B000531EC1E8553F05B1F4E711042BD004F14C
:10B0C0005A01D1E85F2F531C984200D80023C1E8F1
:10B0D000553F05B1F5E790B2E16D51F82000D0B1D0
:10B0E0000178F1390829D9D8DFE801F0060509050A
:10B0F000050C0F051200D1E7216E8847CEE7616E7F
:10B100008847CBE7A16E8847C8E7E16E8847C5E767
:10B11000216F8847C2E70020BDE8B04000F0FEB8CC
:10B1200070B50146F34800F15603B0F85420D3E857
:10B130005F4FA24202D8BFF32F8F04E0651CC3E823
:10B14000565F06B1F3E7A3B2934214D200F158035D
:10B15000D3E85F4F651CAA4200D80025C3E8565FBC
:10B1600006B1F5E7A2B2C36D43F82210417A39B1B6
:10B170000121817270BD0220BDE87040FFF70BBE57
:10B1800002484FF08051016070BD00BF04ED00E047
:10B1900010B58168B1B100F10C01D1E85F2F12B98F
:10B1A000BFF32F8F04E0531EC1E8543F04B1F4E70E
:10B1B000110407D000F015F900210022BDE810406D
:10B1C00000F0B8B910BD000010B5012190F9203091
:10B1D0004170D7491C310A46896841B191F9204034
:10B1E0009C42F8DCC0E902120C31906004E00021BE
:10B1F000C0E9021202F10801086010BDB0B54A1C96
:10B200000DD0F54A00232C3215462C68E4B1E569CF
:10B21000A94221D3491B04F110052346F5E7F5495E
:10B22000002301F1300214461946236803F110048B
:10B23000002BF9D14FF0FF33C3610023C0E9043183
:10B24000C1B101F1100215E0C161002BC0E9044356
:10B2500018BF03F110020DE0002BC0E90443C161E7
:10B2600018BF03F1100210602CB1E269511AE161BC
:10B2700004F114021060B0BDC2690169531C0AD008
:10B2800021B143694B61CB691A44CA6142693AB939
:10B29000D84AD16207E009B142694A6142692AB1DC
:10B2A0000023116143610021C1617047F64A1163B7
:10B2B000F9E700BF70B5F44DEC6A1CB1E0690138E4
:10B2C000E06100D070BD042660781338B6EB301F03
:10B2D00005D1204600F0AEF82146FFF7BBFE204620
:10B2E00000F09EF8204600F0D3F8246924B1E0690C
:10B2F0000028E9D000206061EC6270BDC178C90708
:10B3000008BF00F033B80021C16004214170DE495C
:10B310004A6B826002B1D0604863704770B5DA4E04
:10B3200005467469307A65B1022805D194F9200088
:10B3300095F92010814211DC2846BDE8704000F0EC
:10B34000A7B8022810D1756A75B194F9200095F953
:10B350002010814208DD284600F062F82046FFF701
:10B3600033FF0220B561687070BD00BF10B50446A0
:10B3700000202080A07881070DD5C00605D4C248E2
:10B38000216B406FFFF740FD05E0BF48216BD0F80F
:10B390008400FFF792FDA078C00708BF10BDBA492E
:10B3A000D1F8880020B12146BDE81040FFF785BDE7
:10B3B000D1F880002146BDE81040FFF725BD00BF51
:10B3C0003000002010B50446806918B10021002229
:10B3D00000F0B0F86078232802BFA06800218161E6
:10B3E00010BD0146806882688A6002B1D160002188
:10B3F000C160704710B591F920300246806840B1B5
:10B4000090F920409C42F8DAC1E902020C309160C8
:10B4100004E00020C1E9020202F10800016010BD51
:10B42000C16831B182688A60826802B1D16000214E
:10B43000C16070470178F12918BF7047C068F9E70B
:10B44000B0B50446054625B12878F12802D1ED684B
:10B45000F9E7B0BD2046FFF7E3FF28462146BDE8E7
:10B46000B040FFF7C7BF10B50446407833280DD170
:10B4700094F823202046616AFCF7A5FB30B1014611
:10B4800020460022BDE8104000F054B810BD000076
:10B49000014601204870F3481C30FFF7ABBF00BFE6
:10B4A00090F82210C9064FF0200158BF6021806B30
:10B4B0000844704770B5EE4C00210A48A26D666ED4
:10B4C00000F0F0FDE74DA86246B1B04740B9E96C25
:10B4D000D4E9172000F0E6FDA86408B1012070BD92
:10B4E000002070BD95AD0000DE49886102214170E9
:10B4F000704700BF3000002010B5DA4C227A022AD3
:10B5000014D1626A92B1626950701046FFF776FEFC
:10B51000606A8168616211B104F11C02CA60022193
:10B52000A06141700021C160012010BD002010BD4C
:10B5300030000020B0B5044690F822001546C00641
:10B540004FF0200058BF6020A26B81502046FFF7CB
:10B5500093FE2046002DBDE8B04008BFFFF798BF1E
:10B56000FFF7DCBEB0B5F9F769FFFF4DE8680130C1
:10B57000E860FFF79FFE0020FFF7D0FE286D00B1C6
:10B580008047296C71B1A869EA6B904205D0C26905
:10B59000E86322B9C1610A4601E0C2691AB1511ECD
:10B5A000C16100D0B0BD297A0229FBD16C6A002CA0
:10B5B000F8D090F8200094F820108142F2D1204673
:10B5C000FFF72EFFE86BFFF763FF2046FFF78CFFC6
:10B5D000286CEC63E061B0BD3000002080B5FFF75F
:10B5E00003FD10B14FF0FF3080BDDF480249016517
:10B5F000002080BD300000201DB6000082B004464F
:10B600006D462046294600224FF0FF33FFF712FB1C
:10B610000028F6D1DDE900108847F2E72DE9F04176
:10B62000F14D6C6C74B36E694FF0010820690138FC
:10B63000206134B3206920BBE06808B1A168816053
:10B64000686404F11801E86C00220023FFF72AFB6C
:10B6500060B1D5E90570214668610320FFF79BFBC7
:10B66000696986EA0700084308BF0646E0780128B2
:10B6700011BF84F8018061692046FCF7D7FA6C6C31
:10B68000D7E76E61BDE8F08130000020EFF305825E
:10B690002AB9EFF3108212B9EFF31182CAB16FF039
:10B6A0000302A0B199B90178F62910D10C30D0E885
:10B6B0005F1F11B9BFF32F8F04E04A1EC0E8532F5C
:10B6C00003B1F4E70022080408BF6FF0020210463D
:10B6D0007047DFF808C000DF704700BF39BE0000C8
:10B6E000EFF3058129B9EFF3108111B9EFF311815F
:10B6F00011B16FF005007047DFF804C000DF70473C
:10B7000091BE0000EFF305832BB9EFF3108313B95B
:10B71000EFF311830BB100207047DFF808C000DFA2
:10B72000704700BFF1BE000010B50446EFF305807E
:10B7300028B9EFF3108010B9EFF3118090B15CB12C
:10B740002078F62808D12046FBF787FD38B120463F
:10B75000FFF7E6FC002010BD6FF0030010BD6FF096
:10B76000020010BD2046DFF808C000DF10BD00BF9A
:10B770006DBF0000DFF804C000DFFEE7A5BF0000DA
:10B78000B0B5EFF305822AB9EFF3108212B9EFF3E7
:10B790001182DAB16FF00304B0B1002914D4027839
:10B7A000F12A11D14278042A02D16FF002040BE091
:10B7B00000F1280252E8003F43EA010442E8004554
:10B7C00005B1F7E7FFF7ACFC2046B0BDDFF804C0D9
:10B7D00000DFB0BDF1BF0000EFF305832BB9EFF33D
:10B7E000108313B9EFF311830BB1F9F767BEDFF8DC
:10B7F00008C000DF704700BF59C00000EFF30583A9
:10B800002BB9EFF3108313B9EFF311830BB10020C1
:10B810007047DFF808C000DF704700BFA5C0000018
:10B82000EFF3058129B9EFF3108111B9EFF311811D
:10B8300009B1F9F743BEDFF808C000DF704700BF69
:10B8400091C2000030B180B501461320FFF754FECD
:10B85000013880BD6FF0030070470000DF48007AB8
:10B86000704700BF3000002061484068704700BF4B
:10B87000D4FB00002DE9F843DFF8988A98F8080017
:10B8800028B101286CD04FF0FF30BDE8F883584F45
:10B89000D7E90B41388AA8F85400D7E90202C8F862
:10B8A00040002046C8F85C20FFF7CFFA08B1C8F87E
:10B8B0008040D7E90541DFF8B490D7E90756204624
:10B8C000C847D8F88010002818BF2146C8F874105F
:10B8D00028463146C847D8F88010002818BF2946A6
:10B8E000C8F87810D7E909412046C847D8F8801031
:10B8F000002818BF21467C6BC8F87C101CB1F9F7F2
:10B90000D7FDC8F88440BC6B1CB1F9F7D1FDC8F86D
:10B910008840FC6B1CB1F9F7CBFDC8F88C403C6C3F
:10B920001CB1F9F7C5FDC8F890407C6C1CB1F9F763
:10B93000BFFDC8F89440BC6C1CB1F9F7B9FDC8F85C
:10B940009840FC6C1CB1F9F7B3FDC8F89C403C6D05
:10B950001CB1F9F7ADFDC8F8A040012088F8080037
:10B960000020BDE8F88300BF300000204BAE00008F
:10B97000B0B5EB4C207A01281CD1FFF79BFDC8B174
:10B980001A48FF211A4D8175817D026881F0FF01FF
:10B99000B1FA81F1C1F12001C2F302228A4228BF2B
:10B9A000511CFE2202FA01F1C17468681149F9F7CD
:10B9B0005FFD10B14FF0FF30B0BDF9F755FD2061CC
:10B9C000F9F740FD04F11C00FFF70BFDFFF78CFDBC
:10B9D0002878C0070CBF0320022080F314880220BF
:10B9E00020720020B0BD00BF300000200CED00E050
:10B9F000D4FB0000050500002DE9F04100284AD0E5
:10BA000004460078FA2846D10E46002943D0204645
:10BA10001D469046F9F7B8FC002841D0074620465D
:10BA20003946F9F7FDFC626A07F10C013046F4F77C
:10BA3000A8FD04F10C06B8F1000F1CBFF87888F8D7
:10BA400000000025304639463D70FFF736FAA06801
:10BA500018B33046FFF714FA0025F0B10646204629
:10BA6000FFF7BFFC002101220746FFF763FD3846C0
:10BA7000FFF716FD81680746626A06F10C00F4F7CD
:10BA800080FDF92031463070F868F0702046B570BE
:10BA9000F9F79AFC01E06FF003052846BDE8F08154
:10BAA00085B183202946FFF727FD40B1F74841695A
:10BAB0002046FFF79FFCEFF30980C0E902686FF0B2
:10BAC0000105EAE76FF00205E7E700BF2DE9F84F4F
:10BAD00048B10D4639B10446B0FA80F0B5FA85F1A7
:10BAE0000844202803D200263046BDE8F88F05F12F
:10BAF0000F0020F0030808FB04F95AB19668D2F849
:10BB000000A0D2E904707EB1B107ECD1D16834292C
:10BB1000E9D30CE04FF0000A0027F449D1F8A00067
:10BB200058B1FFF7ADF90EE0D1680029DBD157B36A
:10BB3000B907D8D14845D6D327E0D1F880003421C1
:10BB40000122FFF72BF906464FF0010B67BB5EB3EE
:10BB5000CDF800A04946DFF8BCA70022DAF87C0047
:10BB6000FFF71CF9074620B138464946F4F722FD95
:10BB700016E0BBF1000F12D0DAF8A00050B1314648
:10BB8000FFF79BF90BE00028ADD1002EC5D04FF098
:10BB9000000BDBE7DAF880003146FFF735F90026C5
:10BBA000DDF800A00BF1020B002E3FF49DAF00204A
:10BBB0002146C6E909504246C6E90B003B46C6E9A4
:10BBC00001A0FA20307006F10C0086F802B0FFF7F1
:10BBD00099F9E4480249016786E700BF3000002078
:10BBE0003DAF00002DE9F04120B305460078FA286A
:10BBF00020D10E46F1B1A8681F469046F8B14078B2
:10BC000083281CD12846FFF7ECFB002101220446C3
:10BC10000027FFF78FFC2046FFF742FC04468068B0
:10BC20006A6A3146F4F7ADFCE06828B180F800801C
:10BC3000002701E06FF003073846BDE8F08105F109
:10BC40000C00FFF71DF980B16A6A04460C303146DA
:10BC5000F4F797FCF920002720702846214684F845
:10BC60000380A770F9F7B0FBE6E787B19320394668
:10BC7000FFF742FC40B1DD4841692846FFF7BAFBB7
:10BC8000EFF30980C0E902686FF00107D4E76FF0B5
:10BC90000207D1E770B50446D44845694DB32CB3CB
:10BCA0002078F52822D1207E30B30E46E178CA07ED
:10BCB00002D0E268AA422BD066B388070AD5E068B2
:10BCC00095F9201090F920208A42BCBF80F82010FE
:10BCD000FFF7B6FB53203146FFF70EFC18B12046A4
:10BCE0002946FFF787FB6FF0010070BD6FF003007E
:10BCF00070BD4FF0FF3070BD0020C4E90350E86A0A
:10BD0000606100B104610120EC622076002070BD0A
:10BD1000FF2802D16FF0020070BD0130F5E700BFCF
:10BD20003000002070B550B18468D0E900657CB166
:10BD3000A10710D1C16800201C2917D270BD0025B1
:10BD40000026D749D1F8940038B1FFF799F80AE0F6
:10BD5000C0680028F5D0002070BDD1F880001C21FB
:10BD60000122FFF71BF8044658B10120A070F5200E
:10BD7000207004F1080011216660E570F4F71AFCE8
:10BD800000E00024204670BD70B50446C4484069F8
:10BD900070B154B12178F52907D1217E11B1E26843
:10BDA000824209D06FF0020404E06FF0030401E066
:10BDB0004FF0FF34204670BD01392176090601D0CD
:10BDC0000024F7E7616909B122690A6100F12C02D8
:10BDD00023691546002B18BF03F114052960E1788B
:10BDE00089070FD590F8211012684AB193682BB1DA
:10BDF00093F920304DB2AB42C8BF19461432F3E775
:10BE000080F82010A06888B12046FFF7EAFA0021E8
:10BE1000002205460026FFF78DFBE86AC4E90356B9
:10BE2000606100B104610120EC62207600200024F2
:10BE3000FFF774FABEE700BFB0B508B30446007858
:10BE4000F6281DD104F10C00D0E85F2F12B9BFF322
:10BE50002F8F04E0531EC0E8553F05B1F4E71004EE
:10BE60001CBF0020B0BD71B16320FFF745FB20B1BE
:10BE70008B4841692046FFF7BDFA6FF00100B0BD65
:10BE80006FF00300B0BD6FF00200B0BD30000020C5
:10BE900010B500B304460078F6281CD1A06868B13C
:10BEA0002046FFF79EFA6FF002010022FFF742FBE7
:10BEB000A0680028F4D10020FFF730FAA178002014
:10BEC0002070C90710D0ED49D1F8980030B1214653
:10BED000FEF7F3FF07E06FF0030010BDD1F880001C
:10BEE0002146FEF791FF002010BD00BF300000206A
:10BEF00070B50C46002198B30546B1EB104F2FD119
:10BF0000AC4215D84AB19068166870B181070FD15C
:10BF1000D2680021102A15D222E00026FD49D1F86E
:10BF2000980038B1FEF7ACFF0AE0D0680028F5D0E1
:10BF3000002115E0D1F8800010210122FEF72EFF2C
:10BF400060B101218170F62101700022F149C0E940
:10BF50000162054AC58184818A6600E000200146AD
:10BF6000084670BD3000002091B1000010B560B1EE
:10BF70000178F62909D1816859B1FFF732FA002119
:10BF800001220024FFF7D6FA01E06FF003042046F7
:10BF900010BDFBF762F90021002808BF6FF0020115
:10BFA000084610BDB0B5DB4D287A02281DD1686A5D
:10BFB000D8B16C69E06AFFF729F82046FFF702FA6A
:10BFC000686A8168696211B105F11C02CA600221C8
:10BFD000A86141700021C160EFF30980A063204691
:10BFE0006961BDE8B040FFF789B9B0BD30000020FD
:10BFF000B0B56FF0030460B300292AD40546007879
:10C00000F12826D16878042802D16FF0020420E0DC
:10C0100005F1280050E8002F42EA010440E80043FF
:10C0200003B1F7E76878332813D195F82320284621
:10C03000696AFBF7C8FD60B1014695F823000C461C
:10C0400080075CBF686A21EA000428460122FFF7E6
:10C0500071FA2046B0BD0000F8B50546AD48476905
:10C0600057B1002D0BD40E461446384629463246A9
:10C07000FBF7A9FD30B1F8BD4FF0FF30F8BD6FF010
:10C080000300F8BD4CB13320214687F823607D6260
:10C09000FFF732FA6FF00100F8BD6FF00200F8BD53
:10C0A000300000202DE9FE4F002800F08780054673
:10C0B0006AB102F110099668D2E9007399E8100399
:10C0C000C6B1B0077AD1D068442816D276E04FF0D6
:10C0D000010B4FF01809002300244FF0000800273F
:10C0E0008C4A0293CDE90017D2F88800A8B1FEF778
:10C0F000C7FE18E0D068002860D124B160075DD188
:10C10000B8F1000F5AD0B9F1000F3BD0B9F1010FCF
:10C1100054DBB9F1380F37DD50E0D2F8800044210C
:10C120000122FEF73BFE06464FF0010A0027002CD5
:10C1300053D1002E51D0BBF1000F0DD0754850499E
:10C14000D0F88400D1F8548030B1FEF799FE60B188
:10C1500004460AF1100A3EE06E4841460022406F54
:10C16000FEF71CFE08B1044635E01FB14FF0000A8F
:10C1700000242FE06749D1F8880018B33146FEF754
:10C180009CFE24E04FF01809B8F1000F08D05FEAD8
:10C19000487013D1B8F1480F10D3B8F1000F0DD487
:10C1A000B8FA88F0002E4FEA501B3FF499AFCDE962
:10C1B00000174FF0000A02930127B8E70026304627
:10C1C000BDE8FE8FD1F880003146FEF71DFE002449
:10C1D0004FF0010A00264AF0020A002EEFD0019823
:10C1E000182170600298F07040F2F110308006F172
:10C1F000080086F802A0F4F7DDF904EB080100203E
:10C200004039C6E90E151F49FD22C6F82300C6F8BD
:10C210002700C6F82B0086F82F00C6E90C482160DD
:10C220001749009F86F82220097886F8219049074F
:10C2300086F8209015D4B16B00220D2A03D041F866
:10C2400022000132F9E74FF080700F4AC86331488D
:10C25000C1E90D250F620D4901663046FFF75EF812
:10C26000ADE76FF01001221D01EB98014FF0CC33C8
:10C270000029E0D008C20139FAE700BF30000020F1
:10C28000D4FB0000A52E5AE275B7000067B4000089
:10C2900010B5A0B1F9F72BF911D1607800F00F00BB
:10C2A00001280ED0032810D0022805D11948017AA0
:10C2B000022901D1406A50B96FF0020010BDF9F7B0
:10C2C00009B92046FFF7ACF801E0F9F706F9E06A92
:10C2D000FEF79CFE2046FFF775F86078022811D122
:10C2E0000C48416A8A68426212B100F11C03D360B3
:10C2F000022281614A700022CA60EFF30981A163C2
:10C30000426102E00020FFF709F82046FEF7F6FF41
:10C31000002010BD30000020002070470020704732
:10C320002DE9F0411E46174688460546002400F0D8
:10C33000A5F940B9054850F8253023B132463946B1
:10C340004046984704462046BDE8F0810CFF0000B7
:10C3500070B50546002400F091F9C0B90D480E49AA
:10C3600050F82500007E51F8200086680B4850F8F0
:10C37000251061B10A488847040008D008480938E8
:10C3800050F8091F31608188B1808079B0712046F2
:10C3900070BD0000080D01006C0D010010FF0000D1
:10C3A000190000200020704770B50E460546002495
:10C3B00000F064F970B90848084950F8250051F8B0
:10C3C00025203AB1007E064951F8200031468068A8
:10C3D00090470446204670BD080D01001CFF000078
:10C3E0006C0D01000020704770B50E460546002414
:10C3F00000F044F960B9074850F8251041B13046C3
:10C400008847040004D0044850F825004069068598
:10C41000204670BD20FF0000080D010070B50546E4
:10C42000002400F02BF9B0B90C480D4950F8250054
:10C43000007E51F820000B49806851F8251051B159
:10C44000094A0368C2F802308388D3808079107269
:10C45000901C88470446204670BD0000080D01006E
:10C460006C0D010024FF0000100000202DE9F05F9A
:10C4700014468B46814600F001F9B8B9384951F8A5
:10C4800029603849307E756951F82000C06890F8FD
:10C49000950006EB4000B0F828A0707E28B1B07E71
:10C4A00038B1A878002857D147E027204042BDE89E
:10C4B000F09F296AA869401A29D0844200D904460D
:10C4C000E9697068738C0A1AA3EB0A00801A804627
:10C4D000274644450CD302465846F4F752F8706894
:10C4E000E861296AC34401EB0800A7EB080728624A
:10C4F00057B13A465846E969F4F743F8E8693844D1
:10C50000E861286A38442862A87810B125E0002440
:10C51000FAE7296AA869401A718C091AB1EB4A0F27
:10C520001BD30220A870F17F000240EA01310E48BF
:10C5300050F82900FEF71AF90FE0296AA869401A95
:10C540000AD0844200D90446224658466969F4F765
:10C5500018F8A8692862E4E700242046A7E700004D
:10C56000080D01006C0D0100009300202DE9F05F23
:10C5700014468946824600F081F870B9304951F876
:10C580002A60707E756938B1B07E4FF0020B38B109
:10C59000287898B3002445E027204042BDE8F09F6A
:10C5A0002969A868401A318C081A28D0844200D919
:10C5B0000446326868682746121A02EB01084146B1
:10C5C00044450CD30A464946F3F7DBFF3068686000
:10C5D000A968C14401EB0800A7EB0807A86057B1A0
:10C5E0003A4649466868F3F7CCFF686838446860A3
:10C5F000A8683844A860287818B113E014E0002433
:10C60000F9E72969A86888420CD000BF85F800B016
:10C61000B17F4FF4806040EA01310A4850F82A00A7
:10C62000FEF7A4F82046B9E7308CA04200D20446B9
:10C63000224649466868F3F7A4FFAC60E6E70000CD
:10C64000080D01000093002070B5C4B2204600F030
:10C6500015F8002811D1451E2846FEF78DF8010176
:10C66000FAD4060AB00702D5204600F09FF97007F9
:10C67000F2D5204600F09AF8EEE770BD0D49097832
:10C68000884212D20C4951F8200070B1416961B161
:10C690000A49007E0978884209D2094951F82000E8
:10C6A00028B1C06818B100207047272070472120AA
:10C6B00070470000040D0100080D0100680D010025
:10C6C0006C0D01002DE9F0410D460646FFF7D6FF3F
:10C6D000002838D11D481E4950F82640207E676941
:10C6E00051F82000617FC06841F08001A9422AD042
:10C6F000E17FA94227D0617E01291AD01548656BD8
:10C7000050F8260000B1804794F82C0001281AD078
:10C71000608CA84217D30220B870E07F4FF40071FC
:10C7200041EA00310C4850F82600BDE8F041FEF720
:10C730001DB8A17E09B1658CEAE790F8950004EB7D
:10C740004000058DE4E7BDE8F0810000080D010020
:10C750006C0D01007CFF0000009300202DE9F041EA
:10C760000E460746FFF78AFF002818D10D484FF004
:10C77000000850F82740E07F6569B04208D185F88D
:10C780000280607E20B9084850F8270000B1804739
:10C79000A07F40F08000B04201D185F80080BDE864
:10C7A000F0810000080D010080FF00002DE9F84F26
:10C7B0008346FFF763FF00287DD1784951F82B505D
:10C7C0007749287E6C69009051F82000C06890F885
:10C7D000950005EB4000B0F828802078012809D0AA
:10C7E00000206A7E01210026012A0AD02278012A2F
:10C7F0006FD0A4E0A87F40F08001009801F05EFCBB
:10C80000EFE7AA7E002A227802D0012A56D05CE007
:10C81000012A18D1B0B1E2680244E2602B8C2F6883
:10C820001F44974201D8D21AE26022690244226171
:10C83000A368934207D1B0FBF8F308FB130010B9CB
:10C84000617000E066702269A068871A404647451B
:10C8500000D9074660784FF0FF3977B100B16670B4
:10C860006268E068904209D32B8C2A681A44C31985
:10C870009A4203D2A2EB000900E0E8B12170D5F89A
:10C880000CA0E168B84648464F4507D302465046DB
:10C89000F3F777FE2968CA44A8EB0908B8F100004D
:10C8A00003D002465046F3F76CFEA87F3B4640F0AB
:10C8B0008001EA6819E06EE026701EE060B1B0FB0E
:10C8C000F8F308FB1300A66020B1607828B10023BC
:10C8D00006E014E06170FAE76670A368002BEBD005
:10C8E0002170A87F626840F08001009801F01AFB77
:10C8F0000028E1D1207800284DD12A4843E0E8B152
:10C9000095F82C20A2B995F82D3022695B1E1A40AB
:10C9100004EB82029665E2682B6B1344E3602F8C74
:10C920002A6817449F4200D8E2602269521C2261A3
:10C93000A8F10102104202D1617000E066706078D7
:10C94000002388B995F82C0018B92269A068904294
:10C9500002D12078022810D195F82D202069521E8E
:10C96000104004EB8000836D2170A87FE26840F0E6
:10C970008001009801F0D6FA08B1267002E0207814
:10C98000002808D1084850F82B00002803D001B037
:10C99000BDE8F04F0047BDE8F88F0000080D01002A
:10C9A0006C0D010008FF000050FF00002DE9F14F61
:10C9B00082B00298FFF762FE00287CD16649029897
:10C9C00051F820506C69287E0090A078012809D089
:10C9D0000026687E4FF00009012809D0A0780128C0
:10C9E00076D08BE0E97F009801F068FB0646F0E71F
:10C9F000A87E28B1A078012845D002284BD055E068
:10CA00005649009851F82000C06890F8950005EB51
:10CA10004000008D0190A078012824D11EB36769E1
:10CA200068686A8C391A0198D5F810B0101AA0EB12
:10CA3000010AB046504656450BD302465946384681
:10CA4000F3F79FFDA8EB0A006F68D3445FEA000884
:10CA500005D0424659463846F3F793FD474467618F
:10CA6000A0693044A061216AA069401A698C091A42
:10CA70000198B1EB400F17D30120A070DDE900034E
:10CA8000E97F2A690DE0002E63D084F80290A06946
:10CA90003044A0610CE00120A0706B8CE97F6269DA
:10CAA000009801F03FFA08B184F80290002E50D0AF
:10CAB0002B48029901E04CE00AE050F821100029CF
:10CAC00047D0226AA06903B0801ABDE8F04F08473A
:10CAD000A6B195F82E10A069491E084004EB80000D
:10CAE00006666069696B014461616A8C686802442A
:10CAF0008A4200D86061A069401CA06195F82C00B2
:10CB0000012801D038B116E0A078022813D1012005
:10CB1000A070236D09E0216AA069401A95F82E10D3
:10CB2000884208D20120A0706B6BE97F626900988F
:10CB300001F0F8F908B184F80290002E09D00948F4
:10CB4000029950F82100002803D003B0BDE8F04F4F
:10CB50000047BDE8FE8F0000080D01006C0D0100CC
:10CB600004FF000054FF000070B50446FFF786FD87
:10CB7000050025D1134850F82400407E01280AD032
:10CB8000114800BF50F8240000B180470F4E56F8FE
:10CB9000240010B108E00E48F4E721460320FDF719
:10CBA00017FD46F8240050B10A4E56F8240038B953
:10CBB00021460420FDF70CFD46F8240000B910259D
:10CBC000284670BD080D01004CFF0000889300202E
:10CBD00014FF0000009300202DE9F047C6B2304654
:10CBE000FFF74CFD00282FD14FF0FF3900274846B2
:10CBF000FDF7C2FD0101FAD4000A4007F7D530461F
:10CC0000FFF73CFD0028F2D1104951F826506C691D
:10CC100095F81880E078012808D1687F40F08001FD
:10CC2000404601F04BFAE178012909D00120E0707B
:10CC3000687F636A40F080014046AA6801F072F99B
:10CC40000028D4D0E770D2E7BDE8F087080D0100D6
:10CC500070B50E4605460024FFF710FD30B90448B4
:10CC600050F8252012B1304690470446204670BD4A
:10CC70002CFF00002DE9F04116460F460546002422
:10CC8000FFF7FCFC38B9054850F825201AB13146A9
:10CC90003846904704462046BDE8F08130FF00004A
:10CCA0002DE9F04116460F4605460024FFF7E6FC45
:10CCB00038B9054850F825201AB131463846904712
:10CCC00004462046BDE8F08134FF000070B50E46F2
:10CCD00005460024FFF7D2FC30B9044850F825205F
:10CCE00012B1304690470446204670BD38FF000020
:10CCF00070B50E4605460024FFF7C0FC30B9044865
:10CD000050F8252012B1304690470446204670BDA9
:10CD10003CFF000070B50E4605460024FFF7AEFC50
:10CD200030B9044850F8252012B1304690470446E7
:10CD3000204670BD40FF000070B50E460546002439
:10CD4000FFF79CFC30B9044850F8252012B130465A
:10CD500090470446204670BD44FF000070B50E4663
:10CD600005460024FFF78AFC30B9044850F8252016
:10CD700012B1304690470446204670BD48FF00007F
:10CD800070B50D4606460024FFF778FC68B90848E0
:10CD900050F8261049B128468847040005D00548B8
:10CDA00050F82600406980F82B50204670BD0000E6
:10CDB0005CFF0000080D01002DE9F04116460F460A
:10CDC00005460024FFF75AFC38B9054850F82520DD
:10CDD0001AB131463846904704462046BDE8F081F6
:10CDE00060FF000070B50E4605460024FFF746FCC4
:10CDF00030B9044850F8252012B130469047044617
:10CE0000204670BD64FF00002DE9F0411E46174624
:10CE1000884605460024FFF731FC40B9054850F824
:10CE2000253023B1324639464046984704462046CD
:10CE3000BDE8F08168FF000070B50E46054600248D
:10CE4000FFF71CFC60B9074850F8251041B1304687
:10CE50008847040004D0044850F8250040698685BE
:10CE6000204670BD6CFF0000080D010070B50E4635
:10CE700005460024FFF702FC30B9044850F825208D
:10CE800012B1304690470446204670BD70FF000046
:10CE900070B50D4606460024FFF7F0FB68B9084858
:10CEA00050F8261049B128468847040005D00548A7
:10CEB00050F82600406980F82A50204670BD0000D6
:10CEC00074FF0000080D010070B50E4605460024F1
:10CED000FFF7D4FB60B9074850F8251041B1304640
:10CEE0008847040004D0044850F8250040690663D0
:10CEF000204670BD78FF0000080D01002DE9F041CB
:10CF00000746FFF7BBFB002856D12C48002684219A
:10CF100050F827506C692046A6702670F3F74AFB3C
:10CF2000286860602868E060686860616868E0613F
:10CF3000687E012824D055F8300F20632889A08509
:10CF40001C2024F8680F15F8010C608028686060C8
:10CF500068892081A8896081E889A081E681686864
:10CF60002061288AA082688AE082A88A20831448E7
:10CF7000668350F8270000281ED0BDE8F041004726
:10CF8000A87E40B90F4826854FF4165101600671FE
:10CF90004671082181710C4850F8270000B1804784
:10CFA000A87E002808D1094850F82710002903D08E
:10CFB000BDE8F04103480847BDE8F081080D0100D5
:10CFC00058FF00002000002018FF000024FF000090
:10CFD0002DE9F0410446FFF751FB050020D1134E27
:10CFE000002756F8240020B1FDF702FC40B946F8AE
:10CFF00024700F4E56F8240030B1FDF7F9FB08B14C
:10D0000010250DE046F824700A4850F82400407EB0
:10D01000012808D0084800BF50F8240000B180471C
:10D020002846BDE8F0810548F6E70000009300209F
:10D0300088930020080D010084FF000028FF0000F5
:10D0400007490978884209D2064951F8200028B1D9
:10D05000C16819B1006808B10020704721207047ED
:10D06000680D01006C0D01002DE9F05F684905466F
:10D07000002009788D4232D2DFF8989159F82510B6
:10D0800000292CD0644951F82510CC68002C26D0FA
:10D0900094F8A010C1F34112012A20D1DFF87CA13D
:10D0A0005F4F11F01F0107D001291AD002293FD08C
:10D0B000032914D10026A7E000260DE05AF8261017
:10D0C0000978A94206D159F82610D4F8AC0088474F
:10D0D000002804D1761CF6B239788E42EED3BDE832
:10D0E000F09F0026BB461EE05AF8268098F80010F4
:10D0F000A94216D15FF0000707EBC70208EB420117
:10D100000A7952B1B4F8A42049798A4205D159F874
:10D110002610D4F8AC00884718B97F1CFFB2042F42
:10D12000EAD3761CF6B29BF800108E42DCD3D6E729
:10D130000026BB4654E000BF5AF8268098F800103D
:10D14000A9424BD15FF0000707EBC70208EB420191
:10D150000A79EAB38A7922B1B4F8A420CB799A4249
:10D1600030D00A7A22B1B4F8A4304A7A934229D056
:10D170008A7A22B1B4F8A420CB7A9A4222D00A7BD0
:10D1800022B1B4F8A4204B7B9A421BD08A7B22B1F7
:10D19000B4F8A420CB7B9A4214D00A7C22B1B4F814
:10D1A000A4204B7C9A420DD08A7C22B1B4F8A420F2
:10D1B000CB7C9A4206D00A7D52B1B4F8A420497DB6
:10D1C0008A4207D159F82610D4F8AC00884700E00D
:10D1D00000E018B97F1CFFB2042FB5D3761CF6B25D
:10D1E0009BF800108E42A7D379E700BF5AF82610AB
:10D1F0000978A94206D159F82610D4F8AC0088471E
:10D20000002894D1761CF6B239788E42EED366E7C8
:10D21000680D010088FF00006C0D0100640D010025
:10D22000600D01002DE9F05F68490546002009788E
:10D230008D4232D2DFF8989159F8251000292CD070
:10D24000644951F82510CC68002C26D094F8A01021
:10D25000C1F34112012A20D1DFF87CA15F4F11F008
:10D260001F0107D001291AD002293FD0032914D168
:10D270000026A7E000260DE05AF826100978A942FA
:10D2800006D159F82610D4F8AC008847002804D1FC
:10D29000761CF6B239788E42EED3BDE8F09F0026B8
:10D2A000BB461EE05AF8268098F80010A94216D115
:10D2B0005FF0000707EBC70208EB42010A7952B1A1
:10D2C000B4F8A42049798A4205D159F82610D4F837
:10D2D000AC00884718B97F1CFFB2042FEAD3761C34
:10D2E000F6B29BF800108E42DCD3D6E70026BB4690
:10D2F00054E000BF5AF8268098F80010A9424BD19C
:10D300005FF0000707EBC70208EB42010A79EAB3B6
:10D310008A7922B1B4F8A420CB799A4230D00A7A23
:10D3200022B1B4F8A4304A7A934229D08A7A22B141
:10D33000B4F8A420CB7A9A4222D00A7B22B1B4F866
:10D34000A4204B7B9A421BD08A7B22B1B4F8A42044
:10D35000CB7B9A4214D00A7C22B1B4F8A4204B7C37
:10D360009A420DD08A7C22B1B4F8A420CB7C9A4298
:10D3700006D00A7D52B1B4F8A420497D8A4207D173
:10D3800059F82610D4F8AC00884700E000E018B93E
:10D390007F1CFFB2042FB5D3761CF6B29BF80010A9
:10D3A0008E42A7D379E700BF5AF826100978A94220
:10D3B00006D159F82610D4F8AC008847002894D13B
:10D3C000761CF6B239788E42EED366E7680D01001E
:10D3D0008CFF00006C0D0100640D0100600D010068
:10D3E0002DE9F84F054667480078854235D2DFF8C9
:10D3F000989159F8250000282FD0644850F825004E
:10D40000C468002C29D094F8A000C0F34111012970
:10D4100023D1DFF87CA1DFF87C8110F01F0009D058
:10D4200001281CD0022843D0032816D100265746D5
:10D43000A034A2E000265746A0340AE057F82600A0
:10D440000078A84203D159F8261020468847761C58
:10D45000F6B298F800008642F0D3BDE8F88FCB46CC
:10D4600004F1A0000026C14600901CE05AF8268076
:10D4700098F80000A84214D15FF0000707EBC7013D
:10D4800008EB4100017941B1B4F8A4104079814220
:10D4900003D15BF82610009888477F1CFFB2042F49
:10D4A000ECD3761CF6B299F800008642DED3D4E7BE
:10D4B0000026C34651E000BF5AF8268098F80000C5
:10D4C000A84248D15FF0000707EBC70108EB410015
:10D4D0000179E1B3817921B1B4F8A410C279914204
:10D4E00030D0017A21B1B4F8A410427A914229D007
:10D4F000817A21B1B4F8A410C27A914222D0017B82
:10D5000021B1B4F8A410427B91421BD0817B21B1A0
:10D51000B4F8A410C27B914214D0017C21B1B4F8BC
:10D52000A410427C91420DD0817C21B1B4F8A410AA
:10D53000C27C914206D0017D49B1B4F8A410407D6F
:10D54000814204D159F8261004F1A00088477F1CBD
:10D55000FFB2042FB8D3761CF6B29BF800008642C7
:10D56000AAD37AE757F826000078A84203D159F8E1
:10D57000261020468847761CF6B298F800008642AE
:10D58000F0D36AE7680D010090FF00006C0D010008
:10D59000640D0100600D01002DE9FE4F7349054641
:10D5A000002009788D423DD2DFF8C49159F825104A
:10D5B000002937D06F4951F82510CC68002C31D0A4
:10D5C00094F8A010C1F34112012A2BD1DFF8A8A1D1
:10D5D0006A4F11F01F010CD0012925D0022951D02A
:10D5E00003291FD1002604F1AC0B04F1A808A034D4
:10D5F000B7E0002604F1AC0B04F1A808A0340EE05B
:10D600005AF826100978A94207D159F826305A4607
:10D61000414620469847002804D1761CF6B2397856
:10D620008E42EDD3BDE8FE8F0026BB4625E000BF4D
:10D630005AF8268098F80010A9421CD104F1AC01D8
:10D640000291091F002701910839009107EBC702D9
:10D6500008EB42010A7952B1B4F8A42049798A4210
:10D6600005D19DE8070059F82630984718B97F1C66
:10D67000FFB2042FEAD3761CF6B29BF800108E425C
:10D68000D6D3CFE70026BB4657E000BF5AF8268026
:10D6900098F80010A9424ED15FF0000707EBC702CF
:10D6A00008EB42010A79EAB38A7922B1B4F8A430CE
:10D6B000CA79934230D00A7A22B1B4F8A4204B7AC6
:10D6C0009A4229D08A7A22B1B4F8A420CB7A9A421D
:10D6D00022D00A7B22B1B4F8A4204B7B9A421BD003
:10D6E0008A7B22B1B4F8A420CB7B9A4214D00A7C66
:10D6F00022B1B4F8A4204B7C9A420DD08A7C22B18E
:10D70000B4F8A420CB7C9A4206D00A7D52B1B4F87A
:10D71000A420497D8A420AD104F1AC0259F826308E
:10D72000111F00E003E004F1A000984718B97F1C26
:10D73000FFB2042FB2D3761CF6B29BF800108E42D3
:10D74000A4D36FE75AF826100978A94207D159F8EF
:10D7500025305A46414620469847002891D1761CEC
:10D76000F6B239788E42EDD35CE70000680D010017
:10D7700094FF00006C0D0100640D0100600D0100BC
:10D7800070B505460024FFF75BFC30B9044850F83B
:10D790002500C068007900B10124204670BD00005A
:10D7A0006C0D010010B50446FFF74AFC002804D1B7
:10D7B0002046BDE8104000F089BA10BD70B504469F
:10D7C0002D4E0D46C80704D056F8241009B101208B
:10D7D0008847A80707D556F8241009B100208847C4
:10D7E000204601F0F5FE680721D5204601F0F0FE45
:10D7F000224850F824000668F078B38800F003024D
:10D80000B178204600F0CCFA48B9F078B38800F03F
:10D810000302B07840F08001204600F0C1FA2046B3
:10D82000FCF74EFE164850F8240000B18047280748
:10D830000BD51449012051F82410C96881F89500CE
:10D84000114850F8240000B18047E80604D50F487D
:10D8500050F8240000B18047A80604D50C4850F8C1
:10D86000240000B18047290A480704D02046BDE8BB
:10D87000704000F06DBD70BDE0FF00001801002099
:10D88000D0FF00006C0D0100C8FF0000D8FF0000B1
:10D89000D4FF000010B504460C480078844201D340
:10D8A000002010BD0A4850F82400C0680028F8D0B5
:10D8B0000849D0F8AC0051F8241088470028F0D16E
:10D8C0002046BDE81040FFF7CFBB0000680D010007
:10D8D0006C0D0100B8FF000010B504460C4800783C
:10D8E000844201D3002010BD0A4850F82400C068CB
:10D8F0000028F8D00849D0F8AC0051F82410884727
:10D900000028F0D12046BDE81040FFF78BBC000096
:10D91000680D01006C0D0100BCFF000010B504464D
:10D920000A48007884420FD2094850F82400C068A1
:10D93000002809D00749A03051F824108847204614
:10D94000BDE81040FFF74CBD10BD0000680D0100A0
:10D950006C0D0100C0FF000010B504460F480078B0
:10D96000844201D3002010BD0D4850F82400C06847
:10D970000028F8D00021C0F8A810C0F8AC10094960
:10D9800000F1AC0251F82430111FA0309847002854
:10D99000E9D12046BDE81040FFF7FEBD680D01004B
:10D9A0006C0D0100C4FF00002DE9F047C6B220480D
:10D9B0000078864239D21F4800244FF0FF3750F8D4
:10D9C0002600D0F800901C4850F82600C10708D067
:10D9D000810701D401246427400702D444F00204E3
:10D9E00064274FF00008E00701D0012119E0384614
:10D9F000FCF7C2FE0146000113D5D9F81C00804790
:10DA000000F001054545F2D0A846E00704D01DB15D
:10DA100001213046FFF7D2FEA007E8D5002DE6D160
:10DA200002213046FFF7CAFEE1E7BDE8F0870000BB
:10DA3000680D01006C0D0100E48200200B4909789B
:10DA4000884201D32A207047094951F8200009492A
:10DA500000780978884207D2074951F8200018B1A8
:10DA6000C06808B10020704721207047600D010098
:10DA7000640D0100680D01006C0D01002DE9F041FD
:10DA8000C4B22046FFF7DAFF002815D10B4E0C4D2B
:10DA9000471E3846FCF770FE0101FAD43278C0F315
:10DAA000033104FB0211C9B2C0F3032055F8211061
:10DAB0000029EED08847ECE7BDE8F081700D010049
:10DAC000E4FF000070B50D460446FFF7B7FF0028DD
:10DAD00008D1054850F82420002A03D02846BDE884
:10DAE0007040104770BD000098FF000070B50D46F3
:10DAF0000446FFF7A3FF002808D1054850F824206A
:10DB0000002A03D02846BDE87040104770BD0000D1
:10DB10009CFF00002DE9F0410546FFF78FFF00282C
:10DB200029D1174850F8250000B180471548012435
:10DB3000164E50F825004788134800EB851816E06C
:10DB4000C0B205FB0040124951F8201069B1012113
:10DB5000A140394209D058F8241031B9C1B201208E
:10DB6000FCF736FD48F8240038B1641CE4B2307884
:10DB70008442E5D30020BDE8F0811020FBE70000DF
:10DB8000A0FF0000640D010090930020700D0100C3
:10DB90001C01002010B50446FFF750FF002807D1F4
:10DBA000044850F82400002802D0BDE81040004787
:10DBB00010BD0000A4FF00002DE9F05F0546FFF74F
:10DBC0003DFF00281FD118480124194E50F82500A8
:10DBD000DFF86080A246478814484FF0000B00EB46
:10DBE000851916E0C0B205FB004158F8210070B15C
:10DBF0000AFA04F038420AD059F8240038B1FCF788
:10DC0000F7FD10B11020BDE8F09F49F824B0641C66
:10DC1000E4B230788442E5D3074850F8250000B1DB
:10DC200080470020EFE70000640D01009093002082
:10DC3000700D01001C010020A8FF000070B51749FD
:10DC400051F82010C9B1CC68BCB1D4F89C20002593
:10DC5000AAB1497D491E0A4202D1012184F89610D9
:10DC6000D4E92623802100F05DF9002804D1F4E9ED
:10DC700026121144C4E9001570BD212070BD94F82E
:10DC8000961049B100231A46802100F04BF9002874
:10DC9000F4D184F8965070BD222070BD6C0D010047
:10DCA000094910B551F82010CC680021D4E9262389
:10DCB00000F038F9002805D1F4E926010844206075
:10DCC0000020606010BD00006C0D01002DE9F041E6
:10DCD00005460324154E08E056F825006421FCF79C
:10DCE000FBFB28B10A20FCF71FF8641EE4B2F3D254
:10DCF000BCB1DFF83C80022758F825000068406975
:10DD00008047040005D00A20FCF70EF87F1EFFB202
:10DD1000F2D256F82500FCF751FC24B12220BDE8D0
:10DD2000F0812320FBE70020F9E70000F8930020B2
:10DD30006C0D01002DE9F047894605460324164E77
:10DD400009E000BF56F825006421FCF7C5FB28B1A7
:10DD50000A20FBF7E9FF641EE4B2F3D2C4B1DFF896
:10DD60003C80022758F825000068416A48468847E9
:10DD7000040005D00A20FBF7D7FF7F1EFFB2F1D2C7
:10DD800056F82500FCF71AFC24B12220BDE8F087E4
:10DD90002320FBE70020F9E7F89300206C0D010039
:10DDA0002DE9FF5F894601F00F020546102101EAC7
:10DDB000D9002C499B4610440B786B4302EB43027D
:10DDC000D4B2102802D309782144CCB2264F1422B1
:10DDD00002EB800057F82510C968085820B1494661
:10DDE000284600F011F9A0BBDFF88080022600BFB2
:10DDF00058F824006421FCF76FFB28B10A20FBF7D8
:10DE000093FF761EF6B2F3D24EB303264FEA070A0B
:10DE10005A465AF8250002990068C36A484698474E
:10DE20000746801D06280CD2DFE800F00B0B0B0321
:10DE30000303761E16F0FF0603D00A20FBF774FFDB
:10DE4000E6E758F82400FCF7B9FB17F1020F06D0FB
:10DE50001FB1222004B0BDE8F09F0020FAE7232084
:10DE6000F8E70000700D01006C0D0100D093002058
:10DE70002DE9F05F9346894601F00F020546102117
:10DE800001EAD900244910440B786B4302EB4302AA
:10DE9000D4B2102802D309782144CCB2DFF87CA098
:10DEA000142202EB80005AF82510C968085820B1E6
:10DEB0004946284600F0A8F838BBDFF864800226FF
:10DEC000642158F82400FCF707FB28B10A20FBF76F
:10DED0002BFF761EF6B2F3D2E6B102275AF82500E0
:10DEE00059460068426B48469047060005D00A2014
:10DEF000FBF71AFF7F1EFFB2F0D258F82400FCF7A0
:10DF00005DFB16F1020F05D016B12220BDE8F09F8F
:10DF10000020FBE72320F9E7700D01006C0D0100E4
:10DF2000D09300202DE9FF5F884601F00F03334AAC
:10DF30000446102101EAD80018440127157807FA91
:10DF400000F1654303EB4503DDB2102802D31278DC
:10DF50002A44D5B22A4B53F82420D268D6680E4200
:10DF60004AD1142101EB80099A4652F8090038B1D0
:10DF70005FEA087040D14146204600F045F8A8BB52
:10DF8000DFF880B0022600BF5BF825006421FCF7B3
:10DF9000A3FA28B10A20FBF7C7FE761EF6B2F3D229
:10DFA00056B35AF82410CA6842F809705FF00207A5
:10DFB0005AF82400DDE902120068836B4046984756
:10DFC00006000BD00A20FBF7AFFE7F1EFFB2EFD298
:10DFD0005AF824000021C26842F809105BF82500B5
:10DFE000FCF7ECFA16F1020F06D01EB1222004B0A5
:10DFF000BDE8F09F0020FAE72320F8E7700D01004C
:10E000006C0D0100D09300202DE9F05F8A4601F0ED
:10E010000F020446102101EADA00254910440B786A
:10E02000634302EB4302D5B2102802D30978294496
:10E03000CDB2DFF8808058F82410CA68142101EBB3
:10E04000800B52F80B00002820D0DFF86C900226DD
:10E05000642159F82500FCF73FFA28B10A20FBF7A4
:10E0600063FE761EF6B2F3D27EB1022758F8240082
:10E070000068016C50468847060009D00A20FBF76B
:10E0800053FE7F1EFFB2F1D208E02320BDE8F09FCF
:10E0900058F824000021C26842F80B1059F82500F6
:10E0A000FCF78CFA0EB12220F0E70020EEE700002A
:10E0B000700D01006C0D0100D09300202DE9F0419E
:10E0C00080460E46102001F00F0200EAD60011181B
:10E0D00015481029047808FB04F302EB4302D4B27C
:10E0E00002D300782044C4B2104F0225642157F8AF
:10E0F0002400FCF7F1F928B10A20FBF715FE6D1E8C
:10E10000EDB2F3D275B10A4951F828000068C16B2D
:10E1100030468847054657F82400FCF74FFA284652
:10E12000BDE8F0810020FBE7700D0100D0930020D6
:10E130006C0D01002DE9F047894601F00F020546FC
:10E14000102101EAD900254910440B786B4302EBFA
:10E150004302D4B2102802D309782144CCB2DFF8AC
:10E1600080A0142202EB80005AF82510C9680858D4
:10E1700020B149462846FFF747FF38BBDFF86480E7
:10E18000022600BF58F824006421FCF7A5F928B145
:10E190000A20FBF7C9FD761EF6B2F3D2DEB10227E4
:10E1A0005AF825000068016B48468847060005D0EC
:10E1B0000A20FBF7B9FD7F1EFFB2F1D258F8240008
:10E1C000FCF7FCF916F1020F05D016B12220BDE8CC
:10E1D000F0870020FBE72320F9E70000700D010025
:10E1E0006C0D0100D0930020024951F82000006816
:10E1F000406800476C0D0100024951F8200000689A
:10E20000006800476C0D01002DE9F04791468A46F1
:10E2100005460324164E08E056F825006421FCF755
:10E220005BF928B10A20FBF77FFD641EE4B2F3D24C
:10E23000CCB1DFF840800227494658F82500006835
:10E24000826850469047040005D00A20FBF76CFD19
:10E250007F1EFFB2F0D256F82500FCF7AFF924B1CB
:10E260002220BDE8F0872320FBE70020F9E700002B
:10E27000F89300206C0D01002DE9F0478946054612
:10E280000324164E09E000BF56F825006421FCF770
:10E2900023F928B10A20FBF747FD641EE4B2F3D24C
:10E2A000C4B1DFF83C80022758F8250000680169F6
:10E2B00048468847040005D00A20FBF735FD7F1E3D
:10E2C000FFB2F1D256F82500FCF778F924B12220EC
:10E2D000BDE8F0872320FBE70020F9E7F893002052
:10E2E0006C0D01002DE9F047894605460324164EC2
:10E2F00009E000BF56F825006421FCF7EDF828B1CD
:10E300000A20FBF711FD641EE4B2F3D2C4B1DFF8BA
:10E310003C80022758F825000068816A48468847F3
:10E32000040005D00A20FBF7FFFC7F1EFFB2F1D2EC
:10E3300056F82500FCF742F924B12220BDE8F08709
:10E340002320FBE70020F9E7F89300206C0D010083
:10E350002DE9F0470546DC4888460078854278D2AA
:10E36000DFF8689359F82570002F72D0FC68002CF4
:10E370006FD05FEA48704FF0000632D594F8A000E5
:10E38000000621D5D4F89C0010B994F8960020B16D
:10E390002846FFF753FC20B30AE094F8970000B337
:10E3A00084F897602846FFF775FA48B1012807D02E
:10E3B000012200212846FFF75BFDC4F89C6010E0B5
:10E3C000284601F084F90CE0284601F078F940B9BC
:10E3D0006078010605D500F07F0161702846FFF7DF
:10E3E000A9FC5FEA887045D594F8A00001063ED4E8
:10E3F000D4F89C1021B12846FFF752FC50B32EE010
:10E4000094F8971059B184F897602846FFF764FA9A
:10E4100008B1012823D1284601F04CF92AE0C0F3C5
:10E420004111E1B101291AD110F01F0017D00128C4
:10E4300002D0022813D10EE02846FBF719FD48B997
:10E440002846FBF713FD28B9284600F041F908B922
:10E4500005E04AE00EE02846FBF706FDF7E701225B
:10E4600080212846FFF704FDC4F89C6002E028469E
:10E4700001F032F95FEAC87037D02846C84659F82B
:10E480002010C968A031FFF72DFF00282DD12846A4
:10E49000FFF762FA0121B8B3012863D1D4F8A800CC
:10E4A00018B9D4F8AC20002A5CD1B4F8A620F2B197
:10E4B000C4F89800D4F8AC00C4F89C0084F8971015
:10E4C00094F8A0301B0603D42846FFF7E9FB0AE0C6
:10E4D000904205D27A7D521E104201D184F89610E6
:10E4E0002846FFF7ABFB00283CD1BDE8F08794F845
:10E4F000A0000006284603D4BDE8F04701F0DAB8D2
:10E50000BDE8F04701F0E3B8B868C4F89800B4F883
:10E51000A6007A8B904202D9C4F89C2001E0C4F88E
:10E520009C0094F8A000C0F3411222B1012A7DD0D2
:10E53000022A17D19BE094F8A1000C2812D2DFE840
:10E5400000F00612AF14AF1A34AF3A505471284697
:10E5500000F05EFD2CE02846FFF7E0F92846FFF7C3
:10E560006DFBE0B39CE0002100E00121284600F0B3
:10E57000A9FD98B994E058F82500C06880B3B0F8B8
:10E58000A41069BBB0F8A61051BB90F8A010C90642
:10E5900026D190F8A21041F0800141702846FFF783
:10E5A000BDF9284601F086F868E0284600F00CFC2A
:10E5B0000028D0D174E058F82500C06880B1B0F8C8
:10E5C000A2206AB9B0F8A42052B9B0F8A620012A56
:10E5D00066D190F8A020D20662D1021D1EE04AE06A
:10E5E00040E0284600F0F4FDC3E758F82520CAB300
:10E5F000D068B8B3B0F8A230A3BBB0F8A630012BF6
:10E600004ED190F8A03003F01F03012B48D1B0F891
:10E61000A430578ABB4243D252681A44C0E926212B
:10E6200099E703E0284600F007FFA2E710F01F007B
:10E6300036D0012802D0022832D114E02846FBF758
:10E640001FFC58B92846FBF71DFC38B92846FBF7D4
:10E6500015FC18B9284600F0FFF818B12846FFF756
:10E660005DF90BE01CE02846FBF706FCF5E72846C1
:10E6700000F074FC9CE7284601F029F894F8A0000B
:10E6800000063FF532AFB4F8A60000283FF42DAFE6
:10E690002846FFF705FB0028F8D00122802109E079
:10E6A00094F8A0000006B4F8A60009D40028F4D01D
:10E6B000012200212846FFF7DBFBC4F89C6014E729
:10E6C0000028EAD1F4E70000680D01006C0D01009C
:10E6D0002DE9F04107463B48007887426BD23A4823
:10E6E00050F82750002D66D0EC688CB30026DFF878
:10E6F000DC805CE0364850F8260040B3017EB94229
:10E7000053D1B4F8A410C27E914202D0007F81425E
:10E710004BD194F8A10041282CD007DC68B1022825
:10E7200017D020281BD040283FD11CE082282AD0B7
:10E7300086282DD0882838D130E0B4F8A61030468D
:10E74000FDF732FE2FE0384600F0B4FFB0B32CE006
:10E7500031E0B4F8A2103046FDF744FE23E0304625
:10E76000FDF75CFE1FE0B4F8A2203046A968FEF772
:10E7700023FB18E0B4F8A630B4F8A2103046AA681B
:10E78000FEF742FB0FE03046A968FEF76FFB0AE098
:10E79000A86801683046FEF797FB04E0A868018886
:10E7A0003046FEF749FB0028CDD1761CF6B298F82A
:10E7B000000086429ED30020BDE8F081FFE70120E3
:10E7C000FAE70000680D01006C0D0100040D010066
:10E7D000080D0100F0B51B4A127890422FD21A4A58
:10E7E00052F82020D56855B30023DFF860C0184FD9
:10E7F00022E000BF5CF82340227882421AD1002236
:10E8000002EBC20604EB460696F804E0BEF1000FE8
:10E810000CD095F8A2E07679B64507D10D4850F8AE
:10E82000230050F8220008600120F0BD521CD2B233
:10E83000042AE5D35B1CDBB23A789342DAD300209A
:10E84000F0BD0000680D01006C0D0100640D0100B9
:10E85000600D0100900C01002DE9FC5FC749804666
:10E860000978884277D2C64951F82850002D72D0D5
:10E87000EC68002CFBD000274FF0040B4FF002098E
:10E88000DFF800A372E1C04850F82760002E6ED078
:10E89000307E40456BD1B4F8A400F17E884202D0AE
:10E8A000317F8842F6D194F8A100432876D01DDC50
:10E8B000212874D00DDC03285AD005DC80B3012850
:10E8C00032D00228E6D147E004285DD02028E1D1EB
:10E8D00068E0402871D004DC22286FD02328D9D1E9
:10E8E0008DE041281CD04228D4D1C2E0852874D0C4
:10E8F0000EDC822872D006DC442870D080286FD0CD
:10E900008128C7D1E6E083286BD08428C2D1FBE000
:10E91000863805282BD2DFE800F09DF01FEFEE00CF
:10E92000A868C4F898009FE000200090ADF80400AB
:10E93000B4F8A61001AB6A463846FDF7F1FC002892
:10E9400015D00099002906D0BDF80400002802D097
:10E95000C4E9261012E07BE0D4F89C00022877D3AB
:10E96000A868C4F898007FD9C4F89C907CE070E057
:10E97000B4F8A2103846FDF7D1FC80E04046FFF71E
:10E980005DF9002874D0EFE0B4F8A60000285FD14C
:10E99000B4F8A2103846FDF7BFFC2BE07AE00EE099
:10E9A000B0B3E1E0D4F89C00072851D3A868C4F8BC
:10E9B000980059D94FF007003CE02AE012E03846B1
:10E9C000FDF7C6FC002844D0A868C4F89800D4F825
:10E9D0009C000728D2D9072089E09FE02DE062E063
:10E9E00068E08CE0B4F8A60090BBB4F8A2103846FA
:10E9F000FDF7FAFC68B3404600F05CFED0E7B4F8DF
:10EA0000A60028BBB4F8A2103846FDF7CBFCF1E70E
:10EA100012E0B4F8A200D4F89C1000EB4002B1EB75
:10EA2000420F15D3A968C4F898101DD900EB400017
:10EA30004FEA4000C4F89C0016E0D4F89C00062879
:10EA400006D3A868C4F898000ED94FF00600F1E785
:10EA500054E04FE0D4F89C0004284FD3A868C4F8D1
:10EA6000980001D9C4F89CB04FF00100BDE8FC9FAC
:10EA70006DE0B4F8A2103846AA68FEF7FBF8C8B3F8
:10EA8000A868C4F89800D4F89C000228A2D9C4F859
:10EA90009C9073E7B4F8A60080BBB4F8A210384687
:10EAA000FEF7A0F9A6E7B4F8A2103846AA68FEF768
:10EAB000F7F837E0716938466831FEF74FF9C8B1A9
:10EAC00070696830C4F89800D4F89C001C28E0D91C
:10EAD0001C200CE03846A968FEF70AF950B1A86876
:10EAE000C4F89800D4F89C000628D2D90620C4F8AF
:10EAF0009C0043E738E02EE024E01EE03BE038468F
:10EB0000A968FEF707F9BAE7B4F8A60098BB7069E0
:10EB100090F82A103846FEF7BBF96BE73846A9682B
:10EB2000FEF70AF900B3A868C4F89800D4F89C006E
:10EB30000428AED9C4F89CB020E73846A968FEF78F
:10EB4000C5F89CE73846A968FEF782F897E7404683
:10EB500000F0BDFD24E7B4F8A60060B9B4F8A21037
:10EB60003846FEF70DF945E77F1CFFB29AF8000022
:10EB70008742FFF488AE002078E70000680D0100AE
:10EB80006C0D0100040D0100080D010070B50C466C
:10EB90000546FEF755FA002805D121462846BDE86E
:10EBA0007040FFF731BA70BD2DE9F0411C461546A3
:10EBB0000E460746FEF744FA002807D123462A46A8
:10EBC00031463846BDE8F041FFF7ACB9BDE8F08109
:10EBD00070B50C460546FEF733FA08B1002070BD4B
:10EBE00021462846BDE87040FFF768BA2DE9F0419C
:10EBF0001D4616460C460746FEF722FA002808D1A5
:10EC000044F080012B4632463846BDE8F041FFF71C
:10EC100089B9BDE8F08100002DE9F05F0446FEF7F8
:10EC20000FFA050078D15C4850F82400C76838789E
:10EC300010B10020BDE8F09F2046FFF7DDFA5749EC
:10EC400001EB840108602046FFF7CEFA544941F8F1
:10EC50002400B0213846F1F7ADFCDFF84CA1DFF815
:10EC60004491DFF848B19AF8000059F8241004FBE9
:10EC700000F639B9002221461046FBF763FC49F83B
:10EC8000240078B3002510E005EB460000F0FF08F3
:10EC90005BF8280038B92A4621460120FBF752FCD0
:10ECA0004BF82800F0B16D1CEDB29AF80000B5EBFE
:10ECB000400FE9D33E4850F82400426A3AB1364842
:10ECC00050F82400C18A11B11046F1F773FC39489D
:10ECD00050F8240000B180472046FAF755FF0500A0
:10ECE00023D102E0FFE712251FE0334D55F8240041
:10ECF00030B921460020FBF76BFC45F8240060B1D9
:10ED00002E4850F824202E4850F824102046FFF7B3
:10ED10007BFA050009D102E03BE010250EE002215C
:10ED20002046FFF7A9FA050012D0234F57F8240018
:10ED300020B1FBF75DFD002047F824002046FAF7DC
:10ED400035FF204850F8240000B18047002712E02A
:10ED5000012038701DE000BF07EB460000F0FF08FF
:10ED60005BF8281029B10846FBF720FC00204BF87F
:10ED700028007F1CFFB29AF80000B7EB400FEBD3DE
:10ED800059F824004E4620B1FBF710FC002046F84D
:10ED9000240028464EE700006C0D0100FC93002083
:10EDA000E4820020F8930020700D0100D093002031
:10EDB00018010020CCFF00008C930020F80B01000C
:10EDC000F40B0100DCFF00002DE9F0415F490978F8
:10EDD000884273D25E4951F82060002E6ED0F568EB
:10EDE000002D6BD0B5F8A610002967D095F8A010BB
:10EDF000584C11F01F0102D001295FD186E0B5F80F
:10EE0000A2205549130A082B58D2DFE803F09004DA
:10EE10001D5890900E3F12F0FF0F4FD151F8200077
:10EE20004068C5F8980012206EE0727C002A7ED0FF
:10EE300095F8952051F8200022B1C068C5F89800D7
:10EE40000A2061E08068F9E7737C002B95F8953023
:10EE500007D03BB151F82000406920600020D2B2B9
:10EE60000BE05BBB51F820000069F6E721680B78E6
:10EE700013B14B8819442160401C8242F6D12068AE
:10EE80000178D9B1C5F8980040883DE0737CABB1FA
:10EE900095F8953051F8200023B1C069206000201A
:10EEA000D2B208E08069F9E721680B7813B14B888A
:10EEB00019442160401C8242F6D1E0E737E0D2B22B
:10EEC000032A05D151F820305B6A0BB11F782FB9A6
:10EED000EE2A05D151F820309B6A0BB123600DE07A
:10EEE00051F82000006A2060002005E023681978AE
:10EEF00009B119442160401C8242F7D12068017891
:10EF0000A9B1C5F898000078606009E0114A121DA7
:10EF1000111FFAF7AFFF00280AD02068C5F8980043
:10EF2000B5F8A6006168884204D3084603E00020D3
:10EF3000BDE8F0816060C5F89C00717D491E01420A
:10EF400002D1012085F896000120F1E7680D01004B
:10EF50006C0D0100000000201801002070B5284948
:10EF60000978884220D2274951F82060E6B1F46838
:10EF7000D4B194F8A110327E914215D1B4F8A21008
:10EF8000090A11D1B4F8A61071B194F8A0101E4D61
:10EF900011F01F0102D0012906D10EE0B4F8A4102F
:10EFA000042903D005290CD0002070BD174951F861
:10EFB0002000C06A80B1A8600AE0B4F8A410052956
:10EFC0000AD111490831FFF705FC0028EDD0A868E7
:10EFD000C4F898000068E860B4F8A600E9688842C0
:10EFE00001D3084600E0E860C4F89C00717D491E2A
:10EFF000014202D1012084F89600012070BD00007A
:10F00000680D01006C0D01000000002018010020B7
:10F01000F0B52A49097888424ED2294951F8202072
:10F02000F2B3D068002846D0926800F19801BAB3D4
:10F03000B0F8A230A3BBB0F8A630022B3CD190F8B8
:10F04000A0304FF0020613F01F0305D00024012B5F
:10F0500009D0022B30D110E0B0F8A42002BB801CF4
:10F06000C1E9000626E00379D3B190F8A43090F806
:10F070009400834220D2147019E090F8A430102735
:10F0800003F08F0505F00F0307EAD5071F4401239E
:10F09000BB4007790FB92D070ED185681D4200E0EE
:10F0A0000AE009D0C068184000D0012010705470E8
:10F0B000C1E900260120F0BD0020F0BD680D01006F
:10F0C0006C0D01002DE9F04107463D48007887426C
:10F0D00065D23C4850F82700C468002C5FD0B4F8D3
:10F0E000A600E8BB94F8A00010F01F0004D001288F
:10F0F00055D0022853D117E0B4F8A20001284ED110
:10F1000041B1314850F8270000B18047608840F095
:10F11000020007E02D4850F8270000B180476088C2
:10F1200020F00200608048E094F8A400102200F073
:10F130008F0606F00F0002EAD6021044012522795C
:10F1400085406AB1A2682A4229D0B4F8A220A2BBA5
:10F15000320724D0C1B104EB8000406930B100E037
:10F160001DE031463846FEF74FFFC0B90122314657
:10F170003846FEF77DFE90B9E06831462843E060EE
:10F180003846FAF77FFF18E0D4E903010840284227
:10F1900013D1002231463846FEF76AFE10B1002036
:10F1A000BDE8F081E0683146A843E0603846FAF7F0
:10F1B00059FE31463846FAF735FF0120F0E70000E6
:10F1C000680D01006C0D0100B4FF0000B0FF0000ED
:10F1D0002DE9FC5F94498046097888427ED29349A4
:10F1E00051F82870002F79D0FC68002CFBD0B4F8BF
:10F1F000A400002872D1B4F8A6000028FAD100902B
:10F2000094F8A00010F01F0FF4D194F8A2004FF072
:10F21000000A10F0FF0F4FF0010B4FF4803977D048
:10F22000797C8348002994F8951004D029B150F8CE
:10F23000280045699DE00029DCD150F828000569C7
:10F2400097E06878022804D0042868D0052863D1A4
:10F2500068E0697994F8A20081425ED129797A8ABE
:10F2600091423BD82071287984F89400002003E073
:10F270007A6802F800A0401C798A8142F8D80126F9
:10F28000A1680BFA06F0014213D004EB8600406936
:10F2900028B131464046FEF7B7FE00281ED1314660
:10F2A0004046FEF747FF002818D131464046FAF79E
:10F2B000E9FEA16809FA06F0014218D004EB8600C5
:10F2C000406D30B146F080014046FEF79DFE0028BB
:10F2D00004D146F080014046019100E075E0FEF760
:10F2E00029FF002871D140460199FAF7CBFE761C20
:10F2F000F6B2102EC4D34FF00110C4E9020AC4F8CC
:10F3000010A0E8794006608803D540F0010002E0D3
:10F3100034E020F00100608029E0688828E0E87887
:10F32000009024E0009810BBA878102200F08F0114
:10F3300001F00F0002EAD10210440BFA00F604EBD0
:10F340008000406918B14046FEF75EFEE8BBA06849
:10F350003043A060E878AB8800F00302A97840460B
:10F36000FEF71EFD88BBA9784046FAF75BFE2878B9
:10F370000544287800287FF464AF41E0564684F8BD
:10F3800004A001254FEA0B07A16807FA05F0014226
:10F3900011D004EB8500406920B129464046FEF7B4
:10F3A00033FE90B929464046FEF7C4FE68B92946A7
:10F3B0004046FAF767FEA16809FA05F0014216D047
:10F3C00004EB8500406D38B100E02BE045F0800192
:10F3D0004046FEF719FE28BB45F080018A464046AC
:10F3E000FEF7A8FEF0B951464046FAF74BFE6D1CF9
:10F3F000EDB2102DC8D34FF00110C4E9020626610A
:10F40000207994F8A21088420CD121794046FBF76C
:10F41000DDF8084850F8281009B120798847012004
:10F42000BDE8FC9F0020FBE7680D01006C0D0100AA
:10F4300018010020ACFF00002DE9FE4F074661488F
:10F44000007887427ED2604850F82760002E79D03D
:10F45000F468002C76D0B4F8A600002872D1834658
:10F46000CDF808B094F8A000D84600F01F00DA46A6
:10F47000D946012866D12079002871D0717C534883
:10F48000002994F8951004D029B150F82700456957
:10F490008CE0002956D150F82700056986E068788D
:10F4A000022804D0042808D005287DD11FE06879FF
:10F4B0002179884278D0688877E0B4F8A400718A0E
:10F4C00088426AD295F8028095F803A04FF0000BAD
:10F4D000404569D1B4F8A210514565D170684FF02C
:10F4E000010910F80810029100F808A05CE0B4F8D7
:10F4F000A410414558D1A878102200F08F0000F0E8
:10F500000F01009002EAD0000844012181400191DE
:10F51000B4F8A220524524D1A168019A04EB8000DE
:10F520001143A160E168019A9143E160406920B113
:10F5300038460099FEF768FD20B9E878AB8800F0FE
:10F54000030200E029E0A9783846FEF729FC20BB39
:10F5500038460099FAF766FD01994BEA010B23E062
:10F560001CE0029A92451FD1019A1BEA020F1BD19F
:10F57000A16804EB80009143A160E168019A914386
:10F58000E160406920B138460099FEF73DFD20B9A1
:10F5900038460099FEF7CEFD10B10020BDE8FE8F81
:10F5A00038460099FAF76EFD287805442878002837
:10F5B0007FF475AFB9F1000F01D084F8058048469B
:10F5C000ECE70000680D01006C0D0100180100203F
:10F5D00070B5084D0446AF2155F82400C068401CA2
:10F5E000F0F7E8FF55F82400017CC068C1F38011F2
:10F5F000418070BD6C0D01002DE9F0410F460446BD
:10F60000FDF71EFD050022D1124850F82460A6B176
:10F61000114850F82400446A8CB13846F0F7D5FF01
:10F62000F18A814200D20846022202EB4002227097
:10F630000322A11C6270002207E0212507E0FF25BC
:10F6400005E0BB5C21F8023B521C8242F9D32846FC
:10F65000BDE8F0816C0D010018010020024A52F84B
:10F660002000FBF783B800008C930020F0B40E4D0F
:10F6700001F00F03102455F8205004EAD101194479
:10F68000ED68142606EB810100246C50190341EA51
:10F690000221064A127800FB0230054A52F8200087
:10F6A0000068F0BCFBF762B86C0D0100700D010042
:10F6B0001C01002000231A468021FEF733BC10B540
:10F6C0008021FEF7FBFC002800D0222010BD002383
:10F6D0001A461946FEF726BC10B504460021FEF76F
:10F6E000EDFC08B1222010BD064850F82400C06887
:10F6F000406D0028F7D02046BDE810408021FEF77D
:10F7000083BC00006C0D01000FB47CB50C0009AD8A
:10F7100001D0611E00E00021CDE90001064B6A46E0
:10F720002946089800F01AF8002C02D0009A00210F
:10F7300011707CBC5DF814FBBFFB000002E008C840
:10F74000121F08C1002AFAD170477047002001E05B
:10F7500001C1121F002AFBD1704700002DE9FF4FA5
:10F760008DB00F460546002606E025280BD0DDE9C2
:10F770000F1290476D1C761C28780028F5D111B027
:10F780003046BDE8F08F0024A246A1460122EC4994
:10F7900000E0044315F8013F203B02FA03F0084261
:10F7A000F7D128782A2810D06FF02F022878A0F1FE
:10F7B0003001092914D80AEB8A0102EB410144F017
:10F7C000020400EB010A6D1CF0E701CF5FEA000ABA
:10F7D00003D544F40054CAF1000A44F002046D1C3D
:10F7E00028782E2817D115F8010F44F004042A2890
:10F7F0000ED06FF02F022878A0F1300109290AD825
:10F8000009EB890102EB410100EB01096D1CF2E7F4
:10F8100057F8049B6D1C28786C280FD006DC4C2808
:10F8200017D068280DD06A2814D104E0742810D0AD
:10F830007A280FD10DE044F400140AE044F4801457
:10F8400001E044F440146978814202D104F5801447
:10F850006D1C6D1C2A786E2A1FD00CDC632A31D0F7
:10F8600004DC002A8BD0582A11D1A3E0642A68D086
:10F87000692A0CD165E0732A2ED004DC6F2A73D07C
:10F88000702A04D19BE0752A6FD0782A6ED010467A
:10F89000DDE90F129047761C50E1C4F302500228B4
:10F8A00006D0032809D0042801CF09D0066045E11D
:10F8B00001CFF117C0E9006140E101CF06803DE1D1
:10F8C00006703BE117F8040B8DF8000000208DF85E
:10F8D0000100EB46012003E057F804BB4FF0FF3076
:10F8E00061074FF0000102D40DE008F101018846E4
:10F8F00049450FDA8045F8DB1BF808100029F4D1E0
:10F9000008E008F1010188468142FADB1BF8081083
:10F910000029F6D1DDE90F23AAEB08008146214634
:10F9200000F036F9304400EB080604E0DDE90F1280
:10F930001BF8010B9047B8F10108F7D22146484661
:10F94000F7E00A21C4F302534FF0000B0891022B99
:10F9500004D001CFC117032B09D00AE0FF1D27F007
:10F960000707F7E8020108E032E01FE020E000B2FC
:10F97000C117042B01D140B2C117031E71F100035E
:10F9800007DA4FF0000CD0EB0C006CEB01012D23DB
:10F9900002E0230504D52B238DF82430012303E056
:10F9A000E30701D02023F7E7984658E00A2110E04A
:10F9B00010210EE010204FF0000B08900CE01021F9
:10F9C0004FF0000B44F004044FF00809089103E0E5
:10F9D00008214FF0000B0891C4F30253022B04D00E
:10F9E00001CF0021032B06D006E0FF1D27F00707FB
:10F9F000F7E8020103E080B2042B00D1C0B24FF05F
:10FA0000000823072BD5702A07D0DDF820C08CF022
:10FA1000100C5CEA0B0C05D00EE040238DF824306E
:10FA2000012308E050EA010306D030238DF824308A
:10FA30008DF8252002239846DDF820C08CF0080CB4
:10FA40005CEA0B0C0BD150EA010301D1630706D528
:10FA500030238DF824304FF00108A9F10109582A0C
:10FA600004D038A20B9208AA0A920BE03AA2F9E756
:10FA70005B46089AF0F754FD0B9B9B5C0A9A521E5A
:10FA80000A92137050EA0102F2D10A98ADEB00001D
:10FA900000F1200B600702D524F4803401E04FF020
:10FAA0000109D94502DDA9EB0B0000E0002000EBC5
:10FAB0000B0141440890AAEB010AE00306D4DDE9FA
:10FAC0000F232146504600F063F806444FF000092A
:10FAD00008E009A911F80900DDE90F12904709F1C2
:10FAE0000109761CC145F4DBE0030CD5DDE90F23E9
:10FAF0002146504600F04CF8064404E0DDE90F12C0
:10FB000030209047761C0899481E08900029F5DCA3
:10FB100008E00A980A990078491C0A91DDE90F1259
:10FB20009047761CBBF10001ABF1010BF1DC2146E3
:10FB30005046DDE90F2300F019F806446D1C1BE662
:10FB400009280100303132333435363738396162B3
:10FB50006364656600000000303132333435363777
:10FB60003839414243444546000000002DE9F04148
:10FB7000044600251E461746880404D405E039468D
:10FB80002020B0476D1C641EF9D52846BDE8F081E1
:10FB90002DE9F041044600251E469046C80301D5D4
:10FBA000302700E02027880404D505E04146384688
:10FBB000B0476D1C641EF9D52846BDE8F0814A683F
:10FBC000002A06D00A68531C0B6010704868401E5B
:10FBD0004860704701000000E803000005000000D5
:10FBE000584D002020000000000000000000000030
:10FBF0000000000000000000000000000000000005
:10FC0000D84D00200010000000000000000000009F
:10FC100000000000000000000000000000000000E4
:10FC2000000000000000000000040000FCFF0000D5
:10FC300038000100FDB50000DDB500002000010026
:10FC400004000000105F0020FC61002000000000A4
:10FC500000000000000000000000000000000000A4
:10FC600000000000605E0020105F00200000000027
:10FC700000000000DC5D0020105E0020000000009D
:10FC8000010000000200000003000000040000006A
:10FC90000000000000000000000000000000000064
:10FCA0000000000000000000000000000000000054
:10FCB000000000000000000000000000050000003F
:10FCC0000600000007000000000000000000000027
:10FCD0000000000000000000000000000000000024
:10FCE0001800000000000000000000003D9500002A
:10FCF00035950000998400005D850000B184000006
:10FD000009850000BD840000558500006D84000059
:10FD1000FD830000F1830000298400004995000064
:10FD2000399500003D950000359500001D860000C6
:10FD3000E1860000358600008D86000041860000C7
:10FD4000D9860000F18500008185000075850000DE
:10FD5000AD850000499500003995000011A3000011
:10FD6000E9A200001DA3000001A8000039A30000C3
:10FD7000C59D0000ED9D0000159E0000299E00001D
:10FD8000519E00008DA40000899E00004DA200003D
:10FD9000C59F0000E5A0000021A2000081A1000095
:10FDA000EDA20000000000000000000000000000C4
:10FDB0000000000000000000000000002000000023
:10FDC00000000000000000007600010000000000BC
:10FDD000105F0020440000000062002000020000CC
:10FDE00018000000000000000000000000020000F9
:10FDF000200000000002000020000000507F2000D2
:10FE000008000000010000000000000000000000E9
:10FE10000058021080D1F008020000000060084085
:10FE200000700840008008400090084000A0084092
:10FE30000060094000700940008009400E000F007A
:10FE400010001100003C104000001040644C0020E5
:10FE500000000000083C104040001040784C00209A
:10FE600040000000103C1040800010408C4C0020EE
:10FE700080000000183C104080041040A04C00207E
:10FE800080040000203C104080081040B44C00204A
:10FE900080080000283C1040800C1040C84C002016
:10FEA000800C0000303C104080101040DC4C0020E2
:10FEB00080100000383C104080141040F04C0020AE
:10FEC00080140000403C104080181040044D002079
:10FED00080180000483C1040801C1040184D002045
:10FEE000801C0000403C104080201040044D002049
:10FEF00080200000483C104080241040184D002015
:10FF000080240000B5990000019A0000059A0000C5
:10FF1000099A0000259A0000659A0000959A000051
:10FF2000999A00009D9A0000F59A00002D9B000010
:10FF3000319B0000359B0000399B00003D9B000079
:10FF4000419B0000459B0000499B00004D9B000029
:10FF5000519B0000559B0000599B00005D9B0000D9
:10FF6000619B0000659B0000699B00006D9B000089
:10FF7000719B0000759B0000799B00007D9B000039
:10FF8000819B0000859B0000D19B0000D59B000059
:10FF9000D99B0000DD9B0000C99C0000F99C00007B
:10FFA000FD9C0000219D0000259D0000899D000012
:10FFB0008D9D0000919D0000959D0000999D000081
:10FFC0009D9D0000A19D0000A99D0000AD9D000029
:10FFD000B19D0000B59D0000B99D0000BD9D0000D1
:10FFE000C19D000000000000E19B0000B59C0000E6
:10FFF000C19C0000C59C0000000000000000000043
:020000040001F9
:1000000000000000545F0020440000000064002055
:1000100000020000010000000000000000000000DD
:100020000000000000000000DC5D00203400000043
:10003000105E0020500000000000000000000000E2
:10004000985F0020440000000076002000020000BD
:10005000280000000000000000000000007A0020DE
:10006000007C00200B010C010D010E010F0110019D
:10007000110112011C02434443305F41434D5F555F
:100080004152545F746F5F5553425F5468726561AB
:1000900064002128284E554C4C203D3D2062617360
:1000A0006529207C7C20284E554C4C203D3D206409
:1000B00061746129290069203C202875696E7433B8
:1000C000325F742946534C5F464541545552455F53
:1000D000534F435F55534152545F434F554E540065
:1000E00066736C5F75736172742E63004E554C4C71
:1000F00020213D2062617365006368616E6E656CEE
:10010000203C202875696E7433325F742946534C45
:100110005F464541545552455F444D415F4E554DF4
:100120004245525F4F465F4348414E4E454C536EE9
:1001300028626173652900433A2F4B65696C5F76CD
:10014000352F41524D2F5041434B2F4E58502F4C7D
:10015000504335355336395F4446502F31332E31B5
:100160002E302F647269766572732F66736C5F64CC
:100170006D612E68006461746100433A2F4B6569BC
:100180006C5F76352F41524D2F5041434B2F4E58C7
:10019000502F4C504335355336395F4446502F313C
:1001A000332E312E302F636F6D706F6E656E7473EA
:1001B0002F756172742F66736C5F61646170746512
:1001C000725F75736172742E63006C656E6774681C
:1001D00000433A2F4B65696C5F76352F41524D2FA6
:1001E0005041434B2F4E58502F4C504335355336CA
:1001F000395F4446502F31332E312E302F647269CF
:10020000766572732F66736C5F636C6F636B2E63BE
:100210000066616C736500433A2F4B65696C5F76CD
:10022000352F41524D2F5041434B2F4E58502F4C9C
:10023000504335355336395F4446502F31332E31D4
:100240002E302F647269766572732F66736C5F63EC
:100250006F6D6D6F6E5F61726D2E6300284E554C31
:100260004C20213D2068616E646C65292026262083
:10027000286368616E6E656C203C202875696E7419
:1002800033325F742946534C5F46454154555245BD
:100290005F444D415F4E554D4245525F4F465F436F
:1002A00048414E4E454C536E2862617365292900C2
:1002B00068616E646C652D3E6368616E6E656C206E
:1002C0003C202875696E7433325F742946534C5F45
:1002D000464541545552455F444D415F4E554D4250
:1002E00045525F4F465F4348414E4E454C536E2842
:1002F00068616E646C652D3E626173652900284EED
:10030000554C4C20213D2068616E646C6529202687
:100310002620284E554C4C20213D20636F6E666987
:1003200067290028786665725F636F756E74203C7C
:100330003D20444D415F4D41585F5452414E53461C
:1003400045525F434F554E542920262620283055CC
:100350004C203D3D207472616E7366657242797403
:100360006573202520627974655769647468290073
:10037000284E554C4C20213D2073726341646472B9
:1003800029202626202830554C203D3D2028287540
:10039000696E7433325F74292875696E7433325F05
:1003A00074202A297372634164647229202520789D
:1003B0006665726366672D3E627974655769647419
:1003C000682900284E554C4C20213D20647374410F
:1003D00064647229202626202830554C203D3D207B
:1003E000282875696E7433325F74292875696E74B4
:1003F00033325F74202A2964737441646472292043
:100400002520786665726366672D3E62797465574C
:1004100069647468290028786665726366672D3E92
:10042000737263496E63203C3D202875696E743891
:100430005F74296B444D415F416464726573734915
:100440006E7465726C65617665347857696474683A
:10045000292026262028786665726366672D3E640B
:100460007374496E63203C3D202875696E74385F53
:1004700074296B444D415F41646472657373496EC6
:100480007465726C6561766534785769647468293F
:1004900000696E7374616E6365203C204152524165
:1004A000595F53495A4528735F646D6142617365B2
:1004B00073290028282875696E7433325F742928DF
:1004C00075696E7433325F74202A296E65787444BE
:1004D00065736329202620282875696E7433325F7E
:1004E000742946534C5F464541545552455F444D2F
:1004F000415F4C494E4B5F44455343524950544F22
:10050000525F414C49474E5F53495A45202D203197
:10051000554C2929203D3D2030554C00433A2F4B66
:1005200065696C5F76352F41524D2F5041434B2FFB
:100530004E58502F4C504335355336395F44465052
:100540002F31332E312E302F647269766572732FFE
:1005500066736C5F646D612E63004E554C4C2021B8
:100560003D2068616E646C6500735F666C657863DE
:100570006F6D6D49727148616E646C65725B696E16
:100580007374616E63655D20213D204E554C4C00B7
:1005900069203C202875696E7433325F7429465394
:1005A0004C5F464541545552455F534F435F464C5F
:1005B0004558434F4D4D5F434F554E5400433A2FDE
:1005C0004B65696C5F76352F41524D2F5041434B3F
:1005D0002F4E58502F4C504335355336395F4446D3
:1005E000502F31332E312E302F647269766572733D
:1005F0002F66736C5F666C6578636F6D6D2E63003C
:10060000706F7274203C2041525241595F53495AD5
:100610004528735F6770696F436C6F636B4E616DE4
:10062000652900433A2F4B65696C5F76352F41523F
:100630004D2F5041434B2F4E58502F4C5043353582
:100640005336395F4446502F31332E312E302F64CC
:100650007269766572732F66736C5F6770696F2E4F
:10066000630056455253494F4E305F464C41534804
:100670005F4150495F545245450056455253494FDA
:100680004E315F464C4153485F4150495F5452459B
:100690004500433A2F4B65696C5F76352F41524DCB
:1006A0002F5041434B2F4E58502F4C50433535530C
:1006B00036395F4446502F31332E312E302F64723D
:1006C00069766572732F66736C5F6961702E630063
:1006D000433A2F4B65696C5F76352F41524D2F5051
:1006E00041434B2F4E58502F4C50433535533639DC
:1006F0005F4446502F31332E312E302F647269768D
:100700006572732F66736C5F72657365742E630018
:10071000626974506F73203C2033327500786665CF
:10072000722D3E6461746120213D204E554C4C0079
:1007300068616E646C6520213D204E554C4C007004
:100740006172616D20213D204E554C4C00786665EC
:100750007220213D204E554C4C00786665722D3E2E
:100760006461746153697A6520213D2030550043EE
:100770003A2F4B65696C5F76352F41524D2F5041B2
:10078000434B2F4E58502F4C504335355336395F1D
:100790004446502F31332E312E302F6472697665E6
:1007A00072732F66736C5F75736172745F646D61D1
:1007B0002E63004E554C4C20213D2068616E646CC8
:1007C000652D3E7278446D6148616E646C65004EC3
:1007D000554C4C20213D2068616E646C652D3E7443
:1007E00078446D6148616E646C65004E554C4C20D8
:1007F000213D20636F756E7400555342445F43750D
:1008000073746F6D436C617373305F4550315F5427
:10081000687265616400555342445F437573746F39
:100820006D436C617373305F4550325F546872651D
:10083000616400555342445F437573746F6D436C3C
:10084000617373305F4550335F5468726561640053
:10085000555342445F437573746F6D436C6173739A
:10086000305F4550345F546872656164005553428F
:1008700044305F436F72655F546872656164005510
:100880005342445F434443305F42756C6B5F54682E
:100890007265616400555342445F434443305F498D
:1008A0006E745F5468726561640000005254582091
:1008B00056352E352E33000000200840050000007C
:1008C0000020084004000000006008406D85000022
:1008D0000020084009000000002008400800000037
:1008E00000900840F18600000902690003010080C1
:1008F000FA0904000003FF0000040705010240009C
:100900000007058102400000070582024000000840
:100910000B010202020105090401000102020005A7
:100920000524001001052401030104240206052406
:100930000601020705830310000209040200020AEF
:10094000000006070504024000000705840240007D
:10095000000000000902690003010080FA09040098
:100960000003FF00000407050102000200070581E3
:100970000200020007058202000200080B010202C9
:10098000020105090401000102020005052400100E
:1009900001052401030104240206052406010207BF
:1009A00005830310000209040200020A0000060782
:1009B0000504020002000705840200020000000096
:1009C0006D08010000000000DC5F00204400000012
:1009D000006600200004000020000000000000006D
:1009E000000000005CFD00007081002040820020BB
:1009F0007481002080010300064010000100800087
:100A000012010002EF02014051C20BF0000101028D
:100A1000030100000A06000200000040010000007F
:100A20000A06000200000040010000000705000067
:100A30004000000028000000000104000100000048
:100A400000000000000157494E55534200000000CD
:100A500000000000000000000000000012034D0034
:100A60005300460054003100300030000100000007
:100A70000907690003010080FA0904000003FF0070
:100A800000040705010200020007058102000200C0
:100A900007058202000200080B010202020105099B
:100AA00004010001020200050524001001052401D3
:100AB000030104240206052406010207058303102E
:100AC000000209040200020A0000060705040200F1
:100AD0000200070584020002000000000907690007
:100AE00003010080FA0904000003FF000004070569
:100AF0000102400000070581024000000705820254
:100B0000400000080B010202020105090401000176
:100B1000020200050524001001052401030104243C
:100B200002060524060102070583031000020904DA
:100B30000200020A00000607050402400000070543
:100B400084024000000000000403090428034B0055
:100B5000450049004C0020002D00200054006F008B
:100B60006F006C00730020004200790020004100FB
:100B700052004D0012034D00430055002D004C0063
:100B800049004E004B001A033000300030003100A5
:100B900041003000300030003000300030003000C4
:100BA00026034D00430055002D004C0049004E0027
:100BB0004B00200043004D005300490053002D001E
:100BC00044004100500016035500530042005F00EE
:100BD00043004400430030005F003000160355001E
:100BE000530042005F0043004400430030005F00B8
:100BF00031000000A1990000A99900008E000000BA
:100C00000001050001008400000001000000280030
:100C100044006500760069006300650049006E00CD
:100C200074006500720066006100630065004700A3
:100C300055004900440000004E0000007B004300C6
:100C400044004200330042003500410044002D00C2
:100C500032003900330042002D00340036003600E7
:100C600033002D0041004100330036002D003100DB
:100C700041004100450034003600340036003300A6
:100C80003700370036007D00000000000000000043
:100C90000801002000000000000000000002000029
:100CA0002000000000020000200000000002000000
:100CB000200000000002000020000000008D002045
:100CC000F4820020E882002000910020008B0020A8
:100CD0000493002000010001020304040004000842
:100CE00010001000400000020000000000000000A2
:100CF00000000000000000000000000000000000F4
:100D00000000000001000000BC0C0100950801007B
:100D10007F0801000000060001000101018101823D
:100D200000820003008300040084000100010081B0
:100D3000000200820003008300040084000200011E
:100D4000008100020082000300830004008400038D
:100D5000000100810002008200030083000400847F
:100D600001000000140D010001000000E409010071
:100D700005000000000E010000000020000200003D
:100D80003CF700000010010000020020009200006B
:100D90004CF70000F0D095030000000000000000B8
:100DA0000000000000000000000000000000000043
:100DB0000000000000000000000000000000000033
:100DC0000000000000000000000000000000000023
:100DD0000000000000000000000000000000000013
:100DE0000000000000000000000000000000000003
:100DF00000000000000000000000000000000000F3
:100E000000000000000000000000000000000000E2
:100E100000000000000000000000000000000000D2
:100E20000000000000000000001BB70001000000EF
:100E3000AC080100D3B3FB0200000000000000007A
:100E400000000000000000000000000000000000A2
:100E50000000000000000000000000000000000092
:100E60000000000000000000000000000000000082
:100E70000000000000000000000000000000000072
:100E80000000000000000000000000000000000062
:100E90000000000000000000000000000000000052
:100EA0000000000000000000000000000000000042
:100EB0000000000000000000000000000000000032
:100EC0000000000000000000000000000000000022
:100ED000000000000024F4002C0A0100000A0100B8
:100EE000140A0100200A0100E80801005409010069
:100EF000700A0100DC0A0100480B0100C0820020DA
:100F00005C0A0100340A0100FC0B01008A0C01009C
:100F10008B0C01008C0C0100D80000208C93002069
:100F20009493002098930020889300200093002041
:100F3000C8080100B8080100E423002004240020B0
:100F4000142400200000000000000000E008010060
:100F5000D008010024240020442400205424002030
:100F60000000000000000000000000000000000081
:100F70000000000000000000000000000000000071
:100F80000000000000000000000000000000000061
:100F90000000000000000000000000000000000051
:100FA0000000000000000000000000000000000041
:100FB0000000000000000000000000000000000031
:100FC0000000000000000000000000000000000021
:100FD0000000000000000000000000000000000011
:100FE0000000000000000000000000000000000001
:100FF00000000000000000000000000000000000F1
:0400000500000201F4
:00000001FF
